:02000002D0002C
:1040000000400D00E44D0D00000006000C0005010D
:084010000401BD0B00000000DB
:04401800D44B0D0078
:10401C0009480A49884208B505D0094A824202D0AB
:10402C00121A00F08FFD0748074A0021121A00F0FF
:10403C0097FD014808BD00BFFCE50320544D0D0061
:10404C0064E6032064E60320F0E7032070B5074E16
:10405C00074C00F0C9FAA41BA4080025A54200D106
:10406C0070BD56F8043B98470135F7E7304D0D000D
:10407C00504D0D0000F011B808B500F00FF8BDE878
:10408C00084000F073BA00F037B90078B0FA80F04D
:10409C004009704701230370704770477047000058
:1040AC0008B5024B1B689B68019308BD68020300AE
:1040BC0008B5024B1B68DB68019308BD680203005E
:1040CC0008B5024B1B685B68019308BD180203001E
:1040DC0008B5024B1B685B69019308BD180203000D
:1040EC0008B5024B1B685B6C019308BD48020300CA
:1040FC0008B5024B1B689B6C019308BD480203007A
:10410C0008B5024B1B685B69019308BD6402030090
:10411C0008B5024B1B681B68019308BD3C020300E9
:10412C0008B5024B1B68DB68019308BD3C02030019
:10413C0008B5024B1B681B69019308BD3C020300C8
:10414C0008B5024B1B685B69019308BD3C02030078
:10415C0008B5024B1B689B69019308BD3C02030028
:10416C0008B5024B1B68DB69019308BD3C020300D8
:10417C0008B5024B1B689B6A019308BD3C02030007
:10418C0008B5024B1B681B68019308BD4C02030069
:10419C0008B5024B1B681B69019308BD4C02030058
:1041AC0008B5024B1B685B69019308BD4C02030008
:1041BC0008B5024B1B689B69019308BD4C020300B8
:1041CC0008B5024B1B68DB69019308BD4C02030068
:1041DC0008B5024B1B681B6A019308BD4C02030017
:1041EC0008B5024B1B685B68019308BD20020300F5
:1041FC0008B5034B1B68D3F88830019308BD000049
:10420C002002030008B5034B1B68D3F894300193CC
:10421C0008BD00002002030008B5024B1B685B6858
:10422C00019308BD4002030008B5024B1B689B6854
:10423C00019308BD4002030008B5024B1B68DB6804
:10424C00019308BD4002030008B5024B1B681B69B3
:10425C00019308BD4002030008B5024B1B685B6963
:10426C00019308BD4002030008B5024B1B689B6913
:10427C00019308BD4002030008B5024B1B68DB69C3
:10428C00019308BD4002030008B5024B1B681B6A72
:10429C00019308BD4002030008B5024B1B681B6B61
:1042AC00019308BD4002030008B5024B1B685B6B11
:1042BC00019308BD4002030008B5024B1B681B6C40
:1042CC00019308BD4002030008B5024B1B685B6CF0
:1042DC00019308BD4002030008B5024B1B68DB6B61
:1042EC00019308BD4402030008B5024B1B681B6810
:1042FC00019308BD1C02030008B5024B1B685B68E8
:10430C00019308BD1C02030008B5024B1B685B6CD3
:10431C00019308BD1C020300002240681146FFF700
:10432C00B3BF002240681146FFF7BEBF40680022B1
:10433C00FFF7B2BF4068002281F00101FFF79CBF7C
:10434C00002340681A461946FFF78EBF00234068C9
:10435C001A461946FFF780BF002240681146FFF746
:10436C0073BF002240681146FFF75EBF4068002211
:10437C000221FFF761BF002340681A46FFF74CBFCC
:10438C00024B03225A60024A1A60704768E6032007
:10439C00F04B0D0010B50446006818B1FFF7ACFFE8
:1043AC000023236010BD10B50446FFF7F3FF204631
:1043BC0010BD000010B5094B094C022200201A60F8
:1043CC00084B2060A080A071A360FFF709FF204676
:1043DC00054A0649BDE8104000F09EBB7CE6032070
:1043EC0070E603200000FFFF64E60320B3430D00DA
:1043FC0010B50446006808B1FFF77AFE204610BDE0
:10440C0010B58368044613B1032201469847204631
:10441C0010BD000010B5064C002320462360FFF7AA
:10442C005FFE2046034A0449BDE8104000F074BB0F
:10443C0080E6032064E60320FD430D00F8B5064634
:10444C000D468F180024BD420CD0336815F8011BA3
:10445C009B6830469847031E01DB1C44F3E7002C95
:10446C0008BF1C462046F8BD13B50446084659B192
:10447C00019100F0A1FB23680199DB6802462046FC
:10448C0002B0BDE81040184702B010BD03689B682D
:10449C00184730B58BB000238DF82430012A98BF13
:1044AC000A2209AC0D46B1FBF2F101FB125303F0E9
:1044BC00FF03092B94BF30333733DBB2AA4204F825
:1044CC00013DEFD92146FFF7CFFF0BB030BD0023E4
:1044DC0040681A461946FFF7BFBE0000014B024A5E
:1044EC001A60704784E60320244C0D00024B1A68B6
:1044FC00024B1A60704700BFFCE5032088E60320DE
:10450C0010B50446FFF77CFF204610BD0348044A53
:10451C0004490023836000F0FFBA00BF8CE603203F
:10452C0064E603200D450D00014B1860704700BF79
:10453C0000E6032008B50B4B43B100F057F90368B4
:10454C001B699847002801DDAFF30080064B43B18F
:10455C0000F0CAF903681B699847002801DDAFF326
:10456C00008008BD000000000000000008B5FFF747
:10457C00E1FFFFF7ADFD014B186008BDECE7032030
:10458C000248034A0349121A00F0DCBA00F4032073
:10459C0004F40320504D0D0007B5002300931A4678
:1045AC006FF07701FFF72EFE03B05DF804FB0000FF
:1045BC0007B543880A2B08D0502B0BD1094B1B682D
:1045CC004BB103B05DF804EB1847FFF7E5FF03B000
:1045DC005DF804FB002300931A466FF07701FFF798
:1045EC0011FEF4E7A0E6032038B5124C1248134D27
:1045FC000021FFF789FE2368AB42114B0CBF01224F
:10460C0000221A7002D0FFF7BBFF2560FFF758FDA0
:10461C00044600F0ADFA0B4B13B12046AFF300800B
:10462C0000210848FFF758FEBDE838400648002135
:10463C00FFF7DEBD00F4032035450D001E1C279A44
:10464C009CE6032000000000BD450D00704710B52E
:10465C001821044600F065FA204610BDF0B5037D24
:10466C00062B8DB00E4600F104074FF0000412D05B
:10467C0000F1080515F8011D0A223046FFF709FF65
:10468C00AF42044419D0002CF4D02E213046FFF751
:10469C00FDFE0444EEE72F236A4639460A208DF8C6
:1046AC000040FFF72DFD684600F086FA336802469D
:1046BC00DB68694630469847044620460DB0F0BD8D
:1046CC0010B5054B0446112240F8043B002100F0C4
:1046DC0047FA204610BD00BF4C4C0D000346074A5C
:1046EC0010B543F8042B01F1100251F8044B43F8B8
:1046FC00044B9142F9D10A781A7010BD4C4C0D0044
:10470C0010B59DF8084044EA032343EA024242EA0A
:10471C00016104234160037510BD000013B5054B06
:10472C000360CB7800938B784A780978FFF7E8FF21
:10473C0002B010BD4C4C0D0041747047704708B569
:10474C000021007CFFF734FD40EAE07008BD08B59D
:10475C000121007CFFF72CFD40EAE07008BD08B594
:10476C00007CFFF71DFD20EAE07008BD08B5007C59
:10477C00FFF70EFD20EAE07008BD13B50446007C7F
:10478C000191FFF70DFD0028019901DC607C20B13F
:10479C00207CFFF715FD20EAE07002B010BD007C14
:1047AC00FFF716BD10B51421044600F0BAF92046E7
:1047BC0010BD000010B54FF47A7304460846002172
:1047CC00C4E90113044B2360012320746374114664
:1047DC00FFF7D6FC204610BD604C0D0010B514221E
:1047EC000446002100F0BCF9204610BD10B5104C59
:1047FC0088B003A8FFF7F2FF2178BFF35B8F11F0AD
:10480C00010111D120460191FFF73FFC019958B1EC
:10481C0003AA0848FFF7CEFF2046FFF73BFC064AE9
:10482C000649044800F078F9024808B010BD00BFF2
:10483C00A4E60320A8E6032064E6032049470D0004
:10484C0070474174704708B5007CFFF791FC20EA73
:10485C00E07008BD08B5007CFFF76AFC20EAE07048
:10486C0008BD08B5007CFFF773FC40EAE07008BD9A
:10487C0008B5007CFFF764FC40EAE07008BD007CE2
:10488C00FFF76EBC37B5457C04462DB1207C03B0D8
:10489C00BDE83040FFF744BC007C0191FFF768FC99
:1048AC0000280199F2DC284603B030BD10B5142164
:1048BC00044600F036F9204610BD000010B54FF04C
:1048CC00000C0446084611464FF47A72C4E901C242
:1048DC00044A22600122207462741A46FFF718FC05
:1048EC00204610BD904C0D0013B50E4C2178BFF333
:1048FC005B8F11F0010112D120460191FFF7C5FB2E
:10490C00019960B1084A094B0948FFF7D7FF2046C7
:10491C00FFF7C0FB074A0849054800F0FDF80448BA
:10492C0002B010BDBCE60320C0E6032044E7032020
:10493C00C8E7032064E603204D480D0000224068C0
:10494C001146FFF781BC002240681146FFF79CBC62
:10495C00002240681146FFF7A7BC40680022FFF711
:10496C009BBC4068002281F00101FFF785BC00234D
:10497C0040681A461946FFF777BC0022406811467A
:10498C00FFF752BC406800220221FFF755BC002300
:10499C0040681A46FFF740BC024B04225A60024A98
:1049AC001A607047DCE70320C04C0D000023406800
:1049BC001A46FFF731BC406800220221FFF73CBCCD
:1049CC00002240681146FFF72FBC002240681146B8
:1049DC00FFF73ABC002340681A461946FFF73CBC67
:1049EC00002340681A461946FFF73EBC4068002178
:1049FC00FFF762BC40680021FFF766BC40680022EC
:104A0C0081F00101FFF738BC40680022FFF744BC7D
:104A1C00002240681146FFF747BC0022406811464F
:104A2C00FFF732BC2DE9F043002495B016460D4635
:104A3C000746FFF745FE214618220EA8009400F009
:104A4C008FF84023CDE90C3421466B460CAA304636
:104A5C00FFF72EFB044600284CD102460121686862
:104A6C00FFF7F2FB0221804622466868FFF7ECFB59
:104A7C00009E81462146002E3CD000293AD1736815
:104A8C00022B03D00A2B11D0F669F4E7B8F1000F12
:104A9C000AD0716906A8043107ADFFF73FFE0FCDB0
:104AAC003C1D0FC42B6823704146EDE7B9F1000F94
:104ABC0001D14946E8E77469102201A800F050F8CA
:104ACC0006238DF8143001AD04F10803183418686E
:104ADC0059682A4603C20833A3421546F7D101A9E7
:104AEC0006A807ADFFF7FAFD0FCD3C1D0FC42B68D0
:104AFC002370DEE70098FFF7D3FA384615B0BDE80F
:104B0C00F0830000024B034A1A6000225A6070477F
:104B1C00E4E70320FC4C0D000B460146184600F060
:104B2C0003B8FFF7B0BA000010B5054C13462CB112
:104B3C000A4601460220AFF3008010BD2046FCE778
:104B4C00000000000A44914200F1FF3300D170478D
:104B5C0010B511F8014B03F8014F9142F9D110BD7A
:104B6C0002440346934200D1704703F8011BF9E756
:104B7C0038B50D4B1D68AB6B04467BB91820FFF79D
:104B8C00B3FB0A4A0A4BA863C0E90023094B8360B4
:104B9C000B23838101220023C0E90423AB6B002289
:104BAC001C615A6138BD00BF00E603200E33CDAB4B
:104BBC0034126DE6ECDE0500034613F8012B002AD7
:104BCC00FBD1181A013870471D400D0059400D00DB
:104BDC0081400D0085400D00000000000000000029
:104BEC000000000083430D0079430D006F430D005E
:104BFC0065430D0059430D004D430D00F9490D005F
:104C0C00014A0D0041430D0039430D002F430D00A7
:104C1C0025430D00314A0D006170700025592D257A
:104C2C006D2D25645425483A254D3A2553257A0097
:104C3C0061736374696D6500000000000000000082
:104C4C0069460D0059460D005B460D000000000042
:104C5C000000000049470D00B1470D0087470D00CB
:104C6C0049440D0079470D004B470D005B470D0083
:104C7C00AB470D006B470D0045470D0000000000D1
:104C8C00000000004D480D00B9480D0091480D0082
:104C9C0049440D0061480D007D480D006F480D0022
:104CAC008B480D004F480D0053480D0000000000CC
:104CBC00000000009B490D0091490D0087490D0033
:104CCC0049490D00DB440D007B490D00F9490D00ED
:104CDC00014A0D006F490D0067490D005D490D003B
:104CEC0053490D00314A0D00000000000000000087
:104CFC00B9490D00C3490D00CD490D00D7490D0030
:104D0C00E1490D00ED490D00F9490D00014A0D0076
:104D1C00094A0D00154A0D001D4A0D00274A0D00C9
:104D2C00314A0D008D430D00C1430D0021440D008F
:104D3C00E9440D00F9440D0019450D00A5490D007D
:044D4C00114B0D00FA
:044D5000000000005F
:104D54003C4C0D0004E603200000000000000000AD
:104D6400000000000000000000000000000000003F
:104D7400000000000000000000000000000000002F
:104D8400000000000000000000000000000000001F
:104D9400000000000000000000000000000000000F
:104DA40000000000000000000000000000000000FF
:084DB4000000000000000000F7
:104DBC00FFFFFFFF00000102030405060708090AB4
:104DCC000B0C0D0E0F101112131415161718191AAF
:084DDC001B1C1D1E1F202800F6
:044DE40078563412B7
:04000003D000401CCD
:00000001FF
