:02000002D0002C
:1040000000400D00C4880D00000006000C000501F2
:084010000401BD0B00000000DB
:04401800B0790D006E
:10401C0009480A49884208B505D0094A824202D0AB
:10402C00121A03F06BFC0748074A0021121A03F01E
:10403C0073FC014808BD00BF1CE0032024840D0064
:10404C0094E4032098E40320F4E7032070B5074EB2
:10405C00074C02F035F8A41BA4080025A54200D19A
:10406C0070BD56F8043B98470135F7E7F0830D0017
:10407C0018840D0000F05CB808B500F023F9BDE819
:10408C00084001F0DFBF01F0F3BC01F0F1BC01F01E
:10409C00F7BC000008B5034A00210C2001F03CFCE1
:1040AC00FEE700BFF5550D000078B0FA80F040092E
:1040BC0070470123037070477047704738B58469A7
:1040CC000A4B036005467CB16368013B63605BB9D6
:1040DC00236820469B689847A368013BA3601BB9E3
:1040EC0023682046DB689847284638BD3C820D0083
:1040FC0010B50446006808B101F0C2FC204610BDA2
:10410C000EB403B503AB002153F8042B019301F05B
:10411C00F6FE02B05DF804EB03B0704710B5044630
:10412C00FFF7CCFF20461C2102F0A1FE204610BD5B
:10413C0070B502F0E1F84FF4165102F0D1F802F02C
:10414C0061F94FF4165102F059F901210B2002F0DC
:10415C00E9FD01210C2002F0E5FD00210D2002F00B
:10416C00E1FD03210E2002F0DDFD4B4C4B4E4C4D7E
:10417C000121112002F0D6FD0023236002F04AFE3B
:10418C00216802F0DDF902F045FE02F0E0F960B9B9
:10419C0002F0B2F8236831461A46FFF7B1FF2B68DC
:1041AC00012001332B6001F013FF236801337F2BB7
:1041BC002360E3DD02F0A0F8394B3A491A683A4D16
:1041CC003A4EFFF79DFF3C220221394800F084FE55
:1041DC00374800F011FE4FF4FA6001F0F9FE344854
:1041EC0000F0AEFD3248022101F001F93048012106
:1041FC0001F0F3F82E48012101F0F4F800221146E9
:10420C002B4801F0E7F82B49294801F050FE2848CB
:10421C0000F0F2FD4FF4FA6001F0DAFE02F06CF8F7
:10422C002549FFF76DFF224800F08AFD0022114658
:10423C001F4801F0CFF821491D48FFF761FF1C48CA
:10424C0000F0DAFD002368681A46194601F098FB65
:10425C0000226868114601F09BFB044640B102F055
:10426C004BF83146FFF74CFF642001F0B1FEEFE74D
:10427C00B9EE080A01F082FE01F0E2FB10B1204613
:10428C0001F0E6FB642001F0A3FEBDE870400C4891
:10429C00762100F078BB00BF48E50320C4790D00FF
:1042AC0014E50320E3790D00C8E70320457A0D00DF
:1042BC0018E50320FF790D00157A0D002E7A0D00FC
:1042CC00D0E4032008B50E2002F056FD014628B1BB
:1042DC00BDE808400121112002F035BDBDE80840C1
:1042EC00112002F030BD10B52421044602F0BFFDB0
:1042FC00204610BD10B5D421044602F0B8FD20466E
:10430C0010BD0000F7B52A4C2A4BA36000252A4E9D
:10431C002560A580A571022001F00EFB2046274CDC
:10432C002749284F324602F09DFD0421204600F01B
:10433C00F1FC32462449204602F094FD2348244CDB
:10434C0000F096F8384602F02FFB324621493846E9
:10435C0002F088FD204B00932049214B40F25B7208
:10436C00204601F0D7F81F4B236032461E49C4F893
:10437C00D070204602F076FD2B4621461B4A1C4885
:10438C0001F0E4F82B4621461A4A1B4801F0DEF8EE
:10439C002B462146194A1A4801F0D8F8194A1A48EE
:1043AC002B46214603B0BDE8F04001F0CFB800BF6A
:1043BC00A8E403200000FFFF98E4032018E5032085
:1043CC00FD400D00B4E40320C5400D00D0E40320F3
:1043DC004CE50320C9400D00627A0D00527A0D00A5
:1043EC00477A0D00B8800D00C7400D00837A0D0090
:1043FC003CE503209D7A0D0020E60320B77A0D00E2
:10440C002CE60320D47A0D009CE40320704710B5F1
:10441C001021044602F02BFD204610BD73B5044656
:10442C0008462279A36832B1A3B90B4902B0BDE8A2
:10443C00704001F029BD094A267B094D0949647B6E
:10444C00012E18BF2946CDE900140749FFF758FE85
:10445C0002B070BD054AEFE7FB7A0D00E2790D0062
:10446C00F77A0D00F37A0D00117B0D00EA7A0D003E
:10447C004FF0FF330361704713B50B4C2178BFF33A
:10448C005B8F11F001010BD120460191FFF70CFE5F
:10449C00019928B1054801F057FB2046FFF709FEAA
:1044AC00024802B010BD00BF38E603203CE60320F2
:1044BC002DE9F04190F91330013305460F4606D132
:1044CC00FFF7DAFF3946BDE8F04101F05DBC00248E
:1044DC0007264FF0010895F91300002180B202F075
:1044EC0032FC95F9110008FA06F1394080B202F05D
:1044FC002AFC95F91300012180B202F024FC95F9F5
:10450C001200640080B2E4B202F036FC08B144F050
:10451C000104013EDFD22046BDE8F08108B5FFF76B
:10452C00ABFFBDE8084001F050BB07B50190FFF7A9
:10453C00A3FF019903B05DF804EB01F05FBB000031
:10454C0030B590F91030013385B004460D461FD1BB
:10455C000179006801F0F0FF2068036829469B6828
:10456C009847206801F0F3FF21792068022201F0BE
:10457C00E0FF206803685B6998470546206803687C
:10458C005B69984740EA052085B2284605B030BDE6
:10459C0090F9133001330CD1184B009300238DF894
:1045AC000430174B029368460123ADF80C30FFF72B
:1045BC00BCFF94F91000002180B202F0C4FB45F05E
:1045CC0080012046FFF774FF00212046FFF770FFA3
:1045DC00002105462046FFF76BFF40EA052085B217
:1045EC0094F91000012180B202F0ADFB94F9133064
:1045FC000133CAD1FFF792FFC7E700BF387B0D002C
:10460C0020A1070008B5FFF79BFF40BA80B208BD98
:10461C0030B590F91030013385B004460D4618D1F1
:10462C000179006801F088FF2068036829469B68BF
:10463C009847206801F08BFF21792068012201F056
:10464C0078FF206803685B699847C5B2284605B0B7
:10465C0030BD90F9133001330CD1154B009300236E
:10466C008DF80430134B029368460123ADF80C30DF
:10467C00FFF75BFF94F91000002180B202F063FB9E
:10468C0045F080012046FFF713FF00212046FFF77D
:10469C000FFF054694F91000012180B202F053FB84
:1046AC0094F913300133D1D1FFF738FFCEE700BFB7
:1046BC00387B0D0020A1070008B5F321FFF7A8FFF8
:1046CC0000F0010008BD38B588210446FFF79AFFB9
:1046DC008A21A0822046FFF795FF8C21E08220469C
:1046EC00FFF790FF8E2120832046FFF78BFF902150
:1046FC0060832046FFF786FF9221A0832046FFF7B8
:10470C0081FF9421E0832046FFF77CFF96212084D3
:10471C002046FFF777FF982160842046FFF772FF51
:10472C009A21A0842046FFF76DFF9C21E08420464F
:10473C00FFF768FF9E2120852046FFF763FFA1212C
:10474C0060852046FFF764FFE12184F82C002046A9
:10475C00FFF758FFE321E0852046FFF759FFE421DE
:10476C0084F830002046FFF753FFE521054620462C
:10477C00FFF74EFF00F00F0343EA05106086E621B9
:10478C002046FFF745FFE52105462046FFF740FF91
:10479C00031143EA0510A086E7212046FFF738FFF6
:1047AC0084F8360038BD00007FB590F91030013325
:1047BC0004460E46154612D10179006801F0BCFE84
:1047CC002068036831469B6898472068036829462F
:1047DC009B689847206801F0BAFE04B070BD90F950
:1047EC00133001330CD1144B009300238DF804309B
:1047FC00124B029368460123ADF80C30FFF795FE7F
:10480C0094F91000002180B202F09DFA06F07F01AD
:10481C002046FFF74DFE29462046FFF749FE94F946
:10482C001000012180B202F08EFA94F9133001339A
:10483C00D3D1FFF773FED0E7387B0D0020A1070022
:10484C00F8B5DB0002F0070203F03803134343EA28
:10485C0081139DF8186080F83C3090F840309DF83A
:10486C001C509DF8207066F3471380F84030ED0023
:10487C0090F8383007F0070705F0380523F03F03B0
:10488C003D4304461D4380F8385006F00702F221E0
:10489C00FFF78AFF94F83820C2F3C20302F0070135
:1048AC009B0043EA411343EAD2122046F521FFF75D
:1048BC007BFF94F83C20C2F3C20302F007019B007B
:1048CC0043EA411343EA92122046F421BDE8F84032
:1048DC00FFF76ABF30B5044690F91000421C85B052
:1048EC0019D1206801F0F6FDD0212046FFF790FE8B
:1048FC006028A06045D12046B622E021FFF754FF86
:10490C004FF4967001F064FB2046FFF7D5FE054688
:10491C0028B36420F6E7012180B202F014FA94F96E
:10492C001000012180B202F0FDF994F91300431C30
:10493C0004D1FFF7A1FD01F011F9D5E7012180B2F7
:10494C0002F0F0F994F91100012180B202F0EAF9B9
:10495C0094F91200002180B202F0E4F9C4E7204679
:10496C00FFF7B1FE052300931A4603212046CDE93B
:10497C000155FFF765FF642001F02AFB012005B00B
:10498C0030BD0020FBE710B50171044602F042FA7D
:10499C0020602046BDE81040FFF79CBF08B500F032
:1049AC00EBFD014B186008BD44E60320F0B5457ED5
:1049BC00BDF81440022D67D0032D00F09780012D17
:1049CC006AD10589D2432A4412B2002A5BDBB0F9C2
:1049DC000850954257DD0029BEBF5B181BB2002161
:1049EC00B0F90A00CD188542C4BF431A1BB2002B84
:1049FC0049DDC1F3C400DFF81CC102EBC01211F099
:104A0C000701DBB20CEB02001AD0C1F108053F4ED6
:104A1C00EDB2AB42775D3FBFA5EB030EFF2646FA26
:104A2C000EF637401CF80260012C0CBF3E43BE430F
:104A3C00AB420CF8026026D308390B44DBB2803051
:104A4C00072B17D9012C0CBFFF25002500F1800185
:104A5C001A46083AD2B2072A01F8805C01F18001AB
:104A6C00F7D8A3F10802C2F3C402013200EBC21062
:104A7C0003F007033BB1264AD25C0378012C0CBF30
:104A8C00134393430370F0BD4589D2432A44CD1898
:104A9C000189491B12B209B2002AF4DBB0F90A50A1
:104AAC009542F0DD0029BEBF5B181BB20021B0F9A6
:104ABC000870CE18BE42C4BF6B1A1BB2002BE2DDCD
:104ACC00D010802510FB05111248084402F0070194
:104ADC0001228A40012CD2B203440CD18342D2D0A1
:104AEC0010F8014B144300F8014CF7E7CD1841893D
:104AFC00491B09B269E7D243D2B28342C3D010F842
:104B0C00014B144000F8014CF7E700BF24E00320F0
:104B1C001CE003202CE00320F0B5457EBDF81440CA
:104B2C00022D34D0032D00F09980012D37D1D518EA
:104B3C000289521B12B20029C0F28F80B0F90A50C0
:104B4C008D4240F38A80002ABEBF9B181BB2002204
:104B5C00B0F90870D618BE42C4BFAB1A1BB2002BFA
:104B6C007BDDC810802510FB05224448104401F061
:104B7C00070201219140012CC9B2034473D1984220
:104B8C006BD010F8014B0C4300F8014CF7E705898A
:104B9C00C9432944D5184289521B09B212B20029C3
:104BAC005BDBB0F908508D4257DD002ABEBF9B1865
:104BBC001BB20022B0F90A00D5188542C4BF831A73
:104BCC001BB2002B49DDC2F3C400DFF8B0C001EB0F
:104BDC00C01112F00702DBB20CEB01001AD0C2F1CB
:104BEC000805274EEDB2AB42775D3FBFA5EB030E38
:104BFC00FF2646FA0EF637401CF80160012C0CBF5C
:104C0C003E43BE43AB420CF8016026D3083A134432
:104C1C00DBB28030072B17D9012C0CBFFF250025E8
:104C2C0000F180011A46083AD2B2072A01F8805CDA
:104C3C0001F18001F7D8A3F10802C2F3C4020132DA
:104C4C0000EBC21003F007033BB10E4AD25C0378B1
:104C5C00012C0CBF134393430370F0BD4589C9432A
:104C6C00294409B267E7C943C9B29842F5D010F894
:104C7C00014B0C4000F8014CF7E700BF2CE003207F
:104C8C0024E003201CE00320F8B50D1E0646144654
:104C9C001F462DDB00F0B9FBA84229DD002C27DBD9
:104CAC00304600F0B5FBA04222DD304600F09DFB03
:104CBC0002281ED0032825D0012804D13289E443D0
:104CCC0022442C4615B2002C2146B8BFE11DC91058
:104CDC00802311FB03550E49012204F007044B57A6
:104CEC0002FA04F464B297420CBF2343A3434B551E
:104CFC00F8BD318972890139E4434D1B14442DB23E
:104D0C0024B2E0E77389013B5B1B25461CB2DAE752
:104D1C002CE0032038B5402204460D46802100F0DB
:104D2C008BFA064B2360FF2384F8213063774FF610
:104D3C00FF73E38384F82050204638BD4C7B0D0074
:104D4C0002484FF48062002102F0E6BD2CE0032003
:104D5C0007B590F8223043B10191FFF78DFB019913
:104D6C0003B05DF804EB01F00FB80B46817F407F78
:104D7C00012203B05DF804EB02F011B838B590F9DC
:104D8C001D30013304460D461DD090F92100012140
:104D9C0080B201F0D8FF94F91F00002180B201F01D
:104DAC00D2FF94F92100002180B201F0CCFF2946FA
:104DBC002046FFF7CDFF94F921000121BDE83840D2
:104DCC0080B201F0C0BF02F025F894F91B1001F07D
:104DDC00B7FB02F01FF8036800219B68984702F0AC
:104DEC0019F8036829469B68984702F013F8BDE848
:104DFC00384001F0ACBB0000F8B521210446FFF7A8
:104E0C00BDFF00212046FFF7B9FF7F212046FFF7A9
:104E1C00B5FF22212046FFF7B1FF00212046FFF706
:104E2C00ADFF07212046FFF7A9FF94F91D30294F4C
:104E3C0001332AD094F92100012180B201F083FFC3
:104E4C0094F91F00012180B201F07DFF94F921003B
:104E5C00002180B201F077FF012000F0C5FB4FF478
:104E6C008065013D17F8011B2046ADB2FFF770FFBE
:104E7C00002DF6D1012000F0B7FB94F9210001219F
:104E8C00BDE8F84080B201F05EBF102601F0C2FF11
:104E9C0094F91B1001F054FB01F0BCFF0368A6F160
:104EAC0010059B684021ADB2984701F0B3FF036831
:104EBC00795D9B680135ADB29847AE42F5D101F0F2
:104ECC00A9FF01F044FB06F110039EB2B6F5826F08
:104EDC00DCD1F8BD2CE0032038B590F91D300177FA
:104EEC00013304460D46C27600F0C98090F91F00CC
:104EFC00012180B201F016FF94F92100012180B24A
:104F0C0001F010FF94F82230002B00F0A68094F9E9
:104F1C002100012180B201F016FFFFF7ADFA01214B
:104F2C0000F02DFEFFF7A8FA102100F007FFFFF7A5
:104F3C00A3FA002100F036FEFFF79EFA00F00EFEF9
:104F4C0094F92000012180B201F0ECFE94F92000CC
:104F5C00012180B201F0F7FE012001F039F894F93B
:104F6C002000002180B201F0EEFE0A2001F030F8A2
:104F7C0094F92000012180B201F0E5FE2046AE211B
:104F8C00FFF7FCFE2046D521FFF7F8FE20468021D6
:104F9C00FFF7F4FE2046A821FFF7F0FE20463F2144
:104FAC00FFF7ECFE2046D321FFF7E8FE2046002158
:104FBC00FFF7E4FE20464021FFF7E0FE8D2120465E
:104FCC00FFF7DCFE012D0CBF102114212046FFF74A
:104FDC00D5FE20462021FFF7D1FE20460021FFF709
:104FEC00CDFE2046A121FFF7C9FE2046C821FFF7C0
:104FFC00C5FE2046DA21FFF7C1FE20461221FFF73D
:10500C00BDFE81212046FFF7B9FE012D0CBF9F216B
:10501C00CF212046FFF7B2FED9212046FFF7AEFE86
:10502C00012D0CBF2221F1212046FFF7A7FE2046BF
:10503C00DB21FFF7A3FE20464021FFF79FFE204611
:10504C00A421FFF79BFE2046A621FFF797FE2046E2
:10505C00AF21BDE83840FFF791BE94F91D00012146
:10506C0080B201F05FFE94F91E00012180B201F0C4
:10507C0059FE94F82230002B3FF462AF47E701F061
:10508C00C9FE01F027FA5BE72DE9F04F85B01F460A
:10509C00BDF93880BDF83C30A8EB0209A7EB010A3A
:1050AC00B9F1000FB8BFC9F10009BAF1000FB8BFD0
:1050BC00CAF1000AD14583460C46154604DD3A4632
:1050CC002C4647460D469046BC4205DD2A464546D1
:1050DC00904622463C4617463E1BB2B20092A8EBC5
:1050EC000502002AB8BF52420192C6F3C03202FA3E
:1050FC0086F64545B4BF01224FF0FF32761002927E
:10510C00BC421CDCDBF800200393D145D2F81080A4
:10511C00C7BF294622462A4621465846C047019A0F
:10512C00039BB61AB1B236B2002E05DA029A1544B8
:10513C00009A56182DB236B2013424B2E0E705B00D
:10514C00BDE8F08F2DE9F347BDF82C800768BDF959
:10515C002890CDF800800446FF6916468A461D4605
:10516C00B8472368CDF8008009F1FF323244DF697B
:10517C0051462B46204612B2B8472368CDF8008022
:10518C009F6932464B4651462046B8476B1E03EB8F
:10519C000A012368CDF828809D6932464B4609B236
:1051AC002046AC4602B0BDE8F047604737B5013B3E
:1051BC0013440468BDF8185001951BB20093646940
:1051CC000B46A04703B030BD37B5BDF81850046886
:1051DC00CDE90025013B0B4464691BB2A04703B029
:1051EC0030BD2DE9F347BDF92890BDF82C8005465C
:1051FC0092460C46CE18B4420BDA2B68CDF80080E0
:10520C009F6921464B46524628460134B84724B282
:10521C00F1E702B0BDE8F08713B502680191B0F96F
:10522C000E100091546AB0F90C3000221146A047C0
:10523C0002B010BD7047000030B54281C2814FF002
:10524C00FF320024054D426101224460056001815A
:10525C00818104610283827630BD00BF80800D00A5
:10526C002DE9F04F2DED028B8BB006460391BDF866
:10527C0058100591BDF85C100691B0F90C1003980C
:10528C009DF86050814251DDB6F90E1091424DDD12
:10529C00062111FB0504002C48DD02EBC504002C93
:1052AC0044DD03EB8303099393B207910024049329
:1052BC00052C1CBF2D4B099A049F16BF1B190023EC
:1052CC009B5C0293039AABB2089304FB05F313FAAD
:1052DC0082F31BB204EB020A08EE103A4FF00008FE
:1052EC000FFA85F90FFA8AFA029BDB072FD5012DED
:1052FC00336820D1049AD3F810B0059B424412B203
:10530C0051463046D847029B5B080293089B08F134
:10531C0001081F44B8F1080FBFB2E5D1079B013B50
:10532C00013413F0FF0364B20793C1D10BB0BDEC91
:10533C00028BBDE8F08F059ACDE9009218EE101A99
:10534C00D3F824B03AB24B463046D847DBE7DDE918
:10535C0005239342D7D0012D336805D1049AD3F895
:10536C0010B0069B4244CAE7069AE5E77C7B0D0029
:10537C0030B50A2985B0044607D1027E638A03EB57
:10538C00C20363820023238221E00D291FD0037EF8
:10539C000293C38A0193838A0093B0F912200B46BF
:1053AC00B0F91010FFF75CFF217E238A01EB41005E
:1053BC0003EB4003A07E1BB20A46238238B1B4F93A
:1053CC000C006FF0050505FB01018B42D6DC0120BA
:1053DC0005B030BD018242827047012938BF0121DE
:1053EC0001767047C18281827047407E704701F020
:1053FC000303B0F90A204376C907B0F9083059BF46
:10540C008381C2818281C3817047B0F90C007047DF
:10541C00B0F90E00704708B5D0F8D00003681B6BCC
:10542C009847003818BF012008BDF8B506460F464E
:10543C001446C4B1D6F8D00003681B6B984708B962
:10544C000020F8BDD6F8D000FA2C03682546A8BF7A
:10545C00FA25DB682A463946984783B2E41A9D42FE
:10546C00A4B2E6D0ECE70120EBE72DE9F8430646C1
:10547C00884691461F461D460024D6F8D000036886
:10548C001B6B9847D0B1002D18DBD6F8D000036801
:10549C001B69984760B1D6F8D00003685B699847E0
:1054AC0008F804000134A4B24C4507D03D46ECE7A3
:1054BC000A3D0A202DB200F08BFDDEE72046BDE848
:1054CC00F88370B5044600F1220596220021284687
:1054DC0002F022FA6168284602F054FAD4F8D0009F
:1054EC002289036829465E6A0023B047003818BF3A
:1054FC00012070BD10B50446D0F8D00003681B6BBA
:10550C00984720B1D4F8D0000368DB6A9847012093
:10551C0010BD000030B502810A4A0B4DC0E90323CF
:10552C00039B43610023C0E90051C0E92F33C0E95C
:10553C003133C0E90633C0F8CC300384A0F8B8305E
:10554C0030BD00BFE2790D00DC800D0010B5C0E964
:10555C000012037210BD000008B5024B1B689B685B
:10556C00019308BD6802030008B5024B1B68DB6899
:10557C00019308BD6802030008B5024B1B681B6849
:10558C00019308BD2C02030008B5024B1B689B68F5
:10559C00019308BD2C02030008B5024B1B68DB68A5
:1055AC00019308BD2C02030008B5024B1B681B6954
:1055BC00019308BD2C02030008B5024B1B685B6904
:1055CC00019308BD2C02030008B5024B1B685B69F4
:1055DC00019308BD6C02030008B5024B1B685B68A5
:1055EC00019308BD1802030008B5024B1B68DB6869
:1055FC00019308BD1802030008B5024B1B685B69D8
:10560C00019308BD1802030008B5024B1B685B6CC4
:10561C00019308BD4802030008B5024B1B689B6C44
:10562C00019308BD4802030008B5024B1B685B6977
:10563C00019308BD6402030008B5024B1B681B6A8A
:10564C00019308BD6402030008B5024B1B689B6AFA
:10565C00019308BD6402030008B5024B1B681B686C
:10566C00019308BD3C02030008B5024B1B68DB68C4
:10567C00019308BD3C02030008B5024B1B681B6973
:10568C00019308BD3C02030008B5024B1B685B6923
:10569C00019308BD3C02030008B5024B1B689B69D3
:1056AC00019308BD3C02030008B5024B1B68DB6983
:1056BC00019308BD3C02030008B5024B1B681B6A32
:1056CC00019308BD3C02030008B5024B1B689B6AA2
:1056DC00019308BD3C02030008B5024B1B68DB6A52
:1056EC00019308BD3C02030008B5024B1B68DB6844
:1056FC00019308BD2802030008B5024B1B689B6987
:10570C00019308BD2802030008B5024B1B68DB6936
:10571C00019308BD2802030008B5024B1B681B6AE5
:10572C00019308BD2802030008B5024B1B685B6A95
:10573C00019308BD2802030008B5024B1B689B6A45
:10574C00019308BD2802030008B5024B1B68DB6AF5
:10575C00019308BD2802030008B5024B1B681B6BA4
:10576C00019308BD2802030008B5024B1B685B6B54
:10577C00019308BD2802030008B5024B1B681B6C83
:10578C00019308BD2802030008B5024B1B681B6D72
:10579C00019308BD2802030008B5024B1B689B69E6
:1057AC00019308BD3802030008B5024B1B68DB6986
:1057BC00019308BD3802030008B5024B1B681B6A35
:1057CC00019308BD3802030008B5024B1B689B6AA5
:1057DC00019308BD3802030008B5024B1B681B6B14
:1057EC00019308BD3802030008B5024B1B689B6B84
:1057FC00019308BD3802030008B5024B1B681B68F7
:10580C00019308BD3002030008B5024B1B689B686E
:10581C00019308BD3002030008B5024B1B68DB681E
:10582C00019308BD3002030008B5024B1B681B69CD
:10583C00019308BD3002030008B5024B1B685B697D
:10584C00019308BD3002030008B5024B1B68DB69ED
:10585C00019308BD3002030008B5024B1B681B6A9C
:10586C00019308BD3002030008B5024B1B685B6A4C
:10587C00019308BD3002030008B5024B1B68DB6BBB
:10588C00019308BD3002030008B5024B1B681B6C6A
:10589C00019308BD3002030008B5024B1B685B6C1A
:1058AC00019308BD3002030008B5024B1B681B684E
:1058BC00019308BD4C02030008B5024B1B685B68E2
:1058CC00019308BD4C02030008B5024B1B681B6911
:1058DC00019308BD4C02030008B5024B1B685B69C1
:1058EC00019308BD4C02030008B5024B1B689B6971
:1058FC00019308BD4C02030008B5024B1B68DB6921
:10590C00019308BD4C02030008B5024B1B681B6ACF
:10591C00019308BD4C02030008B5024B1B685B6B7E
:10592C00019308BD6002030008B5024B1B681B6D98
:10593C00019308BD6002030008B5024B1B685B684D
:10594C00019308BD2002030008B5024B1B685B697C
:10595C00019308BD2002030008B5034B1B68D3F864
:10596C008830019308BD00002002030008B5034BEA
:10597C001B68D3F89430019308BD0000200203008B
:10598C0008B5024B1B685B68019308BD400203001D
:10599C0008B5024B1B689B68019308BD40020300CD
:1059AC0008B5024B1B68DB68019308BD400203007D
:1059BC0008B5024B1B681B69019308BD400203002C
:1059CC0008B5024B1B685B69019308BD40020300DC
:1059DC0008B5024B1B689B69019308BD400203008C
:1059EC0008B5024B1B68DB69019308BD400203003C
:1059FC0008B5024B1B681B6A019308BD40020300EB
:105A0C0008B5024B1B681B6B019308BD40020300D9
:105A1C0008B5024B1B685B6B019308BD4002030089
:105A2C0008B5024B1B681B6C019308BD40020300B8
:105A3C0008B5024B1B685B6C019308BD4002030068
:105A4C0008B5024B1B685B69019308BD4402030057
:105A5C0008B5024B1B68DB6A019308BD44020300C6
:105A6C0008B5024B1B68DB6B019308BD44020300B5
:105A7C0008B5024B1B681B68019308BD1C02030090
:105A8C0008B5024B1B685B68019308BD1C02030040
:105A9C0008B5024B1B685B6A019308BD1C0203002E
:105AAC0008B5024B1B68DB6B019308BD1C0203009D
:105ABC0008B5024B1B685B6C019308BD1C0203000C
:105ACC00002240681146FFF793BF00224068114640
:105ADC00FFF79EBF40680022FFF792BF406800228C
:105AEC0081F00101FFF77CBF002340681A4619467C
:105AFC00FFF76EBF002340681A461946FFF760BFD8
:105B0C00002240681146FFF753BF0022406811463F
:105B1C00FFF73EBF406800220221FFF741BF002380
:105B2C0040681A46FFF72CBF024B03225A60024A08
:105B3C001A60704748E6032000810D000021FFF732
:105B4C00A3BE0021FFF7A8BE10B50446084621707D
:105B5C00FFF77AFE00236360204610BD10B50446A3
:105B6C000078FFF7EBFF48B920784FF6FF71FFF78D
:105B7C0043FE2078BDE81040FFF7E3BF10BD13B51E
:105B8C00044600780191FFF7D9FF019940B92078BC
:105B9C00FFF73AFE207802B0BDE81040FFF7D1BF06
:105BAC0002B010BD13B5044600780191FFF7C6FF93
:105BBC00019940B92078FFF72FFE207802B0BDE89C
:105BCC001040FFF7BEBF02B010BD0078FFF7B9BFA1
:105BDC00400830B51860002418688842E5B206D930
:105BEC000134082C02D040081860F5E70725024B59
:105BFC005B5D137030BD00BF34810D002DE9F043A7
:105C0C0006468FB000780C46FFF798FF00281BDB88
:105C1C0035781422002109A801F07EFE0B23002206
:105C2C0009A92846ADF82430FFF71EFE9DF82D304B
:105C3C0013B19DF82C5055B10027B946B846012533
:105C4C0023795DB1C3B100200FB0BDE8F083DDF85E
:105C5C0030809DF834909DF83570F1E7002B35D1EC
:105C6C00A368434508D18DF820908DF82170BDF8BC
:105C7C002020A3899A42E6D00023A1688DF80F302A
:105C8C000A9804AB0DF10F02FFF7A2FF217985B939
:105C9C0089B9A36843450ED38DF820908DF82170F7
:105CAC00BDF82020A3899A4205D1049B434502D11B
:105CBC00C9E70029F9D100230193637B00939DF878
:105CCC000F20237B3078FFF7D7FDBCE7CDE90055DB
:105CDC002B462A460121F5E72DE9F04188B0002337
:105CEC000446007802930E461746FFF727FF054639
:105CFC0000BB94F800800146142203A801F00CFEAE
:105D0C000B232A4603A94046ADF80C30FFF7ACFD37
:105D1C0004988DF8075002AB0DF1070207FB06F152
:105D2C00FFF756FF20789DF80710FFF77DFD2078D0
:105D3C00FFF707FF029808B0BDE8F08138B50446BC
:105D4C0000780D46FFF7FAFE0346D0B9616899B1A9
:105D5C000C4A12F8010B854202D00133082BF8D102
:105D6C000133DBB20122D9402046FFF7B5FF207882
:105D7C00BDE83840FFF7E5BE20782946FFF754FD13
:105D8C00F5E738BD34810D0008B50078FFF754FDF8
:105D9C00C0B208BD10B5094B094C022200201A6094
:105DAC00084B2060A080A071A360FFF7C5FD2046C2
:105DBC00054A0649BDE8104001F054B85CE60320E2
:105DCC0050E603200000FFFF98E40320FD400D0087
:105DDC0070B586B0064601AD684600F021FA0FCDCD
:105DEC00341D0FC42B682370304606B070BD10B53F
:105DFC000446006808B1FFF70FFC204610BD10B533
:105E0C008368044613B1032201469847204610BD0F
:105E1C0010B5064C002320462360FFF7F5FB204607
:105E2C00034A0449BDE8104001F01CB860E60320A9
:105E3C0098E40320FB5D0D00F8B506460D468F185F
:105E4C000024BD420CD0336815F8011B9B6830460A
:105E5C009847031E01DB1C44F3E7002C08BF1C46CB
:105E6C002046F8BD13B50446084659B1019101F01E
:105E7C0091FD23680199DB680246204602B0BDE81B
:105E8C001040184702B010BD08B5FFF7EBFF08BD76
:105E9C0003689B68184738B50D210546FFF7F8FFD6
:105EAC000A2104462846FFF7F3FF204438BD38B5D5
:105EBC000546FFF7D7FF04462846FFF7ECFF2044C2
:105ECC0038BD30B58BB000238DF82430012A98BF33
:105EDC000A2209AC0D46B1FBF2F101FB125303F09F
:105EEC00FF03092B94BF30333733DBB2AA4204F8DB
:105EFC00013DEFD92146FFF7B5FF0BB030BD2DE9C1
:105F0C00F04186B000AF05460E46381D14211446EC
:105F1C003B60FFF7BDFD13280ED8391D2846FFF74F
:105F2C00A1FF04461EB12846FFF7B5FF04442046E6
:105F3C001837BD46BDE8F08100F1080323F00703D4
:105F4C00E846ADEB030D2246411C3B686846FFF763
:105F5C009FFD69462846FFF785FF0446C546E1E7E5
:105F6C00002340681A461946FFF72ABD014B024A26
:105F7C001A60704764E6032044810D00FAEE087A3B
:105F8C00B4EEE70AF1EE10FA08B511D4F2EE0C7A81
:105F9C00B4EEE70AF1EE10FA0ADCDFED067A60EEF9
:105FAC00277A17EE900A01F067FC034BC3E9000156
:105FBC0008BD00BF0000614570E60320024B1A6863
:105FCC00024B1A60704700BF2CE4032068E60320E4
:105FDC000021FFF7B9BC10B50446FFF710FF2046AF
:105FEC0010BD00000348044A04490023836000F0FC
:105FFC0039BF00BF78E6032098E40320E35F0D006F
:10600C00014B1860704700BF30E4032008B50B4B00
:10601C0043B100F071F903681B699847002801DD52
:10602C00AFF30080064B43B100F0ECF903681B6939
:10603C009847002801DDAFF3008008BD0000000088
:10604C000000000008B5FFF7E1FFFFF7D5FA014BA0
:10605C00186008BDD8E703200248034A0349121A06
:10606C0001F04CBC00F4032004F4032020840D0048
:10607C0007B5002300931A466FF07701FFF776FC03
:10608C0003B05DF804FB000007B543880A2B08D069
:10609C00502B0BD1094B1B684BB103B05DF804EBD3
:1060AC001847FFF7E5FF03B05DF804FB00230093EE
:1060BC001A466FF07701FFF759FCF4E78CE60320E2
:1060CC0038B5124C1248134D0021FFF7F1FC236830
:1060DC00AB42114B0CBF012200221A7002D0FFF709
:1060EC00BBFF2560FFF778FA044601F01DFC0B4B53
:1060FC0013B12046AFF3008000210848FFF7B0FC35
:10610C00BDE8384006480021FFF726BC00F4032008
:10611C000D600D001E1C279A88E60320000000006D
:10612C0095600D00704710B51821044600F09FFED5
:10613C00204610BDF0B5037D062B8DB00E4600F148
:10614C0004074FF0000412D000F1080515F8011DEA
:10615C000A223046FFF7B5FEAF42044419D0002C9A
:10616C00F4D02E213046FFF793FE0444EEE72F23A4
:10617C006A4639460A208DF80040FFF755FA684602
:10618C0001F008FC33680246DB68694630469847E4
:10619C00044620460DB0F0BD10B5054B0446112247
:1061AC0040F8043B002101F0B7FB204610BD00BFB6
:1061BC006C810D000346074A10B543F8042B01F11E
:1061CC00100251F8044B43F8044B9142F9D10A7870
:1061DC001A7010BD6C810D00037D042B04D1406836
:1061EC00003818BF01207047062B07D143683BB914
:1061FC0083682BB9C3681BB90069F1E700207047AD
:10620C000120704710B59DF8084044EA032343EA87
:10621C00024242EA016104234160037510BD000093
:10622C0013B5054B0360CB7800938B784A780978CB
:10623C00FFF7E8FF02B010BD6C810D004174704790
:10624C00704708B50021007CFFF74EFB40EAE07078
:10625C0008BD08B50121007CFFF746FB40EAE07061
:10626C0008BD08B5007CFFF737FB20EAE07008BDDD
:10627C0008B5007CFFF728FB20EAE07008BD13B5D9
:10628C000446007C0191FFF727FB0028019901DCF3
:10629C00607C20B1207CFFF72FFB20EAE07002B07D
:1062AC0010BD007CFFF730BB10B51421044600F084
:1062BC00DEFD204610BD000010B54FF47A73044685
:1062CC0008460021C4E90113044B23600123207408
:1062DC0063741146FFF7E8FA204610BD80810D006B
:1062EC00007C0022FFF7E8BA10B514220446002106
:1062FC0001F012FB204610BD10B5104C88B003A85D
:10630C00FFF7F2FF2178BFF35B8F11F0010111D180
:10631C0020460191FDF7C8FE019958B103AA08481F
:10632C00FFF7CAFF2046FDF7C4FE064A064904489B
:10633C0000F098FD024808B010BD00BF90E60320A5
:10634C0094E6032098E403204D620D0070474174DD
:10635C00704708B5007CFFF7B7F920EAE07008BD7C
:10636C0008B5007CFFF788F920EAE07008BD08B595
:10637C00007CFFF791F940EAE07008BD08B5007C9D
:10638C00FFF782F940EAE07008BD007CFFF78CB99A
:10639C0037B5457C04462DB1207C03B0BDE83040B8
:1063AC00FFF762B9007C0191FFF78EF90028019983
:1063BC00F2DC284603B030BD10B51421044600F0C1
:1063CC0056FD204610BD000010B54FF0000C0446E1
:1063DC00084611464FF47A72C4E901C2044A22609D
:1063EC000122207462741A46FFF736F9204610BD5C
:1063FC00B0810D00007C0023FFF76EB90022FFF77F
:10640C00F9BF000013B50E4C2178BFF35B8F11F070
:10641C00010112D120460191FDF746FE019960B1B0
:10642C00084A094B0948FFF7CFFF2046FDF741FE0C
:10643C00074A0849054800F015FD044802B010BD94
:10644C00A8E60320ACE6032030E70320B4E70320E2
:10645C0098E4032059630D007047F8B506461546BD
:10646C000C468F18BC4206D0336814F8011B9B688D
:10647C0030469847F6E72846F8BD007C0022FFF727
:10648C004BB9007C0021FFF74FB9007C0021FFF7CE
:10649C0053B9007C0021FFF757B9007C0021FFF7AE
:1064AC005BB910B51421044600F0E1FC204610BD88
:1064BC0010B54FF47A73044608460021C4E9011361
:1064CC00034B236020741146FFF756F9204610BD8C
:1064DC00E0810D000023007C1A461946FFF704B931
:1064EC007FB500221423CDE90122ADF804300B78DE
:1064FC008DF808304B680393CB680493007C0B7ABF
:10650C00059301A9FFF740F907B05DF804FB1FB52F
:10651C00003B8DF800104FF06401039118BF01236C
:10652C00694601928DF80830FFF7DAFF05B05DF887
:10653C0004FB0123FFF7EBBF007C0022FFF7DCB864
:10654C00C9B2FFF7F9BF007C0022FFF7DDB80121CB
:10655C00FFF7F9BF13B503688DF80710DC6B012248
:10656C004FF0FF330DF10701A04702B010BD10B47E
:10657C000368DC6B4FF0FF33A4465DF8044B6047B7
:10658C0013B5134602688DF80710D46B0DF1070193
:10659C000122A04702B010BD704738B543691A6894
:1065AC00002A054610DAB3F88620B3F884309A42F4
:1065BC000AD103681B699847044628B92B682846FA
:1065CC00DB6A9847204638BD0120FCE74369186810
:1065DC00C043C00F70477047064B994210B500F18D
:1065EC000C0405D0084600F047FC002808BF002426
:1065FC00204610BD3C810D0010B5AC21044600F0C6
:10660C0036FC204610BDFDF742BD2DE9F0414FF0A0
:10661C00000886B01D46C0F8048004460E46174696
:10662C004146102202A801F077F96B1C09D04FF4F7
:10663C007A70B5FBF0F3CDE9023800FB13535843E5
:10664C000490606910230093006802AB41F20502CC
:10665C0040F6FF71FFF7A0F8002807DAFFF720FAE1
:10666C0003686360002006B0BDE8F0816069002318
:10667C0000683A463146FFF7AFF8031EEEDB1846CA
:10668C00F1E7000070B54D69054B04468C3544F8B4
:10669C00043B06460FCD0FC42B682370304670BDEB
:1066AC006C810D0010B54369B3F88620B3F88430C3
:1066BC009A42044605D06369B3F8842013441879D0
:1066CC0010BD03681B6998470028F4D14FF0FF30C8
:1066DC00F6E710B54369B3F88620B3F884309A42D4
:1066EC00044608D06369B3F88420511CA3F88410C5
:1066FC001344187910BD03681B6998470028F1D121
:10670C004FF0FF30F6E7F8B543691746B3F886202B
:10671C00B3F884309A4205460E4616D06969B1F832
:10672C008430B1F88640E41ABC4228BF3C4604339E
:10673C0022461944304601F0E1F86A69B2F8843017
:10674C002344A2F884302046F8BD03681B6998479F
:10675C000028E3D14FF0FF34F5E742690023A2F89B
:10676C0084304269A2F8863070472DE9F0411F460B
:10677C0003680C46DB6A8AB0054616469847237DAB
:10678C00D5F81480042B0CBF02200A20062201210C
:10679C00FFF72AF8C8F800006B691B68002B08DAB1
:1067AC002B682846DB6A0024984720460AB0BDE8CF
:1067BC00F0812846FFF7D1FFB7B1002303A9F8B247
:1067CC000393ADF81030FEF7FFFE0028E8D168699E
:1067DC0006230093006803AB41F20B0240F6FF71F5
:1067EC00FEF7DAFF0028DBD11C22002103A801F000
:1067FC0093F8237D042B1DD14FF407733046ADF86D
:10680C000C30FEF721FFADF80E006068FEF714FFA8
:10681C0004906B691C22186803A9FEF7CDFF0028B1
:10682C00BED104340FCC6D698C350FC523682B7029
:10683C000124BAE740F61C233046ADF80C30FEF7C5
:10684C0003FF05AEADF80E00231D04F11407186804
:10685C005968324603C20833BB421646F7D1D8E713
:10686C0030B54269B2F886308BB004462BB1B2F821
:10687C0084209A4201D1FFF770FF616908680028F3
:10688C0018DBB1F886507F2D14D804310823C5F1DC
:10689C0080022944FEF798FF002813DD6369B3F8E2
:1068AC0086200AB9A3F884206369B3F886201044C3
:1068BC00A3F886006369B3F88600B3F88430C01A75
:1068CC000BB030BDFFF7ECF803680B2BF2D0FFF7E1
:1068DC00E7F803680B2BEDD020230025CDE902351A
:1068EC00FFF7DEF803680193084B0949009302AAED
:1068FC002B463220FFF718F863691868FEF754FF2F
:10690C0063694FF0FF321A60D4E700BF07820D00B5
:10691C0000820D0010B5436904461868002801DB9D
:10692C00FEF742FF63694FF0FF321A606069112273
:10693C0000218C3000F0F0FF2046BDE81040FFF73E
:10694C000CBF10B5002304460160C0F884308830B9
:10695C00FFF722FC204610BD73B500234FF47A726A
:10696C00C0E901320E4A0361026043610446AC2067
:10697C000191FDF788FB051E05F10C0608D00123DB
:10698C00C5E90133074B01992B603046FFF7D9FF5E
:10699C002046C4E90565FFF7E0FE02B070BD00BFFC
:1069AC003C820D0020820D0010B54FF0FF310446E3
:1069BC00FFF7D2FF204610BD10B504460068002832
:1069CC0001DBFEF7F1FE204610BD0C30FFF7F4BFE3
:1069DC002DE9F0439846036893B00D460024DB6A1A
:1069EC0006461746984728466B4622462146009491
:1069FC00FEF7BAFD0546002863D1009B002B4BD057
:106A0C005B69002B48D006A8FFF7C6FB009B5C69AE
:106A1C006378022B04D1211D06A8FFF7D9F926E0D3
:106A2C000A2B24D11122294601A800F075FFA36876
:106A3C00002B38D004F108030DF1040C183418683D
:106A4C005968624603C20833A3429446F7D1062321
:106A5C0001A90CA88DF81430FFF7ACFB0DF1340C28
:106A6C00BCE80F0007AC0FC4DCF80030237006A89C
:106A7C00FFF7B2FB80B1336807ADD3F82090124B0F
:106A8C000C930FCD0DAC0FC42B6823703A464346C4
:106A9C000CA93046C84705460098FEF75DFD284610
:106AAC0013B0BDE8F083E368002BC3D14FF6FF7041
:106ABC00D4F81090FEF7C0FD8145BBD104F1140150
:106ACC00AAE72546E8E700BF6C810D00002240686C
:106ADC001146FEF76DBF002240681146FEF788BFD5
:106AEC00002240681146FEF793BF40680022FEF773
:106AFC0087BF4068002281F00101FEF771BF0023BF
:106B0C0040681A461946FEF763BF002240681146DA
:106B1C00FEF73EBF406800220221FEF741BF002372
:106B2C0040681A46FEF72CBF024B04225A60024AF8
:106B3C001A607047C8E7032088820D000023406864
:106B4C001A46FEF71DBF406800220221FEF728BF3F
:106B5C00002240681146FEF71BBF00224068114618
:106B6C00FEF726BF002340681A461946FEF728BFD9
:106B7C00002340681A461946FEF72ABF40680021D8
:106B8C00FEF74EBF40680021FEF752BF406800225E
:106B9C0081F00101FEF724BF40680022FEF730BFF0
:106BAC00002240681146FEF733BF002240681146B0
:106BBC00FEF71EBF2DE9F043002495B016460D4696
:106BCC000746FFF7E9FA214618220EA8009400F0B8
:106BDC00A3FE4023CDE90C3421466B460CAA30466B
:106BEC00FEF7C2FC044600284CD10246012168681D
:106BFC00FEF7DEFE0221804622466868FEF7D8FECC
:106C0C00009E81462146002E3CD000293AD1736863
:106C1C00022B03D00A2B11D0F669F4E7B8F1000F60
:106C2C000AD0716906A8043107ADFFF7F9FA0FCD48
:106C3C003C1D0FC42B6823704146EDE7B9F1000FE2
:106C4C0001D14946E8E77469102201A800F064FEFE
:106C5C0006238DF8143001AD04F1080318341868BC
:106C6C0059682A4603C20833A3421546F7D101A935
:106C7C0006A807ADFFF79EFA0FCD3C1D0FC42B687D
:106C8C002370DEE70098FEF767FC384615B0BDE8C8
:106C9C00F0830000024B034A1A6000225A607047CE
:106CAC00D0E70320C4820D00232813B502D900209D
:106CBC0002B010BDA0F10B03022B1AD8174C21788F
:106CCC00BFF35B8F11F001010BD120460191FDF751
:106CDC00EBF9019928B11248FEF736FF2046FDF773
:106CEC00E8F90F4B1878FEF7B7FD0028DFD101202B
:106CFC00DEE7012809D800F08DF80021007CFEF7B2
:106D0C0033FD80F00100C0B2D2E709380128EED87B
:106D1C00FFF778FB007CFEF7CFFCF2E738E60320A8
:106D2C003CE60320232838B504460D460AD8FF2933
:106D3C0008D0FFF7B9FF28B129462046BDE83840F6
:106D4C00FEF722BC38BD38B504460D46FEF724FCD0
:106D5C00FF2810D0062804D84D2323FA00F0C307CF
:106D6C0009D42046FFF7A0FF28B129462046BDE8EC
:106D7C003840FEF719BC38BD10B50446FEF70CFCC4
:106D8C00031FDBB2012B08D92046FFF78DFF20B182
:106D9C002046BDE81040FEF70FBC002010BD2DE9C9
:106DAC00F04190461F46002406460D46B8F1000FF0
:106DBC0013D147FA04F101F001013046FFF7C3FF8C
:106DCC0001212846FFF7BFFF013400212846FFF7B9
:106DDC00BAFF082CEAD1BDE8F081C4F1070147FAEB
:106DEC0001F1E8E738B5002320254380142304463D
:106DFC000380856005610649284600F03AF804498D
:106E0C006060284600F035F8E060204638BD00BFD1
:106E1C00F8820D0030B50F4D2978BFF35B8F11F060
:106E2C00010487B013D12846FDF73EF978B101A8CB
:106E3C00FFF7D8FF01AA21460748FFF739FB284680
:106E4C00FDF737F9054A0649034800F00BF80248EC
:106E5C0007B030BDDCE70320E0E7032098E4032013
:106E6C0065640D000B460146184600F039BDFDF770
:106E7C000EB9FDF70AB90000014900F0F9B800BFDE
:106E8C0014830D007FB500241023CDE90234036870
:106E9C0000949E698DF8044015466B461268B04705
:106EAC009DF8043003F00603062B03BF009B2B60F8
:106EBC000120204604B070BD0098904214BF012000
:106ECC000620704710B5034B0360044600F0CDF864
:106EDC00204610BD54830D0010B50446FFF7F2FF99
:106EEC0020460821FFF7C3FF204610BD2DE9F041D5
:106EFC001F46DDE90834DDF818809845064615462E
:106F0C0007D1079900F0B4F818B165710020BDE8FD
:106F1C00F0813946304600F0ABF80028F6D001235A
:106F2C00C4F800802571A371F0E738B515461C46EE
:106F3C0000F09EF820B10823E3600623256023713E
:106F4C0038BD73B505460C4601921E4600F090F80C
:106F5C0050B9032E08D82368019A5B69294620464C
:106F6C0002B0BDE87040184702B070BD10B5034BBD
:106F7C0003600446FFF7A6FF204610BDB4830D0046
:106F8C0010B50446FFF7F2FF20460C21FFF76FFF08
:106F9C00204610BDF7B5089F974205460E4614468D
:106FAC000AD0A86802680897156A31462246AC4692
:106FBC0003B0BDE8F04060471946019300F058F863
:106FCC00019B0028EDD0062003B0F0BD2DE9F14F58
:106FDC000D461946DDE90A4BDDE90CA6814617463C
:106FEC00984600F045F890B1002D3460377109DBFC
:106FFC0061198A450CBF06210121B171002001B035
:10700C00BDE8F08F0235F9D10123B371F6E7544591
:10701C0006D15946484600F02BF808B17771EDE7D8
:10702C00D9F808000368CDE90CA6CDE90A4BDC6958
:10703C003A4643462946A44601B0BDE8F04F6047A6
:10704C002DE9F04107460C4615461E46FFF76DFF2D
:10705C0048B9B86803689F692A4633462146BC463E
:10706C00BDE8F0416047BDE8F081704700207047F3
:10707C00814208B50ED0406803782A2B0CD04968A1
:10708C000B782A2B08BF013100F072FCB0FA80F0AB
:10709C00400908BD0120FCE70020FAE781F000411F
:1070AC0002E000BF83F0004330B54FEA41044FEAE1
:1070BC00430594EA050F08BF90EA020F1FBF54EA7C
:1070CC00000C55EA020C7FEA645C7FEA655C00F018
:1070DC00E2804FEA5454D4EB5555B8BF6D420CDDE9
:1070EC002C4480EA020281EA030382EA000083EA6C
:1070FC00010180EA020281EA0303362D88BF30BD0C
:10710C0011F0004F4FEA01314FF4801C4CEA113161
:10711C0002D0404261EB410113F0004F4FEA0333C0
:10712C004CEA133302D0524263EB430394EA050F4B
:10713C0000F0A780A4F10104D5F1200E0DDB02FABA
:10714C000EFC22FA05F2801841F1000103FA0EF24E
:10715C00801843FA05F359410EE0A5F120050EF114
:10716C00200E012A03FA0EFC28BF4CF0020C43FA45
:10717C0005F3C01851EBE37101F0004507D54FF052
:10718C00000EDCF1000C7EEB00006EEB0101B1F5A2
:10719C00801F1BD3B1F5001F0CD349085FEA3000E8
:1071AC004FEA3C0C04F101044FEA445212F5800FF3
:1071BC0080F09A80BCF1004F08BF5FEA500C50F190
:1071CC00000041EB045141EA050130BD5FEA4C0C73
:1071DC00404141EB0101013C28BFB1F5801FE9D2D0
:1071EC0091F0000F04BF01460020B1FA81F308BFF3
:1071FC002033A3F10B03B3F120020CDA0C3208DDBF
:10720C0002F1140CC2F10C0201FA0CF021FA02F199
:10721C000CE002F11402D8BFC2F1200C01FA02F109
:10722C0020FA0CFCDCBF41EA0C019040E41AA2BF2E
:10723C0001EB0451294330BD6FEA04041F3C1CDAF6
:10724C000C340EDC04F11404C4F1200220FA04F016
:10725C0001FA02F340EA030021FA04F345EA0301C0
:10726C0030BDC4F10C04C4F1200220FA02F001FA82
:10727C0004F340EA0300294630BD21FA04F0294604
:10728C0030BD94F0000F83F4801306BF81F480119D
:10729C000134013D4EE77FEA645C18BF7FEA655C10
:1072AC0029D094EA050F08BF90EA020F05D054EAE2
:1072BC00000C04BF1946104630BD91EA030F1EBFE7
:1072CC000021002030BD5FEA545C05D140004941EB
:1072DC0028BF41F0004130BD14F580043CBF01F5DE
:1072EC00801130BD01F0004545F0FE4141F47001C4
:1072FC004FF0000030BD7FEA645C1ABF194610469F
:10730C007FEA655C1CBF0B46024650EA013406BF9F
:10731C0052EA033591EA030F41F4002130BD00BF5E
:10732C0090F0000F04BF0021704730B54FF480641B
:10733C0004F132044FF000054FF0000150E700BF9C
:10734C0090F0000F04BF0021704730B54FF48064FB
:10735C0004F1320410F0004548BF40424FF00001E8
:10736C003EE700BF42004FEAE2014FEA31014FEA2B
:10737C0002701FBF12F07F4393F07F4F81F060517A
:10738C00704732F07F4208BF704793F07F4F04BFC5
:10739C0041F40021704730B54FF4607401F00045A2
:1073AC0021F000411CE700BF50EA010208BF704702
:1073BC0030B54FF000050AE050EA010208BF7047F3
:1073CC0030B511F0004502D5404261EB41014FF45C
:1073DC00806404F132045FEA915C3FF4D8AE4FF064
:1073EC0003025FEADC0C18BF03325FEADC0C18BF47
:1073FC00033202EBDC02C2F1200300FA03FC20FA98
:10740C0002F001FA03FE40EA0E0021FA02F11444E4
:10741C00BDE600BF70B54FF0FF0C4CF4E06C1CEAFD
:10742C0011541DBF1CEA135594EA0C0F95EA0C0F6E
:10743C0000F0DEF82C4481EA030621EA4C5123EAE1
:10744C004C5350EA013518BF52EA033541F4801110
:10745C0043F4801338D0A0FB02CE4FF00005E1FBC3
:10746C0002E506F00042E0FB03E54FF00006E1FB0D
:10747C0003569CF0000F18BF4EF0010EA4F1FF0450
:10748C00B6F5007F64F5407404D25FEA4E0E6D4190
:10749C0046EB060642EAC62141EA55514FEAC520A1
:1074AC0040EA5E504FEACE2EB4F1FD0C88BFBCF51D
:1074BC00E06F1ED8BEF1004F08BF5FEA500E50F1CE
:1074CC00000041EB045170BD06F0004646EA010194
:1074DC0040EA020081EA0301B4EB5C04C2BFD4EBC6
:1074EC000C0541EA045170BD41F480114FF0000EBF
:1074FC00013C00F3AB8014F1360FDEBF002001F02D
:10750C00004170BDC4F10004203C35DA0C341BDCA6
:10751C0004F11404C4F1200500FA05F320FA04F078
:10752C0001FA05F240EA020001F0004221F00041AC
:10753C0010EBD37021FA04F642EB06015EEA430E1F
:10754C0008BF20EAD37070BDC4F10C04C4F120054F
:10755C0000FA04F320FA05F001FA04F240EA020002
:10756C0001F0004110EBD37041F100015EEA430ED3
:10757C0008BF20EAD37070BDC4F1200500FA05F2F3
:10758C004EEA020E20FA04F301FA05F243EA020372
:10759C0021FA04F001F0004121FA04F220EA020081
:1075AC0000EBD3705EEA430E08BF20EAD37070BDC7
:1075BC0094F0000F0FD101F00046400041EB0101A7
:1075CC0011F4801F08BF013CF7D041EA060195F089
:1075DC00000F18BF704703F00046520043EB030343
:1075EC0013F4801F08BF013DF7D043EA0603704730
:1075FC0094EA0C0F0CEA135518BF95EA0C0F0CD03B
:10760C0050EA410618BF52EA4306D1D181EA030180
:10761C0001F000414FF0000070BD50EA410606BF7A
:10762C001046194652EA430619D094EA0C0F02D1BF
:10763C0050EA013613D195EA0C0F05D152EA033604
:10764C001CBF104619460AD181EA030101F0004122
:10765C0041F0FE4141F470014FF0000070BD41F06B
:10766C00FE4141F4780170BD70B54FF0FF0C4CF445
:10767C00E06C1CEA11541DBF1CEA135594EA0C0F64
:10768C0095EA0C0F00F0A7F8A4EB050481EA030EB1
:10769C0052EA03354FEA013100F088804FEA033398
:1076AC004FF0805545EA131343EA12634FEA022266
:1076BC0045EA111545EA10654FEA00260EF0004127
:1076CC009D4208BF964244F1FD0404F5407402D279
:1076DC005B084FEA3202B61A65EB03055B084FEA0A
:1076EC0032024FF480104FF4002CB6EB020E75EB07
:1076FC00030E22BFB61A754640EA0C005B084FEA2F
:10770C003202B6EB020E75EB030E22BFB61A7546AB
:10771C0040EA5C005B084FEA3202B6EB020E75EBF6
:10772C00030E22BFB61A754640EA9C005B084FEA6E
:10773C003202B6EB020E75EB030E22BFB61A75467B
:10774C0040EADC0055EA060E18D04FEA051545EA6A
:10775C0016754FEA06164FEAC30343EA52734FEA13
:10776C00C2025FEA1C1CC0D111F4801F0BD141EA8C
:10777C0000014FF000004FF0004CB6E711F4801FF1
:10778C0004BF01430020B4F1FD0C88BFBCF5E06FD1
:10779C003FF6AFAEB5EB030C04BFB6EB020C5FEAE1
:1077AC00500C50F1000041EB045170BD0EF0004E36
:1077BC004EEA113114EB5C04C2BFD4EB0C0541EA68
:1077CC00045170BD41F480114FF0000E013C90E665
:1077DC0045EA060E8DE60CEA135594EA0C0F08BF29
:1077EC0095EA0C0F3FF43BAF94EA0C0F0AD150EA28
:1077FC0001347FF434AF95EA0C0F7FF425AF1046BB
:10780C0019462CE795EA0C0F06D152EA03353FF4E2
:10781C00FDAE1046194622E750EA410618BF52EA5F
:10782C0043067FF4C5AE50EA41047FF40DAF52EA33
:10783C0043057FF4EBAE12E74A0011D212F50012A9
:10784C0011D20DD56FF47873B3EB62520ED44FEAAC
:10785C00C12343F0004343EA505323FA02F070472C
:10786C004FF00000704750EA013002D14FF0FF306A
:10787C0070474FF00000704707EE900AF5EEC07AA3
:10788C00F1EE10FA01D400F00BB8F1EE677A08B5FE
:10789C0017EE900A00F004F8404261EB410108BD7C
:1078AC00D0B5FFF75FFD0C4B002206460F46FFF7E5
:1078BC00B1FDFFF7C1FF0446FFF732FD074B002275
:1078CC00FFF7A8FD02460B4630463946FFF7EAFBA8
:1078DC00FFF7B2FF2146D0BD0000F03D0000F041A3
:1078EC0010B5054C13462CB10A4601460220AFF3E5
:1078FC00008010BD2046FCE7000000000A449142C5
:10790C0000F1FF3300D1704710B511F8014B03F8AB
:10791C00014F9142F9D110BD02440346934200D16C
:10792C00704703F8011BF9E738B50D4B1D68AB6BBD
:10793C0004467BB91820FEF79BF80A4A0A4BA86349
:10794C00C0E90023094B83600B23838101220023B0
:10795C00C0E90423AB6B00221C615A6138BD00BF27
:10796C0030E403200E33CDAB34126DE6ECDE0500B3
:10797C0010F8012B11F8013B012A28BF9A42F7D0CD
:10798C00D01A7047034611F8012B03F8012B002A7B
:10799C00F9D17047034613F8012B002AFBD1181AB2
:1079AC00013870471D400D0059400D0081400D00FD
:1079BC0085400D0000000000466F756E6420616408
:1079CC0064726573733A202530336920283078252A
:1079DC0030325829200A00446F6E653A20466F7584
:1079EC006E64202569206465766963652873292E89
:1079FC00200A0043594245524241535320424F4FB3
:107A0C0054494E472055502100436F6E6E65637488
:107A1C00696E6720746F20496E7465726E65742090
:107A2C000A00436F6E6E656374696E6720746F2015
:107A3C00496E666F6E65740A002E004D697374652D
:107A4C0072466C657800696F2E6164616672756947
:107A5C00742E636F6D0061696F5F655A454C3634E7
:107A6C004C726C5343507533676A6778614B754839
:107A7C00725A64733441004D6973746572466C6557
:107A8C00782F66656564732F48756D6964697479C0
:107A9C00004D6973746572466C65782F6665656414
:107AAC00732F5072657373757265004D69737465CD
:107ABC0072466C65782F66656564732F54656D70BE
:107ACC0065726174757265004D6973746572466C8C
:107ADC0065782F66656564732F4E6F7465006465F9
:107AEC006661756C7420004D5342004C5342003C4F
:107AFC0053504953657474696E677320646566618D
:107B0C00756C743E003C53504953657474696E67D0
:107B1C00732025732575202573204D4F44452575FD
:107B2C003E000000000000000000000029440D0091
:107B3C0019440D001B440D00000000000000000063
:107B4C00C5400D00F3420D007D530D00455E0D0048
:107B5C00954C0D0095500D00254B0D00B9490D00AD
:107B6C0051510D00EF510D0025520D0041520D00E9
:107B7C0000000000003E5B4F5B3E3E6B4F6B3E1CBB
:107B8C003E7C3E1C183C7E3C181C577D571C1C5ED2
:107B9C007F5E1C00183C1800FFE7C3E7FF001824A9
:107BAC001800FFE7DBE7FF30483A060E2629792953
:107BBC0026407F050507407F05253F5A3CE73C5A88
:107BCC007F3E1C1C08081C1C3E7F14227F22145F65
:107BDC005F005F5F06097F017F006689956A6060C0
:107BEC0060606094A2FFA29408047E040810207EBA
:107BFC00201008082A1C08081C2A08081E1010103F
:107C0C00100C1E0C1E0C30383E3830060E3E0E0684
:107C1C00000000000000005F0000000700070014D7
:107C2C007F147F14242A7F2A122313086462364996
:107C3C005620500008070300001C2241000041227E
:107C4C001C002A1C7F1C2A08083E08080080703083
:107C5C0000080808080800006060002010080402F2
:107C6C003E5149453E00427F4000724949494621F8
:107C7C0041494D331814127F1027454545393C4A6C
:107C8C004949314121110907364949493646494983
:107C9C00291E0000140000004034000000081422CB
:107CAC004114141414140041221408020159090639
:107CBC003E415D594E7C1211127C7F494949363E3A
:107CCC00414141227F4141413E7F494949417F0920
:107CDC000909013E414151737F0808087F00417F2B
:107CEC0041002040413F017F081422417F40404029
:107CFC00407F021C027F7F0408107F3E4141413EC1
:107D0C007F090909063E4151215E7F091929462642
:107D1C004949493203017F01033F4040403F1F2046
:107D2C0040201F3F4038403F63140814630304781D
:107D3C0004036159494D43007F414141020408103D
:107D4C0020004141417F0402010204404040404078
:107D5C00000307080020545478407F2844443838E6
:107D6C0044444428384444287F3854545418000858
:107D7C007E090218A4A49C787F0804047800447D32
:107D8C0040002040403D007F1028440000417F40CF
:107D9C00007C047804787C08040478384444443823
:107DAC00FC1824241818242418FC7C080404084803
:107DBC005454542404043F44243C4040207C1C2054
:107DCC0040201C3C4030403C44281028444C9090AF
:107DDC00907C4464544C4400083641000000770009
:107DEC0000004136080002010204023C2623263C16
:107DFC001EA1A161123A4040207A385454555921A1
:107E0C00555579412154547841215554784020548A
:107E1C005579400C1E5272123955555559395454D6
:107E2C00545939555454580000457C410002457D45
:107E3C00420001457C40F0292429F0F0282528F047
:107E4C007C545545002054547C547C0A097F49329B
:107E5C00494949323248484832324A4848303A4116
:107E6C0041217A3A42402078009DA0A07D394444BB
:107E7C0044393D4040403D3C24FF2424487E494346
:107E8C00662B2FFC2F2BFF0929F620C0887E0903B7
:107E9C0020545479410000447D413048484A3238DE
:107EAC004040227A007A0A0A727D0D19317D26290A
:107EBC00292F28262929292630484D402038080802
:107ECC00080808080808382F10C8ACBA2F10283436
:107EDC00FA00007B000008142A142222142A140829
:107EEC00AA005500AAAA55AA55AA000000FF001026
:107EFC001010FF00141414FF001010FF00FF1010DE
:107F0C00F010F0141414FC001414F700FF0000FF20
:107F1C0000FF1414F404FC141417101F10101F107D
:107F2C001F1414141F00101010F0000000001F107C
:107F3C001010101F10101010F010000000FF101087
:107F4C0010101010101010FF10000000FF14000093
:107F5C00FF00FF00001F10170000FC04F41414179E
:107F6C0010171414F404F40000FF00F71414141484
:107F7C00141414F700F7141414171410101F101FF6
:107F8C00141414F4141010F010F000001F101F0043
:107F9C0000001F14000000FC140000F010F0101082
:107FAC00FF10FF141414FF141010101F0000000019
:107FBC00F010FFFFFFFFFFF0F0F0F0F0FFFFFF000D
:107FCC0000000000FFFF0F0F0F0F0F384444384420
:107FDC007C2A2A3E147E02020606027E027E026380
:107FEC00554941633844443C04407E201E2006021F
:107FFC007E020299A5E7A5991C2A492A1C4C7201FC
:10800C00724C304A4D4D303048784830BC625A463C
:10801C003D3E494949007E0101017E2A2A2A2A2A2D
:10802C0044445F444440514A444040444A51400017
:10803C0000FF0103E080FF000008086B6B0836129C
:10804C00362436060F090F06000018180000001021
:10805C0010003040FF0101001F01011E00191D1707
:10806C0012003C3C3C3C0000000000000000000002
:10807C000000000000000000000000007D530D0017
:10808C00455E0D00A1400D0095500D00B9510D003D
:10809C00D5510D0051510D00EF510D0025520D0021
:1080AC0041520D000000000000000000C7400D0010
:1080BC0001430D0023540D00CF540D0001550D004C
:1080CC0037540D0077540D00000000000000000034
:1080DC000000000000000000A1400D00A1400D00B8
:1080EC00A1400D00A1400D00A1400D0000000000BA
:1080FC00000000002B5B0D00215B0D00175B0D00D9
:10810C000D5B0D00015B0D00F55A0D00896B0D0028
:10811C00916B0D00E95A0D00E15A0D00D75A0D0074
:10812C00CD5A0D00C16B0D000008101820283038F6
:10813C0000000000000000006170700025592D2522
:10814C006D2D25645425483A254D3A2553257A0042
:10815C0061736374696D650000000000000000002D
:10816C0041610D0031610D0033610D000000000014
:10817C00000000004D620D00B5620D008B620D0019
:10818C00455E0D007D620D004F620D005F620D00BB
:10819C00AF620D006F620D0049620D00000000001F
:1081AC000000000059630D00C5630D009D630D00B8
:1081BC00455E0D006D630D0089630D007B630D0042
:1081CC0097630D005B630D005F630D000000000002
:1081DC000000000065640D00AF640D0087640D00A5
:1081EC0067640D008F640D0097640D009F640D0093
:1081FC00A7640D00776972696E67007265637620FB
:10820C006572726F72203D20256400000000000032
:10821C0000000000E3650D0005660D00D7690D0038
:10822C0013660D00E5650D00000000000000000065
:10823C00C9400D0029410D0061650D007B650D00E5
:10824C006D680D00DF660D00B1660D00A5650D00B3
:10825C0077670D00DD690D0013670D0021690D00B6
:10826C00A7650D00D9650D008D650D0017660D0015
:10827C0091660D0000000000000000002B6B0D004B
:10828C00216B0D00176B0D00D96A0D006D5F0D0091
:10829C000B6B0D00896B0D00916B0D00FF6A0D00CF
:1082AC00F76A0D00ED6A0D00E36A0D00C16B0D005D
:1082BC000000000000000000496B0D00536B0D0026
:1082CC005D6B0D00676B0D00716B0D007D6B0D0010
:1082DC00896B0D00916B0D00996B0D00A56B0D005A
:1082EC00AD6B0D00B76B0D00C16B0D0000537431FD
:1082FC00395F53705F6D616B655F73686172656444
:10830C005F7461670000000054830D00F9820D005A
:10831C00B4830D0028830D00D8830D004E31305FDF
:10832C005F637878616269763131375F5F636C6166
:10833C0073735F747970655F696E666F45000000DA
:10834C00000000001C830D00D16E0D00E56E0D00C9
:10835C0079700D0079700D004F6F0D00916E0D004E
:10836C00376F0D00F96E0D00C56E0D00B4830D0056
:10837C0084830D001C830D004E31305F5F63787871
:10838C00616269763132305F5F73695F636C617310
:10839C00735F747970655F696E666F4500000000ED
:1083AC000000000078830D00796F0D008D6F0D00BB
:1083BC0079700D0079700D004F6F0D00916E0D00EE
:1083CC004D700D00D96F0D00A16F0D0054830D0081
:1083DC00E0830D00537439747970655F696E666F54
:1083EC000000000011430D00A9490D00355B0D0084
:1083FC00A15D0D001D5E0D00795F0D00C95F0D00C4
:10840C00F15F0D00356B0D00A16C0D00000000003C
:04841C00000000005C
:048420000000000058
:10842400000103070F1F3F7F0080C0E0F0F8FCFE4F
:108434000000000000000000000000000000000038
:108444000000000000000000000000000000000028
:108454000000000000000000000000000000000018
:108464000000000000000000000000000000008088
:1084740080800000000000000000000000000000F8
:10848400008080C0C0000000000000000000000068
:1084940000000000000000000000000000000000D8
:1084A40000000000000000000000000000000000C8
:1084B40000000000000000000000000000000000B8
:1084C4000000000080C0E0F0F8FCF8E000000000CC
:1084D4000000000000000000000000000080808018
:1084E400808000808000000000808080808000FF09
:1084F400FFFF00000000808080800000808000007A
:1085040080FFFF80800080800080808080008080E9
:108514000000000000808000008C8E84000080F841
:10852400F8F88000000000000000000000000000D7
:10853400F0F0F0F0F0F0F0F0F0F0F0F0E0E0C080F7
:1085440000E0FCFEFFFFFF7FFFFFFFFFFF000000D6
:108554000000000000000000000000FEFFC7010151
:10856400010183FFFF00007CFEC70101010183FFBD
:10857400FFFF0038FEC78301010183C7FFFF00002E
:1085840001FFFF010100FFFF0701010100007FFF60
:1085940080000000FFFF7F0000FFFFFF000001FFDD
:1085A400FFFF0100000000000000000000000000C8
:1085B400030F3F7F7FFFFFFFFFFFFFFFE7C7C78F6B
:1085C4008F9FBFFFFFC3C0F0FFFFFFFFFFFCFCFC5A
:1085D400FCFCFCFCFCF8F8F0F0E0C0000103030331
:1085E400030301030300000000010303030301016B
:1085F400030100000001030303030101030300005E
:108604000003030000000303000000000000000159
:10861400030303030301000000010301000000033E
:108624000301000000000000000000000000000042
:1086340000000080C0E0F0F9FFFFFFFFFF3F1F0FC5
:1086440087C7F7FFFF1F1F3DFCF8F8F8F87C7DFF94
:10865400FFFFFFFFFFFFFF7F3F0F070030300000E9
:108664000000000000000000000000000000000006
:1086740000000000FEFEFC000000000000000000FE
:1086840000000000000000000000000000E0C00046
:108694000000000000000000000030300000000076
:1086A40000000000000000000000000000000000C6
:1086B40000C0FEFFFFFFFFFFFFFFFFFF7F7F3F1FA5
:1086C4000F071F7FFFFFF8F8FFFFFFFFFFFEF8E033
:1086D400000000010000000000000000FEFE000099
:1086E40000FCFEFC0C06060EFCF80000F0F81C0E64
:1086F4000606060CFFFFFF0000FEFE00000000FC63
:10870400FEFC00183C7E66E6CE84000006FFFF06F1
:1087140006FCFEFC0C0606060000FEFE0000C0F887
:10872400FC4E4646464E7C7840183C76E6CECC80DD
:108734000000000000000000000000000000000035
:108744000000000001070F1F1F3F3F3F3F1F0F03A3
:108754000000000000000000000000000F0F0000F7
:10876400000F0F0F000000000F0F000003070E0C96
:1087740018180C060F0F0F0000010F0E0C180C0F29
:10878400070100040E0C180C0F070000000F0F0067
:10879400000F0F0F0000000000000F0F0000000783
:1087A400070C0C181C0C060600040E0C180C0F0702
:1087B40000000000000000000000000000000000B5
:1087C40000000000000000000000000000000000A5
:1087D4000000000000000000000000000000000095
:1087E4000000000000000000000000000000000085
:1087F4000000000000000000000000000000000075
:108804000000000000000000000000000000000064
:108814000000000000000000000000000000000054
:108824000000000000000000000000000000000044
:108834005C810D0034E4032000000000000000000F
:108844000000000000000000000000000000000024
:108854000000000000000000000000000000000014
:108864000000000000000000000000000000000004
:1088740000000000000000000000000000000000F4
:1088840000000000000000000000000000000000E4
:088894000000000000000000DC
:10889C00FFFFFFFF00000102030405060708090A99
:1088AC000B0C0D0E0F101112131415161718191A94
:0888BC001B1C1D1E1F202800DB
:0488C400785634129C
:04000003D000401CCD
:00000001FF
