:02000002D0002C
:1040000000400D00847A0D00000006000C00050140
:084010000401BD0B00000000DB
:04401800106E0D0019
:10401C0009480A49884208B505D0094A824202D0AB
:10402C00121A02F0ADFE0748074A0021121A02F0DC
:10403C00B5FE014808BD00BF3CE10320E4750D004E
:10404C00B4E50320B8E50320F4E7032070B5074E70
:10405C00074C01F05BFEA41BA4080025A54200D16F
:10406C0070BD56F8043B98470135F7E7B8750D005D
:10407C00E0750D0000F036B808B500F0BFF8BDE8EB
:10408C00084001F005BE01F02FBB01F035BB00006C
:10409C0008B5034A00210C2001F092FAFEE700BF9C
:1040AC001D530D000078B0FA80F0400970470123D1
:1040BC0003707047704710B50446006808B101F0F2
:1040CC001BFB204610BD0EB403B503AB002153F807
:1040DC00042B019301F039FD02B05DF804EB03B041
:1040EC007047000070B501F017FF4FF4165101F046
:1040FC0007FF01F097FF4FF4165101F08FFF0121DC
:10410C000B2002F063F901210C2002F05FF9002171
:10411C000D2002F05BF903210E2002F057F9304C10
:10412C00304E314D0121112002F050F90023236053
:10413C0002F0C4F9216802F013F802F0BFF902F0A2
:10414C0016F860B901F0E8FE236831461A46FFF70D
:10415C00BAFF2B68012001332B6001F05FFD23684F
:10416C0001337F2B2360E3DD01F0D6FE1E4B1F498C
:10417C001A68FFF7A8FF3C2202211D4800F0E8FD59
:10418C001B4800F075FD4FF4FA6001F047FD18482C
:10419C0000F012FD1648002101F065F814480121C9
:1041AC0001F057F81248012101F058F8002211468D
:1041BC000F4801F04BF80F490D4801F09EFC0C48DC
:1041CC0000F056FD4FF4FA6001F028FDB9EE080A34
:1041DC0001F0FAFCBDE870400748762100F00FBBF7
:1041EC0034E60320246E0D000CE60320436E0D0014
:1041FC0010E603205F6E0D00C8E5032008B50E2005
:10420C0002F00EF9014628B1BDE808400121112049
:10421C0002F0EDB8BDE80840112002F0E8B810B586
:10422C002421044602F077F9204610BD10B50F4C3E
:10423C0000232360A380A371A3F58033A360022025
:10424C0001F0C6F920460A4C0A4A0B4902F05EF905
:10425C000421204600F09AFC2046064A074902F049
:10426C0055F9BDE81040064800F03EB8BCE5032007
:10427C0010E60320B8E50320C3400D00C1400D003B
:10428C00C8E50320704710B51021044602F043F92D
:10429C00204610BD73B5044608462279A36832B196
:1042AC00A3B90B4902B0BDE8704001F013BC094A38
:1042BC00267B094D0949647B012E18BF2946CDE99F
:1042CC0000140749FFF7FFFE02B070BD054AEFE787
:1042DC00866E0D00426E0D00826E0D007E6E0D001E
:1042EC009C6E0D00756E0D004FF0FF33036170472F
:1042FC0013B50B4C2178BFF35B8F11F001010BD17F
:10430C0020460191FFF7CEFE019928B1054801F036
:10431C004FFA2046FFF7CBFE024802B010BD00BF9B
:10432C0038E603203CE603202DE9F04190F91330E8
:10433C00013305460F4606D1FFF7DAFF3946BDE8D3
:10434C00F04101F055BB002407264FF0010895F908
:10435C001300002180B202F04AF895F9110008FA16
:10436C0006F1394080B202F042F895F913000121B0
:10437C0080B202F03CF895F91200640080B2E4B20D
:10438C0002F04EF808B144F00104013EDFD22046A1
:10439C00BDE8F08108B5FFF7ABFFBDE8084001F0C0
:1043AC0048BA07B50190FFF7A3FF019903B05DF878
:1043BC0004EB01F057BA000030B590F9103001331E
:1043CC0085B004460D461FD10179006801F0C4FE8A
:1043DC002068036829469B689847206801F0C7FE4F
:1043EC0021792068022201F0B4FE206803685B6921
:1043FC0098470546206803685B69984740EA0520A2
:10440C0085B2284605B030BD90F9133001330CD17C
:10441C00184B009300238DF80430174B0293684619
:10442C000123ADF80C30FFF7BCFF94F9100000210C
:10443C0080B201F0DCFF45F080012046FFF774FFED
:10444C0000212046FFF770FF002105462046FFF7AC
:10445C006BFF40EA052085B294F91000012180B26F
:10446C0001F0C5FF94F913300133CAD1FFF792FF65
:10447C00C7E700BFC46E0D0020A1070008B5FFF709
:10448C009BFF40BA80B208BD30B590F910300133B3
:10449C0085B004460D4618D10179006801F05CFE28
:1044AC002068036829469B689847206801F05FFEE6
:1044BC0021792068012201F04CFE206803685B69B9
:1044CC009847C5B2284605B030BD90F9133001337A
:1044DC000CD1154B009300238DF80430134B029331
:1044EC0068460123ADF80C30FFF75BFF94F9100020
:1044FC00002180B201F07BFF45F080012046FFF7E0
:10450C0013FF00212046FFF70FFF054694F910001A
:10451C00012180B201F06BFF94F913300133D1D13A
:10452C00FFF738FFCEE700BFC46E0D0020A10700D7
:10453C0008B5F321FFF7A8FF00F0010008BD38B55E
:10454C0088210446FFF79AFF8A21A0822046FFF7B4
:10455C0095FF8C21E0822046FFF790FF8E2120836F
:10456C002046FFF78BFF902160832046FFF786FFE4
:10457C009221A0832046FFF781FF9421E0832046FF
:10458C00FFF77CFF962120842046FFF777FF9821C8
:10459C0060842046FFF772FF9A21A0842046FFF723
:1045AC006DFF9C21E0842046FFF768FF9E2120854B
:1045BC002046FFF763FFA12160852046FFF764FFCB
:1045CC00E12184F82C002046FFF758FFE321E08519
:1045DC002046FFF759FFE42184F830002046FFF70E
:1045EC0053FFE52105462046FFF74EFF00F00F0371
:1045FC0043EA05106086E6212046FFF745FFE521DA
:10460C0005462046FFF740FF031143EA0510A0863C
:10461C00E7212046FFF738FF84F8360038BD00004C
:10462C007FB590F91030013304460E46154612D171
:10463C000179006801F090FD2068036831469B68A1
:10464C0098472068036829469B689847206801F0C2
:10465C008EFD04B070BD90F9133001330CD1144BA6
:10466C00009300238DF80430124B0293684601230B
:10467C00ADF80C30FFF795FE94F91000002180B2D4
:10468C0001F0B5FE06F07F012046FFF74DFE2946EE
:10469C002046FFF749FE94F91000012180B201F089
:1046AC00A6FE94F913300133D3D1FFF773FED0E794
:1046BC00C46E0D0020A10700F8B5DB0002F0070264
:1046CC0003F03803134343EA81139DF8186080F814
:1046DC003C3090F840309DF81C509DF8207066F3EB
:1046EC00471380F84030ED0090F8383007F007079A
:1046FC0005F0380523F03F033D4304461D4380F885
:10470C00385006F00702F221FFF78AFF94F83820A0
:10471C00C2F3C20302F007019B0043EA411343EAD0
:10472C00D2122046F521FFF77BFF94F83C20C2F310
:10473C00C20302F007019B0043EA411343EA9212C1
:10474C002046F421BDE8F840FFF76ABF30B50446B7
:10475C0090F91000421C85B019D1206801F0CAFCF8
:10476C00D0212046FFF790FE6028A06045D120465E
:10477C00B622E021FFF754FF4FF4967001F04EFA89
:10478C002046FFF7D5FE054628B36420F6E7012145
:10479C0080B201F02CFE94F91000012180B201F0DE
:1047AC0015FE94F91300431C04D1FFF7A1FD01F091
:1047BC0009F8D5E7012180B201F008FE94F9110047
:1047CC00012180B201F002FE94F91200002180B2A6
:1047DC0001F0FCFDC4E72046FFF7B1FE0523009372
:1047EC001A4603212046CDE90155FFF765FF6420E9
:1047FC0001F014FA012005B030BD0020FBE710B524
:10480C000171044601F05AFE20602046BDE81040BC
:10481C00FFF79CBF08B500F04BFD014B186008BDBD
:10482C0044E60320F0B5457EBDF81440022D67D058
:10483C00032D00F09780012D6AD10589D2432A44BB
:10484C0012B2002A5BDBB0F90850954257DD002903
:10485C00BEBF5B181BB20021B0F90A00CD1885420F
:10486C00C4BF431A1BB2002B49DDC1F3C400DFF8EF
:10487C001CC102EBC01211F00701DBB20CEB020001
:10488C001AD0C1F108053F4EEDB2AB42775D3FBF88
:10489C00A5EB030EFF2646FA0EF637401CF8026015
:1048AC00012C0CBF3E43BE43AB420CF8026026D336
:1048BC0008390B44DBB28030072B17D9012C0CBF05
:1048CC00FF25002500F180011A46083AD2B2072ACA
:1048DC0001F8805C01F18001F7D8A3F10802C2F362
:1048EC00C402013200EBC21003F007033BB1264AAD
:1048FC00D25C0378012C0CBF134393430370F0BDBF
:10490C004589D2432A44CD180189491B12B209B2F8
:10491C00002AF4DBB0F90A509542F0DD0029BEBF45
:10492C005B181BB20021B0F90870CE18BE42C4BF90
:10493C006B1A1BB2002BE2DDD010802510FB051189
:10494C001248084402F0070101228A40012CD2B21D
:10495C0003440CD18342D2D010F8014B144300F81D
:10496C00014CF7E7CD184189491B09B269E7D243DD
:10497C00D2B28342C3D010F8014B144000F8014C62
:10498C00F7E700BF44E103203CE103204CE10320A6
:10499C00F0B5457EBDF81440022D34D0032D00F047
:1049AC009980012D37D1D5180289521B12B20029DA
:1049BC00C0F28F80B0F90A508D4240F38A80002AF1
:1049CC00BEBF9B181BB20022B0F90870D618BE42AD
:1049DC00C4BFAB1A1BB2002B7BDDC810802510FBAB
:1049EC0005224448104401F0070201219140012C9A
:1049FC00C9B2034473D198426BD010F8014B0C43ED
:104A0C0000F8014CF7E70589C9432944D5184289B8
:104A1C00521B09B212B200295BDBB0F908508D426F
:104A2C0057DD002ABEBF9B181BB20022B0F90A004A
:104A3C00D5188542C4BF831A1BB2002B49DDC2F3C3
:104A4C00C400DFF8B0C001EBC01112F00702DBB2FA
:104A5C000CEB01001AD0C2F10805274EEDB2AB42A7
:104A6C00775D3FBFA5EB030EFF2646FA0EF63740E7
:104A7C001CF80160012C0CBF3E43BE43AB420CF84A
:104A8C00016026D3083A1344DBB28030072B17D9C8
:104A9C00012C0CBFFF25002500F180011A46083AB5
:104AAC00D2B2072A01F8805C01F18001F7D8A3F19A
:104ABC000802C2F3C402013200EBC21003F0070378
:104ACC003BB10E4AD25C0378012C0CBF13439343C9
:104ADC000370F0BD4589C943294409B267E7C9434E
:104AEC00C9B29842F5D010F8014B0C4000F8014CBB
:104AFC00F7E700BF4CE1032044E103203CE1032035
:104B0C00F8B50D1E064614461F462DDB00F0B9FB0A
:104B1C00A84229DD002C27DB304600F0B5FBA04273
:104B2C0022DD304600F09DFB02281ED0032825D044
:104B3C00012804D13289E44322442C4615B2002CBE
:104B4C002146B8BFE11DC910802311FB03550E4946
:104B5C00012204F007044B5702FA04F464B29742A2
:104B6C000CBF2343A3434B55F8BD318972890139DE
:104B7C00E4434D1B14442DB224B2E0E77389013B8E
:104B8C005B1B25461CB2DAE74CE1032038B540220A
:104B9C0004460D46802100F08BFA064B2360FF2360
:104BAC0084F8213063774FF6FF73E38384F8205049
:104BBC00204638BDD86E0D0002484FF480620021AB
:104BCC0002F0ECB84CE1032007B590F8223043B169
:104BDC000191FFF78DFB019903B05DF804EB00F038
:104BEC0007BF0B46817F407F012203B05DF804EBC9
:104BFC0001F029BC38B590F91D30013304460D463F
:104C0C001DD090F92100012180B201F0F0FB94F944
:104C1C001F00002180B201F0EAFB94F92100002171
:104C2C0080B201F0E4FB29462046FFF7CDFF94F952
:104C3C0021000121BDE8384080B201F0D8BB01F061
:104C4C003DFC94F91B1001F08BFA01F037FC036862
:104C5C0000219B68984701F031FC036829469B684A
:104C6C00984701F02BFCBDE8384001F080BA0000F9
:104C7C00F8B521210446FFF7BDFF00212046FFF7C0
:104C8C00B9FF7F212046FFF7B5FF22212046FFF711
:104C9C00B1FF00212046FFF7ADFF07212046FFF7AB
:104CAC00A9FF94F91D30294F01332AD094F9210022
:104CBC00012180B201F09BFB94F91F00012180B20D
:104CCC0001F095FB94F92100002180B201F08FFBDB
:104CDC00012000F01DFB4FF48065013D17F8011B0E
:104CEC002046ADB2FFF770FF002DF6D1012000F089
:104CFC000FFB94F921000121BDE8F84080B201F0CE
:104D0C0076BB102601F0DAFB94F91B1001F028FA9F
:104D1C0001F0D4FB0368A6F110059B684021ADB2ED
:104D2C00984701F0CBFB0368795D9B680135ADB208
:104D3C009847AE42F5D101F0C1FB01F018FA06F12B
:104D4C0010039EB2B6F5826FDCD1F8BD4CE10320A6
:104D5C0038B590F91D300177013304460D46C27603
:104D6C0000F0C98090F91F00012180B201F02EFBE8
:104D7C0094F92100012180B201F028FB94F8223033
:104D8C00002B00F0A68094F92100012180B201F0E3
:104D9C002EFBFFF7ADFA012100F025FDFFF7A8FA75
:104DAC00102100F0FFFDFFF7A3FA002100F02EFD0B
:104DBC00FFF79EFA00F006FD94F92000012180B265
:104DCC0001F004FB94F92000012180B201F00FFBEB
:104DDC00012000F023FF94F92000002180B201F0A3
:104DEC0006FB0A2000F01AFF94F92000012180B282
:104DFC0001F0FDFA2046AE21FFF7FCFE2046D5213E
:104E0C00FFF7F8FE20468021FFF7F4FE2046A8218C
:104E1C00FFF7F0FE20463F21FFF7ECFE2046D321A2
:104E2C00FFF7E8FE20460021FFF7E4FE2046402174
:104E3C00FFF7E0FE8D212046FFF7DCFE012D0CBFB5
:104E4C00102114212046FFF7D5FE20462021FFF724
:104E5C00D1FE20460021FFF7CDFE2046A121FFF711
:104E6C00C9FE2046C821FFF7C5FE2046DA21FFF710
:104E7C00C1FE20461221FFF7BDFE81212046FFF71F
:104E8C00B9FE012D0CBF9F21CF212046FFF7B2FEAA
:104E9C00D9212046FFF7AEFE012D0CBF2221F121B6
:104EAC002046FFF7A7FE2046DB21FFF7A3FE204696
:104EBC004021FFF79FFE2046A421FFF79BFE2046D2
:104ECC00A621FFF797FE2046AF21BDE83840FFF73B
:104EDC0091BE94F91D00012180B201F077FA94F98A
:104EEC001E00012180B201F071FA94F82230002BDF
:104EFC003FF462AF47E701F0E1FA01F0FBF85BE742
:104F0C002DE9F04F85B01F46BDF93880BDF83C3017
:104F1C00A8EB0209A7EB010AB9F1000FB8BFC9F160
:104F2C000009BAF1000FB8BFCAF1000AD145834697
:104F3C000C46154604DD3A462C4647460D4690462F
:104F4C00BC4205DD2A464546904622463C4617465D
:104F5C003E1BB2B20092A8EB0502002AB8BF524227
:104F6C000192C6F3C03202FA86F64545B4BF01225F
:104F7C004FF0FF3276100292BC421CDCDBF80020B2
:104F8C000393D145D2F81080C7BF294622462A4642
:104F9C0021465846C047019A039BB61AB1B236B2A5
:104FAC00002E05DA029A1544009A56182DB236B224
:104FBC00013424B2E0E705B0BDE8F08F2DE9F347EA
:104FCC00BDF82C800768BDF92890CDF80080044608
:104FDC00FF6916468A461D46B8472368CDF80080FF
:104FEC0009F1FF323244DF6951462B46204612B29A
:104FFC00B8472368CDF800809F6932464B4651462E
:10500C002046B8476B1E03EB0A012368CDF82880B5
:10501C009D6932464B4609B22046AC4602B0BDE80B
:10502C00F047604737B5013B13440468BDF818508E
:10503C0001951BB2009364690B46A04703B030BDC9
:10504C0037B5BDF818500468CDE90025013B0B4479
:10505C0064691BB2A04703B030BD2DE9F347BDF91D
:10506C002890BDF82C80054692460C46CE18B442CA
:10507C000BDA2B68CDF800809F6921464B465246CF
:10508C0028460134B84724B2F1E702B0BDE8F087F6
:10509C0013B502680191B0F90E100091546AB0F981
:1050AC000C3000221146A04702B010BD7047000022
:1050BC0030B54281C2814FF0FF320024054D426170
:1050CC000122446005600181818104610283827642
:1050DC0030BD00BF0C740D002DE9F04F2DED028B8F
:1050EC008BB006460391BDF858100591BDF85C10C5
:1050FC000691B0F90C1003989DF86050814251DD77
:10510C00B6F90E1091424DDD062111FB0504002C61
:10511C0048DD02EBC504002C44DD03EB830309934B
:10512C0093B2079100240493052C1CBF2D4B099AB4
:10513C00049F16BF1B1900239B5C0293039AABB20E
:10514C00089304FB05F313FA82F31BB204EB020A77
:10515C0008EE103A4FF000080FFA85F90FFA8AFAA8
:10516C00029BDB072FD5012D336820D1049AD3F88D
:10517C0010B0059B424412B251463046D847029BB0
:10518C005B080293089B08F101081F44B8F1080F53
:10519C00BFB2E5D1079B013B013413F0FF0364B2AE
:1051AC000793C1D10BB0BDEC028BBDE8F08F059A13
:1051BC00CDE9009218EE101AD3F824B03AB24B464F
:1051CC003046D847DBE7DDE905239342D7D0012DE4
:1051DC00336805D1049AD3F810B0069B4244CAE751
:1051EC00069AE5E7086F0D0030B50A2985B004462C
:1051FC0007D1027E638A03EBC203638200232382FE
:10520C0021E00D291FD0037E0293C38A0193838A68
:10521C000093B0F912200B46B0F91010FFF75CFFA9
:10522C00217E238A01EB410003EB4003A07E1BB2DD
:10523C000A46238238B1B4F90C006FF0050505FB62
:10524C0001018B42D6DC012005B030BD01824282C7
:10525C007047012938BF012101767047C1828182D4
:10526C007047407E704701F00303B0F90A20437683
:10527C00C907B0F9083059BF8381C2818281C381CB
:10528C007047B0F90C007047B0F90E007047000081
:10529C0008B5024B1B689B68019308BD68020300AC
:1052AC0008B5024B1B68DB68019308BD680203005C
:1052BC0008B5024B1B681B68019308BD2C02030048
:1052CC0008B5024B1B689B68019308BD2C020300B8
:1052DC0008B5024B1B68DB68019308BD2C02030068
:1052EC0008B5024B1B681B69019308BD2C02030017
:1052FC0008B5024B1B685B69019308BD2C020300C7
:10530C0008B5024B1B685B68019308BD18020300CB
:10531C0008B5024B1B68DB68019308BD180203003B
:10532C0008B5024B1B685B69019308BD18020300AA
:10533C0008B5024B1B685B6C019308BD4802030067
:10534C0008B5024B1B689B6C019308BD4802030017
:10535C0008B5024B1B685B69019308BD640203002E
:10536C0008B5024B1B681B68019308BD3C02030087
:10537C0008B5024B1B68DB68019308BD3C020300B7
:10538C0008B5024B1B681B69019308BD3C02030066
:10539C0008B5024B1B685B69019308BD3C02030016
:1053AC0008B5024B1B689B69019308BD3C020300C6
:1053BC0008B5024B1B68DB69019308BD3C02030076
:1053CC0008B5024B1B681B6A019308BD3C02030025
:1053DC0008B5024B1B689B6A019308BD3C02030095
:1053EC0008B5024B1B68DB6A019308BD3C02030045
:1053FC0008B5024B1B68DB68019308BD280203004B
:10540C0008B5024B1B689B69019308BD2802030079
:10541C0008B5024B1B68DB69019308BD2802030029
:10542C0008B5024B1B681B6A019308BD28020300D8
:10543C0008B5024B1B685B6A019308BD2802030088
:10544C0008B5024B1B689B6A019308BD2802030038
:10545C0008B5024B1B68DB6A019308BD28020300E8
:10546C0008B5024B1B681B6B019308BD2802030097
:10547C0008B5024B1B685B6B019308BD2802030047
:10548C0008B5024B1B681B6C019308BD2802030076
:10549C0008B5024B1B681B6D019308BD2802030065
:1054AC0008B5024B1B681B68019308BD3002030052
:1054BC0008B5024B1B689B68019308BD30020300C2
:1054CC0008B5024B1B68DB68019308BD3002030072
:1054DC0008B5024B1B681B69019308BD3002030021
:1054EC0008B5024B1B685B69019308BD30020300D1
:1054FC0008B5024B1B68DB69019308BD3002030041
:10550C0008B5024B1B681B6A019308BD30020300EF
:10551C0008B5024B1B685B6A019308BD300203009F
:10552C0008B5024B1B68DB6B019308BD300203000E
:10553C0008B5024B1B681B6C019308BD30020300BD
:10554C0008B5024B1B685B6C019308BD300203006D
:10555C0008B5024B1B681B68019308BD4C02030085
:10556C0008B5024B1B685B68019308BD4C02030035
:10557C0008B5024B1B681B69019308BD4C02030064
:10558C0008B5024B1B685B69019308BD4C02030014
:10559C0008B5024B1B689B69019308BD4C020300C4
:1055AC0008B5024B1B68DB69019308BD4C02030074
:1055BC0008B5024B1B681B6A019308BD4C02030023
:1055CC0008B5024B1B685B6B019308BD60020300BE
:1055DC0008B5024B1B685B68019308BD20020300F1
:1055EC0008B5024B1B685B69019308BD20020300E0
:1055FC0008B5034B1B68D3F88830019308BD000035
:10560C002002030008B5034B1B68D3F894300193B8
:10561C0008BD00002002030008B5024B1B685B6844
:10562C00019308BD4002030008B5024B1B689B6840
:10563C00019308BD4002030008B5024B1B68DB68F0
:10564C00019308BD4002030008B5024B1B681B699F
:10565C00019308BD4002030008B5024B1B685B694F
:10566C00019308BD4002030008B5024B1B689B69FF
:10567C00019308BD4002030008B5024B1B68DB69AF
:10568C00019308BD4002030008B5024B1B681B6A5E
:10569C00019308BD4002030008B5024B1B681B6B4D
:1056AC00019308BD4002030008B5024B1B685B6BFD
:1056BC00019308BD4002030008B5024B1B681B6C2C
:1056CC00019308BD4002030008B5024B1B685B6CDC
:1056DC00019308BD4002030008B5024B1B68DB6B4D
:1056EC00019308BD4402030008B5024B1B681B68FC
:1056FC00019308BD1C02030008B5024B1B685B68D4
:10570C00019308BD1C02030008B5024B1B685B6AC1
:10571C00019308BD1C02030008B5024B1B685B6CAF
:10572C00019308BD1C020300002240681146FFF7DC
:10573C00ABBF002240681146FFF7B6BF406800229D
:10574C00FFF7AABF4068002281F00101FFF794BF68
:10575C00002340681A461946FFF786BF00234068AD
:10576C001A461946FFF778BF002240681146FFF72A
:10577C006BBF002240681146FFF756BF40680022FD
:10578C000221FFF759BF002340681A46FFF744BFB8
:10579C00024B03225A60024A1A60704748E6032003
:1057AC0044740D000021FFF7C3BE0021FFF7C8BEF3
:1057BC0010B5044608462170FFF79AFE002363607B
:1057CC00204610BD10B504460078FFF7EBFF48B932
:1057DC0020784FF6FF71FFF763FE2078BDE810408C
:1057EC00FFF7E3BF10BD13B5044600780191FFF736
:1057FC00D9FF019940B92078FFF75AFE207802B002
:10580C00BDE81040FFF7D1BF02B010BD13B5044680
:10581C0000780191FFF7C6FF019940B92078FFF796
:10582C004FFE207802B0BDE81040FFF7BEBF02B0BB
:10583C0010BD0078FFF7B9BF400830B518600024E0
:10584C0018688842E5B206D90134082C02D0400809
:10585C001860F5E70725024B5B5D137030BD00BF88
:10586C0078740D002DE9F04306468FB000780C4695
:10587C00FFF798FF00281BDB35781422002109A8BC
:10588C0001F08CFA0B23002209A92846ADF824302C
:10589C00FFF73EFE9DF82D3013B19DF82C5055B1FD
:1058AC000027B946B846012523795DB1C3B1002064
:1058BC000FB0BDE8F083DDF830809DF834909DF892
:1058CC003570F1E7002B35D1A368434508D18DF82D
:1058DC0020908DF82170BDF82020A3899A42E6D043
:1058EC000023A1688DF80F300A9804AB0DF10F025C
:1058FC00FFF7A2FF217985B989B9A36843450ED377
:10590C008DF820908DF82170BDF82020A3899A4243
:10591C0005D1049B434502D1C9E70029F9D10023E5
:10592C000193637B00939DF80F20237B3078FFF766
:10593C00F7FDBCE7CDE900552B462A460121F5E7DA
:10594C002DE9F04188B000230446007802930E46FE
:10595C001746FFF727FF054600BB94F80080014669
:10596C00142203A801F01AFA0B232A4603A9404675
:10597C00ADF80C30FFF7CCFD04988DF8075002AB56
:10598C000DF1070207FB06F1FFF756FF20789DF893
:10599C000710FFF79DFD2078FFF707FF029808B06E
:1059AC00BDE8F08138B5044600780D46FFF7FAFEE5
:1059BC000346D0B9616899B10C4A12F8010B8542C3
:1059CC0002D00133082BF8D10133DBB20122D940CC
:1059DC002046FFF7B5FF2078BDE83840FFF7E5BE5D
:1059EC0020782946FFF774FDF5E738BD78740D0073
:1059FC0008B50078FFF774FDC0B208BD10B5094BAF
:105A0C00094C022200201A60084B2060A080A07173
:105A1C00A360FFF7DDFD2046054A0649BDE81040AE
:105A2C0000F074BD5CE6032050E603200000FFFF8D
:105A3C00B8E50320C3400D0010B50446006808B15A
:105A4C00FFF77EFC204610BD10B58368044613B1E9
:105A5C00032201469847204610BD000010B5064CA5
:105A6C00002320462360FFF763FC2046034A0449C9
:105A7C00BDE8104000F04ABD60E60320B8E5032005
:105A8C00455A0D00F8B506460D468F180024BD4248
:105A9C000CD0336815F8011B9B6830469847031EE1
:105AAC0001DB1C44F3E7002C08BF1C462046F8BD64
:105ABC0013B50446084659B1019101F09BF92368CE
:105ACC000199DB680246204602B0BDE81040184739
:105ADC0002B010BD08B5FFF7EBFF08BD03689B686B
:105AEC00184738B50D210546FFF7F8FF0A21044683
:105AFC002846FFF7F3FF204438BD38B50546FFF7BD
:105B0C00D7FF04462846FFF7ECFF204438BD30B5DC
:105B1C008BB000238DF82430012A98BF0A2209ACDF
:105B2C000D46B1FBF2F101FB125303F0FF03092BFD
:105B3C0094BF30333733DBB2AA4204F8013DEFD9BE
:105B4C002146FFF7B5FF0BB030BD2DE9F04186B013
:105B5C0000AF05460E46381D142114463B60FFF776
:105B6C00D3FD13280ED8391D2846FFF7A1FF044694
:105B7C001EB12846FFF7B5FF044420461837BD4632
:105B8C00BDE8F08100F1080323F00703E846ADEB14
:105B9C00030D2246411C3B686846FFF7B5FD69467C
:105BAC002846FFF785FF0446C546E1E70023406819
:105BBC001A461946FFF750BD014B024A1A6070474E
:105BCC0064E6032080740D00FAEE087AB4EEE70A5E
:105BDC00F1EE10FA08B511D4F2EE0C7AB4EEE70A35
:105BEC00F1EE10FA0ADCDFED067A60EE277A17EE9A
:105BFC00900A01F083F8034BC3E9000108BD00BF14
:105C0C000000614570E60320024B1A68024B1A60D3
:105C1C00704700BF4CE5032068E603200021FFF726
:105C2C00DFBC10B50446FFF70FFF204610BD000087
:105C3C000348044A04490023836000F067BC00BF9A
:105C4C0078E60320B8E503202F5C0D00014B1860AB
:105C5C00704700BF50E5032008B50B4B43B100F073
:105C6C005BF903681B699847002801DDAFF30080DE
:105C7C00064B43B100F0D6F903681B69984700281E
:105C8C0001DDAFF3008008BD000000000000000043
:105C9C0008B5FFF7E1FFFFF743FB014B186008BDA8
:105CAC00D8E703200248034A0349121A01F068B8E6
:105CBC0000F4032004F40320E0750D0007B5002365
:105CCC0000931A466FF07701FFF79CFC03B05DF868
:105CDC0004FB000007B543880A2B08D0502B0BD1CE
:105CEC00094B1B684BB103B05DF804EB1847FFF789
:105CFC00E5FF03B05DF804FB002300931A466FF038
:105D0C007701FFF77FFCF4E78CE6032038B5124CE3
:105D1C001248134D0021FFF7FFFC2368AB42114BD7
:105D2C000CBF012200221A7002D0FFF7BBFF2560C6
:105D3C00FFF7E6FA044601F039F80B4B13B1204695
:105D4C00AFF3008000210848FFF7C6FCBDE83840DF
:105D5C0006480021FFF74CBC00F40320595C0D00F1
:105D6C001E1C279A88E6032000000000E15C0D0051
:105D7C00704710B51821044600F0CDFB204610BD2D
:105D8C00F0B5037D062B8DB00E4600F104074FF0E5
:105D9C00000412D000F1080515F8011D0A22304646
:105DAC00FFF7B5FEAF42044419D0002CF4D02E21DD
:105DBC003046FFF793FE0444EEE72F236A4639463C
:105DCC000A208DF80040FFF7C3FA684601F012F87C
:105DDC0033680246DB6869463046984704462046DD
:105DEC000DB0F0BD10B5054B0446112240F8043B34
:105DFC00002100F0D3FF204610BD00BFA8740D0099
:105E0C000346074A10B543F8042B01F1100251F870
:105E1C00044B43F8044B9142F9D10A781A7010BD27
:105E2C00A8740D0010B59DF8084044EA032343EA1A
:105E3C00024242EA016104234160037510BD000077
:105E4C0013B5054B0360CB7800938B784A780978AF
:105E5C00FFF7E8FF02B010BDA8740D004174704745
:105E6C00704708B50021007CFFF792FB40EAE07018
:105E7C0008BD08B50121007CFFF78AFB40EAE07001
:105E8C0008BD08B5007CFFF77BFB20EAE07008BD7D
:105E9C0008B5007CFFF76CFB20EAE07008BD13B579
:105EAC000446007C0191FFF76BFB0028019901DC93
:105EBC00607C20B1207CFFF773FB20EAE07002B01D
:105ECC0010BD007CFFF774BB10B51421044600F024
:105EDC0022FB204610BD000010B54FF47A73044627
:105EEC0008460021C4E90113044B236001232074EC
:105EFC0063741146FFF72CFB204610BDBC740D00DB
:105F0C00007C0022FFF72CBB10B5142204460021A4
:105F1C0000F044FF204610BD10B5104C88B003A80B
:105F2C00FFF7F2FF2178BFF35B8F11F0010111D164
:105F3C0020460191FEF7B6F8019958B103AA08481A
:105F4C00FFF7CAFF2046FEF7B2F8064A0649044896
:105F5C0000F0DCFA024808B010BD00BF90E6032048
:105F6C0094E60320B8E503206D5E0D007047417484
:105F7C00704708B5007CFFF72BFA20EAE07008BDEB
:105F8C0008B5007CFFF7FCF920EAE07008BD08B505
:105F9C00007CFFF705FA40EAE07008BD08B5007C0C
:105FAC00FFF7F6F940EAE07008BD007CFFF700BA95
:105FBC0037B5457C04462DB1207C03B0BDE830409C
:105FCC00FFF7D6B9007C0191FFF702FA002801997E
:105FDC00F2DC284603B030BD10B51421044600F0A5
:105FEC009AFA204610BD000010B54FF0000C044684
:105FFC00084611464FF47A72C4E901C2044A226081
:10600C000122207462741A46FFF7AAF9204610BDCB
:10601C00EC740D00007C0023FFF7E2B90022FFF7BF
:10602C00F9BF000013B50E4C2178BFF35B8F11F054
:10603C00010112D120460191FEF734F8019960B1AB
:10604C00084A094B0948FFF7CFFF2046FEF72FF807
:10605C00074A0849054800F059FA044802B010BD37
:10606C00A8E60320ACE6032030E70320B4E70320C6
:10607C00B8E50320795F0D007047F8B50646154664
:10608C000C468F18BC4206D0336814F8011B9B6871
:10609C0030469847F6E72846F8BD007C0022FFF70B
:1060AC00BFB9007C0021FFF7C3B9007C0021FFF7CA
:1060BC00C7B9007C0021FFF7CBB9007C0021FFF7AA
:1060CC00CFB910B51421044600F025FA204610BDB6
:1060DC0010B54FF47A73044608460021C4E9011345
:1060EC00034B236020741146FFF7CAF9204610BDFC
:1060FC001C750D000023007C1A461946FFF778B971
:10610C007FB500221423CDE90122ADF804300B78C1
:10611C008DF808304B680393CB680493007C0B7AA2
:10612C00059301A9FFF7B4F907B05DF804FB1FB59F
:10613C00003B8DF800104FF06401039118BF012350
:10614C00694601928DF80830FFF7DAFF05B05DF86B
:10615C0004FB0123FFF7EBBF007C0022FFF750B9D3
:10616C00C9B2FFF7F9BF007C0022FFF751B901213A
:10617C00FFF7F9BF002240681146FFF765BA00220D
:10618C0040681146FFF780BA002240681146FFF7BD
:10619C008BBA40680022FFF77FBA4068002281F07A
:1061AC000101FFF769BA002340681A461946FFF748
:1061BC005BBA002240681146FFF736BA40680022ED
:1061CC000221FFF739BA002340681A46FFF724BAB8
:1061DC00024B04225A60024A1A607047C8E7032037
:1061EC0044750D00002340681A46FFF715BA406845
:1061FC0000220221FFF720BA002240681146FFF767
:10620C0013BA002240681146FFF71EBA00234068FB
:10621C001A461946FFF720BA002340681A46194659
:10622C00FFF722BA40680021FFF746BA4068002108
:10623C00FFF74ABA4068002281F00101FFF71CBA4F
:10624C0040680022FFF728BA002240681146FFF789
:10625C002BBA002240681146FFF716BA2DE9F0431D
:10626C00002495B016460D460746FFF7BBFD2146A8
:10627C0018220EA8009400F091FD4023CDE90C34B7
:10628C0021466B460CAA3046FFF70AF80446002854
:10629C004CD1024601216868FFF7D6F902218046ED
:1062AC0022466868FFF7D0F9009E81462146002EF1
:1062BC003CD000293AD17368022B03D00A2B11D0A1
:1062CC00F669F4E7B8F1000F0AD0716906A8043139
:1062DC0007ADFFF7B5FD0FCD3C1D0FC42B68237028
:1062EC004146EDE7B9F1000F01D14946E8E7746981
:1062FC00102201A800F052FD06238DF8143001ADD8
:10630C0004F108031834186859682A4603C2083384
:10631C00A3421546F7D101A906A807ADFFF770FDFA
:10632C000FCD3C1D0FC42B682370DEE70098FEF7E1
:10633C00AFFF384615B0BDE8F0830000024B034AAE
:10634C001A6000225A607047D0E7032080750D0058
:10635C00232813B502D9002002B010BDA0F10B0305
:10636C00022B1AD8174C2178BFF35B8F11F0010167
:10637C000BD120460191FDF795FE019928B11248E9
:10638C00FFF716FA2046FDF792FE0F4B1878FFF731
:10639C00B7F80028DFD10120DEE7012809D800F08A
:1063AC008DF80021007CFFF763F880F00100C0B28B
:1063BC00D2E709380128EED8FFF734FE007CFEF74F
:1063CC00FFFFF2E738E603203CE60320232838B52C
:1063DC0004460D460AD8FF2908D0FFF7B9FF28B1AB
:1063EC0029462046BDE83840FEF76ABF38BD38B5AF
:1063FC0004460D46FEF76CFFFF2810D0062804D883
:10640C004D2323FA00F0C30709D42046FFF7A0FF61
:10641C0028B129462046BDE83840FEF761BF38BD9B
:10642C0010B50446FEF754FF031FDBB2012B08D94D
:10643C002046FFF78DFF20B12046BDE81040FEF747
:10644C0057BF002010BD2DE9F04190461F46002497
:10645C0006460D46B8F1000F13D147FA04F101F0CE
:10646C0001013046FFF7C3FF01212846FFF7BFFFAC
:10647C00013400212846FFF7BAFF082CEAD1BDE809
:10648C00F081C4F1070147FA01F1E8E738B50023C0
:10649C00202543801423044603808560056106494A
:1064AC00284600F03AF804496060284600F035F8B8
:1064BC00E060204638BD00BFB4750D0030B50F4DFF
:1064CC002978BFF35B8F11F0010487B013D12846F4
:1064DC00FDF7E8FD78B101A8FFF7D8FF01AA214626
:1064EC000748FFF7F5FD2846FDF7E1FD054A06498B
:1064FC00034800F00BF8024807B030BDDCE703207E
:10650C00E0E70320B8E5032085600D000B4601464B
:10651C00184600F027BCFDF7B8BDFDF7B4BD000070
:10652C0081F0004102E000BF83F0004330B54FEA38
:10653C0041044FEA430594EA050F08BF90EA020FA5
:10654C001FBF54EA000C55EA020C7FEA645C7FEA38
:10655C00655C00F0E2804FEA5454D4EB5555B8BF5B
:10656C006D420CDD2C4480EA020281EA030382EACC
:10657C00000083EA010180EA020281EA0303362D5E
:10658C0088BF30BD11F0004F4FEA01314FF4801C31
:10659C004CEA113102D0404261EB410113F0004F43
:1065AC004FEA03334CEA133302D0524263EB4303FA
:1065BC0094EA050F00F0A780A4F10104D5F1200E98
:1065CC000DDB02FA0EFC22FA05F2801841F10001F3
:1065DC0003FA0EF2801843FA05F359410EE0A5F1C7
:1065EC0020050EF1200E012A03FA0EFC28BF4CF0F8
:1065FC00020C43FA05F3C01851EBE37101F00045AE
:10660C0007D54FF0000EDCF1000C7EEB00006EEBBA
:10661C000101B1F5801F1BD3B1F5001F0CD3490844
:10662C005FEA30004FEA3C0C04F101044FEA44529B
:10663C0012F5800F80F09A80BCF1004F08BF5FEA22
:10664C00500C50F1000041EB045141EA050130BD02
:10665C005FEA4C0C404141EB0101013C28BFB1F514
:10666C00801FE9D291F0000F04BF01460020B1FA5F
:10667C0081F308BF2033A3F10B03B3F120020CDA32
:10668C000C3208DD02F1140CC2F10C0201FA0CF010
:10669C0021FA02F10CE002F11402D8BFC2F1200C75
:1066AC0001FA02F120FA0CFCDCBF41EA0C0190402B
:1066BC00E41AA2BF01EB0451294330BD6FEA040474
:1066CC001F3C1CDA0C340EDC04F11404C4F120025F
:1066DC0020FA04F001FA02F340EA030021FA04F371
:1066EC0045EA030130BDC4F10C04C4F1200220FAC8
:1066FC0002F001FA04F340EA0300294630BD21FA06
:10670C0004F0294630BD94F0000F83F4801306BFCB
:10671C0081F480110134013D4EE77FEA645C18BFBF
:10672C007FEA655C29D094EA050F08BF90EA020F56
:10673C0005D054EA000C04BF1946104630BD91EA4E
:10674C00030F1EBF0021002030BD5FEA545C05D151
:10675C004000494128BF41F0004130BD14F5800490
:10676C003CBF01F5801130BD01F0004545F0FE4104
:10677C0041F470014FF0000030BD7FEA645C1ABF39
:10678C00194610467FEA655C1CBF0B46024650EA70
:10679C00013406BF52EA033591EA030F41F400219C
:1067AC0030BD00BF90F0000F04BF0021704730B522
:1067BC004FF4806404F132044FF000054FF00001F7
:1067CC0050E700BF90F0000F04BF0021704730B5B8
:1067DC004FF4806404F1320410F0004548BF40428D
:1067EC004FF000013EE700BF42004FEAE2014FEAE2
:1067FC0031014FEA02701FBF12F07F4393F07F4FBD
:10680C0081F06051704732F07F4208BF704793F0BF
:10681C007F4F04BF41F40021704730B54FF46074D2
:10682C0001F0004521F000411CE700BF50EA0102D5
:10683C0008BF704730B54FF000050AE050EA01027E
:10684C0008BF704730B511F0004502D5404261EBEE
:10685C0041014FF4806404F132045FEA915C3FF42F
:10686C00D8AE4FF003025FEADC0C18BF03325FEACC
:10687C00DC0C18BF033202EBDC02C2F1200300FA7D
:10688C0003FC20FA02F001FA03FE40EA0E0021FAA2
:10689C0002F11444BDE600BF70B54FF0FF0C4CF490
:1068AC00E06C1CEA11541DBF1CEA135594EA0C0F42
:1068BC0095EA0C0F00F0DEF82C4481EA030621EA7D
:1068CC004C5123EA4C5350EA013518BF52EA0335B8
:1068DC0041F4801143F4801338D0A0FB02CE4FF06A
:1068EC000005E1FB02E506F00042E0FB03E54FF09A
:1068FC000006E1FB03569CF0000F18BF4EF0010E92
:10690C00A4F1FF04B6F5007F64F5407404D25FEA8D
:10691C004E0E6D4146EB060642EAC62141EA555140
:10692C004FEAC52040EA5E504FEACE2EB4F1FD0C82
:10693C0088BFBCF5E06F1ED8BEF1004F08BF5FEA00
:10694C00500E50F1000041EB045170BD06F00046B2
:10695C0046EA010140EA020081EA0301B4EB5C045F
:10696C00C2BFD4EB0C0541EA045170BD41F4801157
:10697C004FF0000E013C00F3AB8014F1360FDEBF7C
:10698C00002001F0004170BDC4F10004203C35DA58
:10699C000C341BDC04F11404C4F1200500FA05F3DB
:1069AC0020FA04F001FA05F240EA020001F000427C
:1069BC0021F0004110EBD37021FA04F642EB0601F2
:1069CC005EEA430E08BF20EAD37070BDC4F10C041C
:1069DC00C4F1200500FA04F320FA05F001FA04F2E0
:1069EC0040EA020001F0004110EBD37041F10001CC
:1069FC005EEA430E08BF20EAD37070BDC4F12005D7
:106A0C0000FA05F24EEA020E20FA04F301FA05F23E
:106A1C0043EA020321FA04F001F0004121FA04F2E6
:106A2C0020EA020000EBD3705EEA430E08BF20EAB6
:106A3C00D37070BD94F0000F0FD101F000464000F0
:106A4C0041EB010111F4801F08BF013CF7D041EA72
:106A5C00060195F0000F18BF704703F00046520076
:106A6C0043EB030313F4801F08BF013DF7D043EA47
:106A7C000603704794EA0C0F0CEA135518BF95EAFD
:106A8C000C0F0CD050EA410618BF52EA4306D1D184
:106A9C0081EA030101F000414FF0000070BD50EAA3
:106AAC00410606BF1046194652EA430619D094EA2D
:106ABC000C0F02D150EA013613D195EA0C0F05D117
:106ACC0052EA03361CBF104619460AD181EA03016B
:106ADC0001F0004141F0FE4141F470014FF0000023
:106AEC0070BD41F0FE4141F4780170BD70B54FF0BE
:106AFC00FF0C4CF4E06C1CEA11541DBF1CEA13553E
:106B0C0094EA0C0F95EA0C0F00F0A7F8A4EB05041F
:106B1C0081EA030E52EA03354FEA013100F0888016
:106B2C004FEA03334FF0805545EA131343EA1263DF
:106B3C004FEA022245EA111545EA10654FEA002694
:106B4C000EF000419D4208BF964244F1FD0404F54D
:106B5C00407402D25B084FEA3202B61A65EB0305A9
:106B6C005B084FEA32024FF480104FF4002CB6EB66
:106B7C00020E75EB030E22BFB61A754640EA0C00E6
:106B8C005B084FEA3202B6EB020E75EB030E22BF26
:106B9C00B61A754640EA5C005B084FEA3202B6EB67
:106BAC00020E75EB030E22BFB61A754640EA9C0026
:106BBC005B084FEA3202B6EB020E75EB030E22BFF6
:106BCC00B61A754640EADC0055EA060E18D04FEAB4
:106BDC00051545EA16754FEA06164FEAC30343EA54
:106BEC0052734FEAC2025FEA1C1CC0D111F4801F21
:106BFC000BD141EA00014FF000004FF0004CB6E71A
:106C0C0011F4801F04BF01430020B4F1FD0C88BFB8
:106C1C00BCF5E06F3FF6AFAEB5EB030C04BFB6EBC3
:106C2C00020C5FEA500C50F1000041EB045170BDB6
:106C3C000EF0004E4EEA113114EB5C04C2BFD4EBE3
:106C4C000C0541EA045170BD41F480114FF0000E67
:106C5C00013C90E645EA060E8DE60CEA135594EAE3
:106C6C000C0F08BF95EA0C0F3FF43BAF94EA0C0FE6
:106C7C000AD150EA01347FF434AF95EA0C0F7FF45B
:106C8C0025AF104619462CE795EA0C0F06D152EAAF
:106C9C0003353FF4FDAE1046194622E750EA410693
:106CAC0018BF52EA43067FF4C5AE50EA41047FF4A4
:106CBC000DAF52EA43057FF4EBAE12E74A0011D256
:106CCC0012F5001211D20DD56FF47873B3EB62523A
:106CDC000ED44FEAC12343F0004343EA505323FA46
:106CEC0002F070474FF00000704750EA013002D1BB
:106CFC004FF0FF3070474FF00000704707EE900ADE
:106D0C00F5EEC07AF1EE10FA01D400F00BB8F1EE0A
:106D1C00677A08B517EE900A00F004F8404261EB70
:106D2C00410108BDD0B5FFF75FFD0C4B00220646B4
:106D3C000F46FFF7B1FDFFF7C1FF0446FFF732FD29
:106D4C00074B0022FFF7A8FD02460B46304639469A
:106D5C00FFF7EAFBFFF7B2FF2146D0BD0000F03D84
:106D6C000000F04110B5054C13462CB10A46014603
:106D7C000220AFF3008010BD2046FCE700000000AD
:106D8C000A44914200F1FF3300D1704710B511F85D
:106D9C00014B03F8014F9142F9D110BD0244034657
:106DAC00934200D1704703F8011BF9E738B50D4B3E
:106DBC001D68AB6B04467BB91820FEF795FC0A4A9C
:106DCC000A4BA863C0E90023094B83600B23838122
:106DDC0001220023C0E90423AB6B00221C615A6121
:106DEC0038BD00BF50E503200E33CDAB34126DE639
:106DFC00ECDE0500034613F8012B002AFBD1181A10
:106E0C00013870471D400D0059400D0081400D00A8
:106E1C0085400D0000000000466F756E64206164B3
:106E2C0064726573733A20253033692028307825D5
:106E3C0030325829200A00446F6E653A20466F752F
:106E4C006E64202569206465766963652873292E34
:106E5C00200A0043594245524241535320424F4F5E
:106E6C0054494E47205550210064656661756C7419
:106E7C0020004D5342004C5342003C535049536543
:106E8C007474696E67732064656661756C743E001A
:106E9C003C53504953657474696E67732025732590
:106EAC0075202573204D4F444525753E000000008C
:106EBC000000000000000000A1420D0091420D00F6
:106ECC0093420D000000000000000000C1400D00C6
:106EDC002B420D00F5510D00915A0D000D4B0D007C
:106EEC000D4F0D009D490D0031480D00C94F0D008F
:106EFC0067500D009D500D00B9500D0000000000B2
:106F0C00003E5B4F5B3E3E6B4F6B3E1C3E7C3E1C23
:106F1C00183C7E3C181C577D571C1C5E7F5E1C0069
:106F2C00183C1800FFE7C3E7FF0018241800FFE720
:106F3C00DBE7FF30483A060E2629792926407F05E3
:106F4C000507407F05253F5A3CE73C5A7F3E1C1CF9
:106F5C0008081C1C3E7F14227F22145F5F005F5FB9
:106F6C0006097F017F006689956A606060606094A5
:106F7C00A2FFA29408047E040810207E20100808AA
:106F8C002A1C08081C2A08081E101010100C1E0CB5
:106F9C001E0C30383E3830060E3E0E060000000047
:106FAC000000005F00000007000700147F147F142E
:106FBC00242A7F2A12231308646236495620500073
:106FCC0008070300001C2241000041221C002A1C5F
:106FDC007F1C2A08083E080800807030000808084A
:106FEC000808000060600020100804023E5149456A
:106FFC003E00427F400072494949462141494D3388
:10700C001814127F1027454545393C4A49493141EE
:10701C00211109073649494936464949291E0000BC
:10702C001400000040340000000814224114141411
:10703C001414004122140802015909063E415D59FD
:10704C004E7C1211127C7F494949363E4141412206
:10705C007F4141413E7F494949417F090909013E30
:10706C00414151737F0808087F00417F4100204057
:10707C00413F017F081422417F404040407F021C69
:10708C00027F7F0408107F3E4141413E7F09090980
:10709C00063E4151215E7F0919294626494949324C
:1070AC0003017F01033F4040403F1F2040201F3F12
:1070BC004038403F63140814630304780403615997
:1070CC00494D43007F4141410204081020004141D9
:1070DC00417F040201020440404040400003070885
:1070EC000020545478407F28444438384444442881
:1070FC00384444287F385454541800087E09021828
:10710C00A4A49C787F0804047800447D40002040AF
:10711C00403D007F1028440000417F40007C0478F3
:10712C0004787C080404783844444438FC1824243B
:10713C001818242418FC7C080404084854545424BB
:10714C0004043F44243C4040207C1C2040201C3C38
:10715C004030403C44281028444C9090907C44642F
:10716C00544C4400083641000000770000004136C2
:10717C00080002010204023C2623263C1EA1A16148
:10718C00123A4040207A385454555921555579417A
:10719C002154547841215554784020545579400C51
:1071AC001E52721239555555593954545459395532
:1071BC005454580000457C410002457D4200014575
:1071CC007C40F0292429F0F0282528F07C545545E2
:1071DC00002054547C547C0A097F49324949493275
:1071EC003248484832324A4848303A4141217A3A8A
:1071FC0042402078009DA0A07D39444444393D4054
:10720C0040403D3C24FF2424487E4943662B2FFC00
:10721C002F2BFF0929F620C0887E090320545479AE
:10722C00410000447D413048484A32384040227A7F
:10723C00007A0A0A727D0D19317D2629292F2826FC
:10724C002929292630484D40203808080808080804
:10725C000808382F10C8ACBA2F102834FA00007B5D
:10726C00000008142A142222142A1408AA0055001B
:10727C00AAAA55AA55AA000000FF00101010FF0082
:10728C00141414FF001010FF00FF1010F010F01475
:10729C001414FC001414F700FF0000FF00FF14147A
:1072AC00F404FC141417101F10101F101F141414C6
:1072BC001F00101010F0000000001F101010101F05
:1072CC0010101010F010000000FF10101010101013
:1072DC00101010FF10000000FF140000FF00FF0052
:1072EC00001F10170000FC04F414141710171414CA
:1072FC00F404F40000FF00F714141414141414F71D
:10730C0000F7141414171410101F101F141414F475
:10731C00141010F010F000001F101F0000001F14BC
:10732C00000000FC140000F010F01010FF10FF140F
:10733C001414FF141010101F00000000F010FFFFB9
:10734C00FFFFFFF0F0F0F0F0FFFFFF000000000087
:10735C00FFFF0F0F0F0F0F38444438447C2A2A3E8E
:10736C00147E02020606027E027E026355494163C8
:10737C003844443C04407E201E2006027E020299C2
:10738C00A5E7A5991C2A492A1C4C7201724C304A5B
:10739C004D4D303048784830BC625A463D3E4949E4
:1073AC0049007E0101017E2A2A2A2A2A44445F448C
:1073BC004440514A444040444A51400000FF0103BC
:1073CC00E080FF000008086B6B0836123624360686
:1073DC000F090F06000018180000001010003040B4
:1073EC00FF0101001F01011E00191D1712003C3C7A
:1073FC003C3C000000000000000000000000000009
:10740C000000000000000000F5510D00915A0D0025
:10741C009D400D000D4F0D0031500D004D500D00D5
:10742C00C94F0D0067500D009D500D00B9500D0057
:10743C00000000000000000093570D0089570D005C
:10744C007F570D0075570D0069570D005D570D00E6
:10745C0031620D0039620D0051570D0049570D0076
:10746C003F570D0035570D0069620D0000081018CC
:10747C00202830386170700025592D256D2D25641C
:10748C005425483A254D3A2553257A006173637487
:10749C00696D650000000000000000008D5D0D00AE
:1074AC007D5D0D007F5D0D00000000000000000000
:1074BC006D5E0D00D55E0D00AB5E0D00915A0D009A
:1074CC009D5E0D006F5E0D007F5E0D00CF5E0D00AA
:1074DC008F5E0D00695E0D000000000000000000D2
:1074EC00795F0D00E55F0D00BD5F0D00915A0D0039
:1074FC008D5F0D00A95F0D009B5F0D00B75F0D0048
:10750C007B5F0D007F5F0D0000000000000000009D
:10751C0085600D00CF600D00A7600D0087600D0029
:10752C00AF600D00B7600D00BF600D00C7600D00AF
:10753C000000000000000000D3610D00C9610D00C7
:10754C00BF610D0081610D00B95B0D00B3610D00D1
:10755C0031620D0039620D00A7610D009F610D00B5
:10756C0095610D008B610D0069620D00000000003B
:10757C0000000000F1610D00FB610D0005620D00C3
:10758C000F620D0019620D0025620D0031620D00B5
:10759C0039620D0041620D004D620D0055620D0007
:1075AC005F620D0069620D000000000039420D00A1
:1075BC0021480D009D570D00095A0D00695A0D0008
:1075CC00C55B0D00155C0D003D5C0D00DD610D0013
:0475DC0049630D00F2
:0475E00000000000A7
:1075E400000103070F1F3F7F0080C0E0F0F8FCFE9E
:1075F4000000000000000000000000000000000087
:107604000000000000000000000000000000000076
:107614000000000000000000000000000000000066
:1076240000000000000000000000000000000080D6
:107634008080000000000000000000000000000046
:10764400008080C0C00000000000000000000000B6
:107654000000000000000000000000000000000026
:107664000000000000000000000000000000000016
:107674000000000000000000000000000000000006
:107684000000000080C0E0F0F8FCF8E0000000001A
:107694000000000000000000000000000080808066
:1076A400808000808000000000808080808000FF57
:1076B400FFFF0000000080808080000080800000C8
:1076C40080FFFF8080008080008080808000808038
:1076D4000000000000808000008C8E84000080F890
:1076E400F8F8800000000000000000000000000026
:1076F400F0F0F0F0F0F0F0F0F0F0F0F0E0E0C08046
:1077040000E0FCFEFFFFFF7FFFFFFFFFFF00000024
:107714000000000000000000000000FEFFC701019F
:10772400010183FFFF00007CFEC70101010183FF0B
:10773400FFFF0038FEC78301010183C7FFFF00007C
:1077440001FFFF010100FFFF0701010100007FFFAE
:1077540080000000FFFF7F0000FFFFFF000001FF2B
:10776400FFFF010000000000000000000000000016
:10777400030F3F7F7FFFFFFFFFFFFFFFE7C7C78FB9
:107784008F9FBFFFFFC3C0F0FFFFFFFFFFFCFCFCA8
:10779400FCFCFCFCFCF8F8F0F0E0C000010303037F
:1077A40003030103030000000001030303030101B9
:1077B40003010000000103030303010103030000AC
:1077C40000030300000003030000000000000001A8
:1077D400030303030301000000010301000000038D
:1077E4000301000000000000000000000000000091
:1077F40000000080C0E0F0F9FFFFFFFFFF3F1F0F14
:1078040087C7F7FFFF1F1F3DFCF8F8F8F87C7DFFE2
:10781400FFFFFFFFFFFFFF7F3F0F07003030000037
:107824000000000000000000000000000000000054
:1078340000000000FEFEFC0000000000000000004C
:1078440000000000000000000000000000E0C00094
:1078540000000000000000000000303000000000C4
:107864000000000000000000000000000000000014
:1078740000C0FEFFFFFFFFFFFFFFFFFF7F7F3F1FF3
:107884000F071F7FFFFFF8F8FFFFFFFFFFFEF8E081
:10789400000000010000000000000000FEFE0000E7
:1078A40000FCFEFC0C06060EFCF80000F0F81C0EB2
:1078B4000606060CFFFFFF0000FEFE00000000FCB1
:1078C400FEFC00183C7E66E6CE84000006FFFF0640
:1078D40006FCFEFC0C0606060000FEFE0000C0F8D6
:1078E400FC4E4646464E7C7840183C76E6CECC802C
:1078F4000000000000000000000000000000000084
:107904000000000001070F1F1F3F3F3F3F1F0F03F1
:107914000000000000000000000000000F0F000045
:10792400000F0F0F000000000F0F000003070E0CE4
:1079340018180C060F0F0F0000010F0E0C180C0F77
:10794400070100040E0C180C0F070000000F0F00B5
:10795400000F0F0F0000000000000F0F00000007D1
:10796400070C0C181C0C060600040E0C180C0F0750
:107974000000000000000000000000000000000003
:1079840000000000000000000000000000000000F3
:1079940000000000000000000000000000000000E3
:1079A40000000000000000000000000000000000D3
:1079B40000000000000000000000000000000000C3
:1079C40000000000000000000000000000000000B3
:1079D40000000000000000000000000000000000A3
:1079E4000000000000000000000000000000000093
:1079F40098740D0054E5032000000000000000000E
:107A04000000000000000000000000000000000072
:107A14000000000000000000000000000000000062
:107A24000000000000000000000000000000000052
:107A34000000000000000000000000000000000042
:107A44000000000000000000000000000000000032
:087A540000000000000000002A
:107A5C00FFFFFFFF00000102030405060708090AE7
:107A6C000B0C0D0E0F101112131415161718191AE2
:087A7C001B1C1D1E1F20280029
:047A840078563412EA
:04000003D000401CCD
:00000001FF
