:02000002D0002C
:1040000000400D007CBB0D00000006000C00050107
:084010000401BD0B00000000DB
:04401800E4A70D000C
:1040200009480A49884208B505D0094A824202D0A7
:10403000121A04F027FD0748074A0021121A04F05B
:104040002FFD014808BD00BFC4DD032064B50D008D
:10405000B4E30320B8E30320F4E7032070B5074E70
:10406000074C02F073FFA41BA4080025A54200D151
:1040700070BD56F8043B98470135F7E734B50D009D
:104080005CB50D0000F048B908B500F069FABDE86C
:10409000084002F01DBF02F035BB02F033BB02F056
:1040A00039BB000008B5034A00210C2002F07EFA5B
:1040B000FEE700BF6D620D000078B0FA80F04009A5
:1040C0007047012303707047704770472F2810B561
:1040D00004460DD9094A00210A2002F067FA084B6C
:1040E00004F01F04D3F81005E04000F0010010BDFB
:1040F0001F28F4D84FF0A043F4E700BF6D620D0015
:10410000000300502DE9F8434C4E876833784C4D3E
:10411000BFF35B8F13F0010F044609D13046FFF760
:10412000CBFF28B102F05AF828603046FFF7C9FFEC
:104130001FFA87F82B684FEA081813F808703378CD
:10414000BFF35B8FD9074FEA471909D43B48FFF704
:10415000B3FF28B102F042F828603848FFF7B1FFFA
:104160002B6843445F7807F01F0747EA0907384682
:10417000FFF7ACFF3846FFF7A9FFD4F80C8033787F
:10418000BFF35B8FDA07C7B209D42C48FFF794FF5F
:1041900028B102F023F828602848FFF792FF1FFAA1
:1041A00088F82B684FEA081813F808903378BFF3A3
:1041B0005B8FDB074FEA491909D42048FFF77CFFE2
:1041C00028B102F00BF828601C48FFF77AFF2B6833
:1041D000984498F8015005F01F0545EA090528465E
:1041E000FFF774FF2846FFF771FF237CC0B203F08E
:1041F00003030FB143F0040308B143F008039A101E
:10420000013B22740D2B0BD8DFE803F0070C100CD8
:104210000A140707140A0C100C0763690133636161
:10422000BDE8F8836369013B6361F9E763690233C1
:104230006361F5E76369023B6361F1E7BCE3032077
:10424000C0E3032038B584690A4B036005467CB19E
:104250006368013B63605BB9236820469B689847AD
:10426000A368013BA3601BB923682046DB6898471D
:10427000284638BD10B10D0010B50446006808B1DD
:1042800002F048FA204610BD022A38B5044607D08D
:10429000032A11D0012A01D10B680360002038BD28
:1042A0000C200D68FFF7F7FE034618B195E80700EC
:1042B00083E807002360F1E700680028EED00C21B6
:1042C00003F08DFDEAE710B403685A6899681B682B
:1042D000541001EB6200D20748BF0A595DF8044B45
:1042E00048BFD35818470EB403B503AB002153F8A9
:1042F000042B019302F01BFD02B05DF804EB03B048
:10430000704710B50446FFF79DFF20461C2103F0BF
:1043100066FD204610BD00002DE9F34102F032FF9A
:104320004FF4165102F022FF03F018F84FF4165123
:1043300003F010F801210B2003F0ACFC01210C204C
:1043400003F0A8FC00210D2003F0A4FC03210E20A3
:1043500003F0A0FC6B4C6C4E6C4D0121112003F05E
:1043600099FC0023236003F00DFD216803F094F80D
:1043700003F008FD03F097F860B902F003FF23682B
:1043800031461A46FFF7AFFF2B68012001332B603F
:1043900002F064FD236801337F2B2360E3DD02F02C
:1043A000F1FE5A4B5A491A685A4CDFF89481FFF7CC
:1043B0009AFF3C220221584801F0C0FB564801F008
:1043C0004DFB4FF4FA6002F049FD534801F0EAFA60
:1043D0005148022101F03DFE4F48012101F02FFE1E
:1043E0004D48012101F030FE002211464A4801F0FB
:1043F00023FE4A49484802F072FC474801F02EFB70
:104400004FF4FA6002F02AFD02F0BCFE4449FFF7C7
:104410006AFF414801F0C6FA002211463E4801F009
:104420000BFE40493C48FFF75EFF3B4801F016FB9E
:10443000384800F054FD374800F08AFD002520463A
:1044400000F080FF204600F083FDFF2003F02EF8EF
:104450000646FF2003F02AF80746FF2003F026F85F
:10446000C0B2FBB2F2B2A9B20090204600F016FF33
:1044700098F80010204600F03FFF204600F068FD4D
:10448000192002F0EBFC204600F05CFF01352046CD
:1044900000F05EFD402DD2D1B9EE080A02F0B4FC66
:1044A00002F018F910B1002002F01CF9642002F0AB
:1044B000D5FC76211C4800F0DCFC164800F042FFD9
:1044C000144800F045FD02F05DFE184902F007FCBB
:1044D000174800F06FFF02F055FE164902F0FFFB8F
:1044E00002F050FE0446124800F08CFF124A1349B5
:1044F000002818BF1146204602B0BDE8F04102F086
:10450000EEBB00BFA4E4032030A80D0058E4032054
:104510004FA80D007CE503205CE403206BA80D0090
:1045200081A80D009AA80D0008E40320B1A80D0091
:10453000F8E30320CDA80D00F8A70D0016A80D0084
:10454000C4DD03201FB50146684602F020FB684623
:1045500002F028FB684602F04FFB684602F0A9FA19
:104560001FB50E2003F0C0FB0146E0B10121112070
:1045700003F0A1FB02F006FE0E4902F0B0FB02F0D0
:10458000EDFE03681B69984788B102F0E7FE0A2335
:104590001946094A02F011FC0749684602F0D4FAAC
:1045A0006846FFF7CFFF112003F085FBE7E705B072
:1045B0005DF804FBEBA80D004CE40320F0B58DB0D2
:1045C00002AD85E80600064695E8030005AC84E8E0
:1045D00005001F460C2000230A93FFF75CFD0246EE
:1045E00020B194E8030082E8030097600C4B0B9322
:1045F0000C4B0A939DF85030089200939DF8482088
:104600009DF94C3008A9304602F01AFE0A9B044678
:104610001BB108A903220846984720460DB0F0BDFB
:10462000C7420D0089420D002DE9F04F884604462F
:10463000174689B00221404603F02CFB0221384680
:1046400003F028FB524EE7600023C4E901382360E1
:1046500063614FF4FA6001F009FED4F808B03378D2
:104660004C4DBFF35B8F13F0010F09D13046FFF7BC
:1046700023FD28B101F0B2FD28603046FFF721FD8F
:104680001FFA8BFB2B684FEA0B1B13F80B90337848
:10469000BFF35B8FD9074FEA491A09D43C48FFF7AB
:1046A0000BFD28B101F09AFD28603948FFF709FD9C
:1046B0002B685B4493F8019009F01F0949EA0A0945
:1046C0004846FFF703FD4846FFF700FDD4F80CB05D
:1046D0003378BFF35B8FB0F1000918BF4FF00109C9
:1046E000DA0709D42A48FFF7E7FC28B101F076FD84
:1046F00028602748FFF7E5FC1FFA8BFB2B684FEA81
:104700000B1B13F80BA03378BFF35B8FDB074FEA6B
:104710004A1A09D41E48FFF7CFFC28B101F05EFD0C
:1047200028601B48FFF7CDFC2B689B449BF8015089
:1047300005F01F0545EA0A052846FFF7C7FC28468D
:10474000FFF7C4FC08B149F0020984F81090DFF8C3
:104750004890CDF8109000254FF0FF3623462A46AA
:104760004946CDE90056029540460595FFF726FFDC
:10477000CDE90695CDE90165009508AA12E9060084
:1047800023463846FFF71AFF204609B0BDE8F08FF0
:10479000BCE30320C0E3032005410D0010B5242134
:1047A000044603F01CFB204610BD10B5D42104467E
:1047B00003F015FB204610BDF7B5344C344B354E95
:1047C000A36000252560A580A571022001F0FEFEF2
:1047D0002046314C3149324F324603F0FBFA022376
:1047E00012224021204600F0A1FB20462D4C2E49EC
:1047F000324603F0EFFA0421204601F0BDF83246BC
:104800002A49204603F0E6FA29482A4C00F0A6F887
:10481000072205212848FFF707FF384603F07CF8F8
:1048200032462649384603F0D5FA254B00932549F0
:10483000254B40F25B72204601F09EFC234B236027
:1048400032462349C4F8D070204603F0C3FA2B4601
:104850002146204A204801F0ABFC2B4621461F4A46
:104860001F4801F0A5FC2B4621461E4A1E4801F0B8
:104870009FFC1E4A1E482B46214601F099FC1D480C
:1048800003B0BDE8F04000F06BBD00BFD0E30320F3
:104890000000FFFFB8E303207CE5032079420D0010
:1048A000DCE303205CE40320894E0D00C9400D00C9
:1048B00008E40320A8E4032080E4032045420D001F
:1048C00015A90D0005A90D00FAA80D008CAF0D006B
:1048D000CB400D0036A90D0098E4032050A90D002F
:1048E00090E503206AA90D009CE5032087A90D002F
:1048F000C4E30320F8E30320704710B510210446F9
:1049000003F06DFA204610BD73B5044608462279BF
:10491000A36832B1A3B90B4902B0BDE8704002F000
:10492000CBB9094A267B094D0949647B012E18BF82
:104930002946CDE900140749FFF7D5FC02B070BD48
:10494000054AEFE7AEA90D004EA80D00AAA90D007B
:10495000A6A90D00C4A90D009DA90D004FF0FF33BD
:104960000361704713B50B4C2178BFF35B8F11F0D7
:1049700001010BD120460191FFF79EFB019928B15F
:10498000054801F043FF2046FFF79BFB024802B0B9
:1049900010BD00BFA8E50320ACE503202DE9F041E0
:1049A00090F91330013305460F4606D1FFF7DAFFC1
:1049B0003946BDE8F04102F049B8002407264FF01F
:1049C000010895F91300002180B203F074F995F9FC
:1049D000110008FA06F1394080B203F06CF995F93C
:1049E0001300012180B203F066F995F9120064000A
:1049F00080B2E4B203F078F908B144F00104013E5A
:104A0000DFD22046BDE8F08108B5FFF7ABFFBDE877
:104A1000084001F03CBF07B50190FFF7A3FF0199E3
:104A200003B05DF804EB01F04BBF000030B590F926
:104A30001030013385B004460D461FD1017900685E
:104A400002F026FD2068036829469B689847206885
:104A500002F029FD21792068022202F016FD20686B
:104A600003685B6998470546206803685B69984757
:104A700040EA052085B2284605B030BD90F91330D4
:104A800001330CD1184B009300238DF80430174BE1
:104A9000029368460123ADF80C30FFF7BCFF94F990
:104AA0001000002180B203F006F945F08001204695
:104AB000FFF774FF00212046FFF770FF0021054635
:104AC0002046FFF76BFF40EA052085B294F91000FD
:104AD000012180B203F0EFF894F913300133CAD109
:104AE000FFF792FFC7E700BFECA90D0020A1070068
:104AF00008B5FFF79BFF40BA80B208BD30B590F90A
:104B00001030013385B004460D4618D10179006894
:104B100002F0BEFC2068036829469B68984720681D
:104B200002F0C1FC21792068012202F0AEFC20686D
:104B300003685B699847C5B2284605B030BD90F957
:104B4000133001330CD1154B009300238DF8043042
:104B5000134B029368460123ADF80C30FFF75BFF5F
:104B600094F91000002180B203F0A5F845F080010F
:104B70002046FFF713FF00212046FFF70FFF0546F1
:104B800094F91000012180B203F095F894F91330E4
:104B90000133D1D1FFF738FFCEE700BFECA90D00FC
:104BA00020A1070008B5F321FFF7A8FF00F00100DE
:104BB00008BD38B588210446FFF79AFF8A21A082F4
:104BC0002046FFF795FF8C21E0822046FFF790FFFB
:104BD0008E2120832046FFF78BFF902160832046A3
:104BE000FFF786FF9221A0832046FFF781FF9421E3
:104BF000E0832046FFF77CFF962120842046FFF7C4
:104C000077FF982160842046FFF772FF9A21A084E5
:104C10002046FFF76DFF9C21E0842046FFF768FFE8
:104C20009E2120852046FFF763FFA1216085204655
:104C3000FFF764FFE12184F82C002046FFF758FFBE
:104C4000E321E0852046FFF759FFE42184F8300096
:104C50002046FFF753FFE52105462046FFF74EFFAC
:104C600000F00F0343EA05106086E6212046FFF7B7
:104C700045FFE52105462046FFF740FF031143EAC3
:104C80000510A086E7212046FFF738FF84F836009C
:104C900038BD00007FB590F91030013304460E4650
:104CA000154612D10179006802F0F2FB2068036812
:104CB00031469B6898472068036829469B68984757
:104CC000206802F0F0FB04B070BD90F9133001339E
:104CD0000CD1144B009300238DF80430124B029337
:104CE00068460123ADF80C30FFF795FE94F91000EB
:104CF000002180B202F0DFFF06F07F012046FFF7BF
:104D00004DFE29462046FFF749FE94F91000012187
:104D100080B202F0D0FF94F913300133D3D1FFF702
:104D200073FED0E7ECA90D0020A10700F8B5DB0069
:104D300002F0070203F03803134343EA81139DF89E
:104D4000186080F83C3090F840309DF81C509DF879
:104D5000207066F3471380F84030ED0090F838304B
:104D600007F0070705F0380523F03F033D430446ED
:104D70001D4380F8385006F00702F221FFF78AFF42
:104D800094F83820C2F3C20302F007019B0043EA03
:104D9000411343EAD2122046F521FFF77BFF94F836
:104DA0003C20C2F3C20302F007019B0043EA411317
:104DB00043EA92122046F421BDE8F840FFF76ABFAB
:104DC00030B5044690F91000421C85B019D1206816
:104DD00002F02CFBD0212046FFF790FE6028A06057
:104DE00045D12046B622E021FFF754FF4FF49670DC
:104DF00002F034F82046FFF7D5FE054628B36420BC
:104E0000F6E7012180B202F056FF94F9100001216B
:104E100080B202F03FFF94F91300431C04D1FFF766
:104E2000A1FD01F0FDFCD5E7012180B202F032FFC7
:104E300094F91100012180B202F02CFF94F91200C4
:104E4000002180B202F026FFC4E72046FFF7B1FE42
:104E5000052300931A4603212046CDE90155FFF7AB
:104E600065FF642001F0FAFF012005B030BD00208D
:104E7000FBE710B50171044602F084FF2060204674
:104E8000BDE81040FFF79CBF10B50446C06808B1EC
:104E900001F040FC23781BB1E079002102F0FAFE1A
:104EA000204610BD38B50446C0680D4608B101F073
:104EB00031FCA379062B0CBF0420032010FB05F066
:104EC00080B2A08001F01EFCE06028B1A288002121
:104ED00003F0E6FD658038BDA0806080FBE710B57B
:104EE00004460121C07902F0D5FEE079002102F0EC
:104EF000E2FE0123237010BD37B5037805460C464A
:104F00001BB1C079002102F0C5FE2B78EC715BB1BA
:104F1000A0B20121019002F0BDFE0198002103B072
:104F2000BDE8304002F0C7BE03B030BD70B500250B
:104F3000044616468371C0E9035505700572FFF7F4
:104F4000B1FF20463146FFF7D7FF204670BD000075
:104F5000C368002B00F08D812DE9F04F8379023B6F
:104F6000DBB2042B9CBFC84A52F8234087B00546E9
:104F700088BF322401F082F92B69C01AA042F9D30C
:104F8000C24AAB8807CA06AC04E90700039CD4F800
:104F900000251AB9D4F86025002A7CDB049CD4F8DB
:104FA000002522B9D4F86025002AC0F25281059C60
:104FB000D4F80025002A00F03781B54BB5481C68AD
:104FC000EB79C1681A0104EB0316A75C7378B24C45
:104FD00041F08071C160226803F01F0343EA471368
:104FE00001273A432260A988D5F80C80D4F80490B0
:104FF0009F40002944D04FF0000E72464FF0A04170
:1050000018F801CB0820802663689B1A462BFBD931
:105010006268D1F808351CEA060F43EA0703C1F8B5
:1050200008352FD063689B1A282BFBD9D1F80C3593
:10503000013843EA07034FEA5606C1F80C35E3D1BD
:10504000AB880EF1010E1FFA8EFE7345D8D84FF4CF
:10505000307101FB03F163689B1A462BFBD963682F
:10506000A3EB09098945C0F0D9804FF4967001F08F
:10507000FDF8A988D5F80C80D4F804900029BAD19D
:105080000A46E8E763689B1A112BCFD863689B1A1E
:10509000112BF7D9CAE7D4F86425002ABFF67EAFF2
:1050A000D4F86825002ABFF679AFD4F86C25002A19
:1050B000BFF674AF1B0104331846009301F022FBC6
:1050C00000283FF47AAFAB88002B00F0DA80EA6862
:1050D000013B12FA83FE02F1FF3C002348F2060274
:1050E00048F20D011CF8017F17F0800F0CBF9046AD
:1050F000884620F8138003F1010817F0400F1FFACB
:1051000088F80CBF93468B4620F818B003F10208CC
:1051100017F0200F1FFA88F80CBF92468A4620F835
:1051200018A003F1030817F0100F1FFA88F80CBF3E
:105130009146894620F8189003F104091FFA89F96D
:1051400017F0080F03F105080CBF92468A461FFAB4
:1051500088F817F0040F20F819A00CBF9146894673
:1051600020F8189003F1060817F0020F1FFA88F8CC
:1051700003F108060CBF914689460733FF0720F864
:10518000189001969BB275D5E64520F81310BDF82E
:105190000430A7D1591C023389B29BB249005B008D
:1051A000009A4FF40047475256083949C752002227
:1051B0004FF0140CC4F80425C4F80C25C4F808C535
:1051C000C4F81425C4F81025C4F82005C4F82465D3
:1051D000C4F82825C4F82C25EB790E6806EB0317D4
:1051E00019017B78715C03F01F0343EA411301212D
:1051F000C4F86035C4F80015C4F81021A160D4F8D3
:105200001031002BFBD000234FF0FF32C4F81031D7
:10521000C4F80035C4F8602501F07CFA01F02EF8DE
:10522000286107B0BDE8F08FD4F86025002ABFF6EA
:10523000C4AED4F86425002ABFF6BFAED4F8682502
:10524000002ABFF6BAAED4F86C25002ABFF6B5AE78
:1052500030E7D4F86425002ABFF6A9AED4F8682553
:10526000002ABFF6A4AED4F86C25002ABFF69FAE84
:1052700020E77047E64520F81320B3B27FF432AF41
:1052800088E7042302218BE704AA0D00F8A90D008A
:10529000B4E50320F0ED00E0001000E070B54488B4
:1052A0009DF810508C421BD9047A44B112FB04F2D1
:1052B00014FB03F314FB05F4120A1B0A250AC66843
:1052C000807901EB410102387418062810D8DFE814
:1052D00000F0040F08040F04040073546270A570FA
:1052E00070BDFE2A28BFFE2272546570A370F7E7D6
:1052F00072546370A570F3E7037A4A1CD2B29342EA
:1053000070B51ED0013B13F0FF03C4680CD0FF2919
:105310001FBF110201F1FF31B1FBF3F39BB204BFD8
:105320004FF6FF71B1FBF3F325468688291B89B23E
:105330008E4205D929785943091205F8011BF4E773
:10534000027270BD8288C068002103F0A9BB000012
:1053500008B500F043FF014B186008BDB4E5032019
:1053600068230370704707B5022300780091042278
:105370001B2100F025F903B05DF804FB07B50223FB
:105380000078009104221C2100F01AF903B05DF8A6
:1053900004FB0B46007806226B2100F0EDB807B540
:1053A00003230078009102226B2100F009F903B079
:1053B0005DF804FB10B501210446FFF7F0FF20461D
:1053C0000021FFF7D0FF20460021FFF7D7FF20463E
:1053D0000021BDE81040FFF7DCBF000013B5034615
:1053E000074A0446128813F8010BCDE90032062360
:1053F0001A46752100F078F8607802B010BD00BF41
:10540000C8DD032008B5FFF7E9FFA0F134035842D7
:10541000584108BD2DE9F74F16469B46BDF8308030
:1054200007468A4600F032FF202E33464FF0000533
:10543000A8BF202381462C460193B5423AD202F000
:10544000A1FC394602F024F802F09CFC03685146A6
:105450009B68984702F096FC02F025F802F092FC57
:10546000394602F015F802F08DFC721B202AA8BF05
:105470002022D2B2394602F008F802F083FC036819
:105480001B69984790B1B8F1000F09D102F07AFC7E
:1054900003685B6998470BF80400013464B2ECE7D9
:1054A00000F0F4FEA0EB09004045EFD3019B1D4442
:1054B000EDB2C2E7B8F1000F09D000F0E7FEA0EBB3
:1054C0000900404503D3B442B8BF4FF0FF34204633
:1054D00003B0BDE8F08F07B5009313460122FFF734
:1054E00099FF03B05DF804FB37B514461D460DF176
:1054F0000702BDF81C30FFF7EEFF60B1012202FA8F
:1055000005F3611B9DF807200131013B8B401340DF
:10551000069A0B41137003B030BDF8B50746154627
:105520001C460E4602F02EFC394601F0B1FF02F097
:1055300029FC036831469B6898472544AC4207D054
:1055400002F020FC036814F8011B9B689847F5E7FC
:1055500002F018FC01F0A7FFB0FA80F04009F8BD96
:1055600007B58DF807200DF107030122FFF7D5FFDE
:1055700003B05DF804FB00002DE9F3411F460F4B1B
:10558000904601240DF107021B8805460E46FFF7E1
:10559000A2FF04FA08F252B29DF8074057B1224325
:1055A000D2B2314628468DF80720FFF7D9FF02B066
:1055B000BDE8F08124EA0202F3E700BFC8DD032062
:1055C000F7B51F46114B16461B880DF1070204461E
:1055D0000D46FFF780FFB8B1012202FA07F3F11B75
:1055E0009DF820200131013B8B4002FA01F19DF82A
:1055F0000720C9B222EA03020B401A43294620467B
:105600008DF80720FFF7ACFF03B0F0BDC8DD032025
:10561000F0B5457EBDF81440022D67D0032D00F093
:105620009780012D6AD10589D2432A4412B2002AFB
:105630005BDBB0F90850954257DD0029BEBF5B180F
:105640001BB20021B0F90A00CD188542C4BF431A2D
:105650001BB2002B49DDC1F3C400DFF81CC102EB13
:10566000C01211F00701DBB20CEB02001AD0C1F13D
:1056700008053F4EEDB2AB42775D3FBFA5EB030E91
:10568000FF2646FA0EF637401CF80260012C0CBFCC
:105690003E43BE43AB420CF8026026D308390B44AC
:1056A000DBB28030072B17D9012C0CBFFF2500255A
:1056B00000F180011A46083AD2B2072A01F8805C4C
:1056C00001F18001F7D8A3F10802C2F3C40201324C
:1056D00000EBC21003F007033BB1264AD25C03780B
:1056E000012C0CBF134393430370F0BD4589D24393
:1056F0002A44CD180189491B12B209B2002AF4DBF1
:10570000B0F90A509542F0DD0029BEBF5B181BB20C
:105710000021B0F90870CE18BE42C4BF6B1A1BB28C
:10572000002BE2DDD010802510FB05111248084443
:1057300002F0070101228A40012CD2B203440CD1AD
:105740008342D2D010F8014B144300F8014CF7E724
:10575000CD184189491B09B269E7D243D2B28342CD
:10576000C3D010F8014B144000F8014CF7E700BF1C
:10577000D2DD0320CADD0320DADD0320F0B5457E4B
:10578000BDF81440022D34D0032D00F09980012D76
:1057900037D1D5180289521B12B20029C0F28F806E
:1057A000B0F90A508D4240F38A80002ABEBF9B1890
:1057B0001BB20022B0F90870D618BE42C4BFAB1AA3
:1057C0001BB2002B7BDDC810802510FB052244484E
:1057D000104401F0070201219140012CC9B2034499
:1057E00073D198426BD010F8014B0C4300F8014C78
:1057F000F7E70589C9432944D5184289521B09B2E4
:1058000012B200295BDBB0F908508D4257DD002A47
:10581000BEBF9B181BB20022B0F90A00D518854202
:10582000C4BF831A1BB2002B49DDC2F3C400DFF8EA
:10583000B0C001EBC01112F00702DBB20CEB0100AB
:105840001AD0C2F10805274EEDB2AB42775D3FBFDB
:10585000A5EB030EFF2646FA0EF637401CF8016052
:10586000012C0CBF3E43BE43AB420CF8016026D373
:10587000083A1344DBB28030072B17D9012C0CBF38
:10588000FF25002500F180011A46083AD2B2072A06
:1058900001F8805C01F18001F7D8A3F10802C2F39E
:1058A000C402013200EBC21003F007033BB10E4A01
:1058B000D25C0378012C0CBF134393430370F0BDFB
:1058C0004589C943294409B267E7C943C9B2984227
:1058D000F5D010F8014B0C4000F8014CF7E700BF81
:1058E000DADD0320D2DD0320CADD0320F8B50D1E6A
:1058F000064614461F462DDB00F0B9FBA84229DD01
:10590000002C27DB304600F0B5FBA04222DD3046FC
:1059100000F09DFB02281ED0032825D0012804D1C9
:105920003289E44322442C4615B2002C2146B8BFEC
:10593000E11DC910802311FB03550E49012204F01B
:1059400007044B5702FA04F464B297420CBF234396
:10595000A3434B55F8BD318972890139E4434D1B8E
:1059600014442DB224B2E0E77389013B5B1B25464A
:105970001CB2DAE7DADD032038B5402204460D46D2
:10598000802100F08BFA064B2360FF2384F821303E
:1059900063774FF6FF73E38384F82050204638BDC9
:1059A00020AA0D0002484FF48062002103F078B86D
:1059B000DADD032007B590F8223043B10191FEF7FC
:1059C000D1FF019903B05DF804EB01F03FB80B463D
:1059D000817F407F012203B05DF804EB02F097B9AC
:1059E00038B590F91D30013304460D461DD090F9AD
:1059F0002100012180B202F05EF994F91F0000211C
:105A000080B202F058F994F92100002180B202F02E
:105A100052F929462046FFF7CDFF94F921000121D4
:105A2000BDE8384080B202F046B902F0ABF994F913
:105A30001B1001F031FD02F0A5F9036800219B68FD
:105A4000984702F09FF9036829469B68984702F03F
:105A500099F9BDE8384001F026BD0000F8B52121D4
:105A60000446FFF7BDFF00212046FFF7B9FF7F2165
:105A70002046FFF7B5FF22212046FFF7B1FF0021A6
:105A80002046FFF7ADFF07212046FFF7A9FF94F955
:105A90001D30294F01332AD094F92100012180B211
:105AA00002F009F994F91F00012180B202F003F914
:105AB00094F92100002180B202F0FDF8012000F0ED
:105AC000D5FB4FF48065013D17F8011B2046ADB2B0
:105AD000FFF770FF002DF6D1012000F0C7FB94F90D
:105AE00021000121BDE8F84080B202F0E4B81026A0
:105AF00002F048F994F91B1001F0CEFC02F042F9D3
:105B00000368A6F110059B684021ADB2984702F0EA
:105B100039F90368795D9B680135ADB29847AE42AB
:105B2000F5D102F02FF901F0BEFC06F110039EB290
:105B3000B6F5826FDCD1F8BDDADD032038B590F917
:105B40001D300177013304460D46C27600F0C9804E
:105B500090F91F00012180B202F09CF894F9210015
:105B6000012180B202F096F894F82230002B00F068
:105B7000A68094F92100012180B202F09CF8FEF782
:105B8000F1FE012100F05DFEFEF7ECFE102100F0B9
:105B900037FFFEF7E7FE002100F066FEFEF7E2FEAB
:105BA00000F03EFE94F92000012180B202F072F86C
:105BB00094F92000012180B202F07DF8012001F06B
:105BC0004DF994F92000002180B202F074F80A2007
:105BD00001F044F994F92000012180B202F06BF841
:105BE0002046AE21FFF7FCFE2046D521FFF7F8FE48
:105BF00020468021FFF7F4FE2046A821FFF7F0FEA3
:105C000020463F21FFF7ECFE2046D321FFF7E8FEB8
:105C100020460021FFF7E4FE20464021FFF7E0FE8A
:105C20008D212046FFF7DCFE012D0CBF1021142131
:105C30002046FFF7D5FE20462021FFF7D1FE204663
:105C40000021FFF7CDFE2046A121FFF7C9FE204627
:105C5000C821FFF7C5FE2046DA21FFF7C1FE204626
:105C60001221FFF7BDFE81212046FFF7B9FE012D6D
:105C70000CBF9F21CF212046FFF7B2FED92120463D
:105C8000FFF7AEFE012D0CBF2221F1212046FFF7C8
:105C9000A7FE2046DB21FFF7A3FE20464021FFF7A9
:105CA0009FFE2046A421FFF79BFE2046A621FFF77A
:105CB00097FE2046AF21BDE83840FFF791BE94F92A
:105CC0001D00012180B201F0E5FF94F91E000121C1
:105CD00080B201F0DFFF94F82230002B3FF462AF76
:105CE00047E702F04FF801F0A1FB5BE72DE9F04F29
:105CF00085B01F46BDF93880BDF83C30A8EB0209DD
:105D0000A7EB010AB9F1000FB8BFC9F10009BAF158
:105D1000000FB8BFCAF1000AD14583460C461546AC
:105D200004DD3A462C4647460D469046BC4205DD0A
:105D30002A464546904622463C4617463E1BB2B28E
:105D40000092A8EB0502002AB8BF52420192C6F3A6
:105D5000C03202FA86F64545B4BF01224FF0FF3249
:105D600076100292BC421CDCDBF800200393D14584
:105D7000D2F81080C7BF294622462A4621465846F7
:105D8000C047019A039BB61AB1B236B2002E05DAAB
:105D9000029A1544009A56182DB236B2013424B234
:105DA000E0E705B0BDE8F08F2DE9F347BDF82C80A2
:105DB0000768BDF92890CDF800800446FF691646B3
:105DC0008A461D46B8472368CDF8008009F1FF32A6
:105DD0003244DF6951462B46204612B2B847236849
:105DE000CDF800809F6932464B4651462046B84761
:105DF0006B1E03EB0A012368CDF828809D693246AB
:105E00004B4609B22046AC4602B0BDE8F0476047B9
:105E100037B5013B13440468BDF8185001951BB217
:105E2000009364690B46A04703B030BD37B5BDF899
:105E300018500468CDE90025013B0B4464691BB28E
:105E4000A04703B030BD2DE9F347BDF92890BDF858
:105E50002C80054692460C46CE18B4420BDA2B68CD
:105E6000CDF800809F6921464B46524628460134B2
:105E7000B84724B2F1E702B0BDE8F08713B5026875
:105E80000191B0F90E100091546AB0F90C30002263
:105E90001146A04702B010BD7047000030B54281E6
:105EA000C2814FF0FF320024054D4261012244605F
:105EB00005600181818104610283827630BD00BF6B
:105EC00054AF0D002DE9F04F2DED028B8BB006463F
:105ED0000391BDF858100591BDF85C100691B0F91A
:105EE0000C1003989DF86050814251DDB6F90E10F8
:105EF00091424DDD062111FB0504002C48DD02EB2B
:105F0000C504002C44DD03EB8303099393B207918E
:105F100000240493052C1CBF2D4B099A049F16BF27
:105F20001B1900239B5C0293039AABB2089304FBFA
:105F300005F313FA82F31BB204EB020A08EE103ADF
:105F40004FF000080FFA85F90FFA8AFA029BDB0777
:105F50002FD5012D336820D1049AD3F810B0059BBA
:105F6000424412B251463046D847029B5B08029326
:105F7000089B08F101081F44B8F1080FBFB2E5D132
:105F8000079B013B013413F0FF0364B20793C1D1B7
:105F90000BB0BDEC028BBDE8F08F059ACDE9009205
:105FA00018EE101AD3F824B03AB24B463046D84710
:105FB000DBE7DDE905239342D7D0012D336805D116
:105FC000049AD3F810B0069B4244CAE7069AE5E764
:105FD00050AA0D0030B50A2985B0044607D1027ECB
:105FE000638A03EBC20363820023238221E00D292D
:105FF0001FD0037E0293C38A0193838A0093B0F972
:1060000012200B46B0F91010FFF75CFF217E238AA7
:1060100001EB410003EB4003A07E1BB20A46238242
:1060200038B1B4F90C006FF0050505FB01018B4296
:10603000D6DC012005B030BD0182428270470129C3
:1060400038BF012101767047C18281827047407E4E
:10605000704701F00303B0F90A204376C907B0F98D
:10606000083059BF8381C2818281C3817047B0F9F2
:106070000C007047B0F90E00704708B5D0F8D0009A
:1060800003681B6B9847003818BF012008BDF8B59E
:1060900006460F461446C4B1D6F8D00003681B6B01
:1060A000984708B90020F8BDD6F8D000FA2C03684C
:1060B0002546A8BFFA25DB682A463946984783B2A9
:1060C000E41A9D42A4B2E6D0ECE70120EBE72DE90B
:1060D000F8430646884691461F461D460024D6F8DA
:1060E000D00003681B6B9847D0B1002D18DBD6F8A1
:1060F000D00003681B69984760B1D6F8D0000368E8
:106100005B69984708F804000134A4B24C4507D0F5
:106110003D46ECE70A3D0A202DB200F09FFEDEE787
:106120002046BDE8F88370B5044600F122059622AA
:106130000021284602F0B4FC6168284602F01AFDEE
:10614000D4F8D0002289036829465E6A0023B0474C
:10615000003818BF012070BD10B50446D0F8D0003B
:1061600003681B6B984720B1D4F8D0000368DB6A42
:106170009847012010BD000030B502810A4A0B4D3E
:10618000C0E90323039B43610023C0E90051C0E938
:106190002F33C0E93133C0E90633C0F8CC30038473
:1061A000A0F8B83030BD00BF4EA80D00B0AF0D0054
:1061B00010B5C0E90012037210BD000008B5024B13
:1061C0001B689B68019308BD6802030008B5024B79
:1061D0001B68DB68019308BD6802030008B5024B29
:1061E0001B681B68019308BD2C02030008B5024B15
:1061F0001B689B68019308BD2C02030008B5024B85
:106200001B68DB68019308BD2C02030008B5024B34
:106210001B681B69019308BD2C02030008B5024BE3
:106220001B685B69019308BD2C02030008B5024B93
:106230001B689B69019308BD2C02030008B5024B43
:106240001B68DB69019308BD2C02030008B5024BF3
:106250001B685B69019308BD6C02030008B5024B23
:106260001B685B68019308BD1802030008B5024B68
:106270001B68DB68019308BD1802030008B5024BD8
:106280001B681B69019308BD1802030008B5024B87
:106290001B685B69019308BD1802030008B5024B37
:1062A0001B685B6C019308BD4802030008B5024BF4
:1062B0001B689B6C019308BD4802030008B5024BA4
:1062C0001B685B69019308BD6402030008B5024BBB
:1062D0001B681B6A019308BD6402030008B5024BEA
:1062E0001B689B6A019308BD6402030008B5024B5A
:1062F0001B681B68019308BD3C02030008B5024BF4
:106300001B68DB68019308BD3C02030008B5024B23
:106310001B681B69019308BD3C02030008B5024BD2
:106320001B685B69019308BD3C02030008B5024B82
:106330001B689B69019308BD3C02030008B5024B32
:106340001B68DB69019308BD3C02030008B5024BE2
:106350001B681B6A019308BD3C02030008B5024B91
:106360001B689B6A019308BD3C02030008B5024B01
:106370001B68DB6A019308BD3C02030008B5024BB1
:106380001B68DB68019308BD2802030008B5024BB7
:106390001B689B69019308BD2802030008B5024BE6
:1063A0001B68DB69019308BD2802030008B5024B96
:1063B0001B681B6A019308BD2802030008B5024B45
:1063C0001B685B6A019308BD2802030008B5024BF5
:1063D0001B689B6A019308BD2802030008B5024BA5
:1063E0001B68DB6A019308BD2802030008B5024B55
:1063F0001B681B6B019308BD2802030008B5024B04
:106400001B685B6B019308BD2802030008B5024BB3
:106410001B681B6C019308BD2802030008B5024BE2
:106420001B681B6D019308BD2802030008B5024BD1
:106430001B689B69019308BD3802030008B5024B35
:106440001B68DB69019308BD3802030008B5024BE5
:106450001B681B6A019308BD3802030008B5024B94
:106460001B689B6A019308BD3802030008B5024B04
:106470001B681B6B019308BD3802030008B5024B73
:106480001B689B6B019308BD3802030008B5024BE3
:106490001B681B68019308BD3002030008B5024B5E
:1064A0001B689B68019308BD3002030008B5024BCE
:1064B0001B68DB68019308BD3002030008B5024B7E
:1064C0001B681B69019308BD3002030008B5024B2D
:1064D0001B685B69019308BD3002030008B5024BDD
:1064E0001B68DB69019308BD3002030008B5024B4D
:1064F0001B681B6A019308BD3002030008B5024BFC
:106500001B685B6A019308BD3002030008B5024BAB
:106510001B68DB6B019308BD3002030008B5024B1A
:106520001B681B6C019308BD3002030008B5024BC9
:106530001B685B6C019308BD3002030008B5024B79
:106540001B681B68019308BD4C02030008B5024B91
:106550001B685B68019308BD4C02030008B5024B41
:106560001B681B69019308BD4C02030008B5024B70
:106570001B685B69019308BD4C02030008B5024B20
:106580001B689B69019308BD4C02030008B5024BD0
:106590001B68DB69019308BD4C02030008B5024B80
:1065A0001B681B6A019308BD4C02030008B5024B2F
:1065B0001B685B6B019308BD6002030008B5024BCA
:1065C0001B681B6D019308BD6002030008B5024BF8
:1065D0001B685B68019308BD2002030008B5024BED
:1065E0001B685B69019308BD2002030008B5034BDB
:1065F0001B68D3F88830019308BD00002002030017
:1066000008B5034B1B68D3F89430019308BD000014
:106610002002030008B5024B1B685B68019308BDAC
:106620004002030008B5024B1B689B68019308BD3C
:106630004002030008B5024B1B68DB68019308BDEC
:106640004002030008B5024B1B681B69019308BD9B
:106650004002030008B5024B1B685B69019308BD4B
:106660004002030008B5024B1B689B69019308BDFB
:106670004002030008B5024B1B68DB69019308BDAB
:106680004002030008B5024B1B681B6A019308BD5A
:106690004002030008B5024B1B681B6B019308BD49
:1066A0004002030008B5024B1B685B6B019308BDF9
:1066B0004002030008B5024B1B681B6C019308BD28
:1066C0004002030008B5024B1B685B6C019308BDD8
:1066D0004002030008B5024B1B685B69019308BDCB
:1066E0004402030008B5024B1B68DB6A019308BD36
:1066F0004402030008B5024B1B68DB6B019308BD25
:106700004402030008B5024B1B681B68019308BDD7
:106710001C02030008B5024B1B685B68019308BDAF
:106720001C02030008B5024B1B689B68019308BD5F
:106730001C02030008B5024B1B685B6A019308BD8D
:106740001C02030008B5024B1B68DB6A019308BDFD
:106750001C02030008B5024B1B681B6B019308BDAC
:106760001C02030008B5024B1B68DB6B019308BDDC
:106770001C02030008B5024B1B685B6C019308BD4B
:106780001C020300002240681146FFF77BBF002275
:1067900040681146FFF786BF40680022FFF77ABFC6
:1067A0004068002281F00101FFF764BF00234068C8
:1067B0001A461946FFF756BF002340681A46194685
:1067C000FFF748BF002240681146FFF73BBF002299
:1067D00040681146FFF726BF406800220221FFF7FC
:1067E00029BF002340681A46FFF714BF024B03225B
:1067F0005A60024A1A607047B8E50320D4AF0D0012
:106800000021FFF78BBE0021FFF790BE10B50446B4
:1068100008462170FFF762FE00236360204610BD2A
:1068200010B504460078FFF7EBFF48B920784FF623
:10683000FF71FFF72BFE2078BDE81040FFF7E3BFA4
:1068400010BD13B5044600780191FFF7D9FF0199F7
:1068500040B92078FFF722FE207802B0BDE8104052
:10686000FFF7D1BF02B010BD13B504460078019107
:10687000FFF7C6FF019940B92078FFF717FE20788F
:1068800002B0BDE81040FFF7BEBF02B010BD0078F7
:10689000FFF7B9BF400830B5186000241868884277
:1068A000E5B206D90134082C02D040081860F5E79B
:1068B0000725024B5B5D137030BD00BF08B00D00B3
:1068C0002DE9F04306468FB000780C46FFF798FF9D
:1068D00000281BDB35781422002109A802F0E0F81B
:1068E0000B23002209A92846ADF82430FFF706FE45
:1068F0009DF82D3013B19DF82C5055B10027B946A5
:10690000B846012523795DB1C3B100200FB0BDE8C1
:10691000F083DDF830809DF834909DF83570F1E714
:10692000002B35D1A368434508D18DF820908DF810
:106930002170BDF82020A3899A42E6D00023A168E7
:106940008DF80F300A9804AB0DF10F02FFF7A2FF8C
:10695000217985B989B9A36843450ED38DF8209074
:106960008DF82170BDF82020A3899A4205D1049B9F
:10697000434502D1C9E70029F9D100230193637B84
:1069800000939DF80F20237B3078FFF7BFFDBCE715
:10699000CDE900552B462A460121F5E72DE9F041C6
:1069A00088B000230446007802930E461746FFF78E
:1069B00027FF054600BB94F800800146142203A877
:1069C00002F06EF80B232A4603A94046ADF80C30BE
:1069D000FFF794FD04988DF8075002AB0DF1070204
:1069E00007FB06F1FFF756FF20789DF80710FFF729
:1069F00065FD2078FFF707FF029808B0BDE8F08139
:106A000038B5044600780D46FFF7FAFE0346D0B9C4
:106A1000616899B10C4A12F8010B854202D001332A
:106A2000082BF8D10133DBB20122D9402046FFF711
:106A3000B5FF2078BDE83840FFF7E5BE207829464D
:106A4000FFF73CFDF5E738BD08B00D0008B500784C
:106A5000FFF73CFDC0B208BD10B5094B094C02223E
:106A600000201A60084B2060A080A071A360FFF78F
:106A7000ADFD2046054A0649BDE8104001F0AAB91F
:106A8000CCE50320C0E503200000FFFFB8E30320AE
:106A900079420D0070B586B0064601AD684600F03B
:106AA00005FB0FCD341D0FC42B682370304606B094
:106AB00070BD10B504460068FFF72CFE204610BDDF
:106AC00010B50446006808B1FFF724FE0023C4E9AE
:106AD0000133236010BD38B504460D46006801310E
:106AE000FFF720FE10B1C4E90005012038BD10B544
:106AF0000368044623B143688B4201D3012010BDD3
:106B00002046FFF7E8FF0028F9D0A368002BF5D155
:106B100022681370F2E737B50D461146019204461C
:106B2000FFF7E5FF019A28B92046FFF7C9FF204685
:106B300003B030BDA2602946206801F0A3FF22689F
:106B4000A3680021D154F2E7002313B5C0E9003354
:106B500004468360037341B10846019102F012F8C4
:106B6000019902462046FFF7D6FF204602B010BD2D
:106B7000884210B5044605D00B682BB18A681946C7
:106B8000FFF7C9FF204610BDFFF79AFFFAE710B5DF
:106B900000230446C0E9003383600373FFF7E8FF76
:106BA000204610BD2DE9F0410668054606B384680D
:106BB000F4B1B046474618F8010B01F05BFF00281E
:106BC000F8D1013C3444207801F054FF18B1A742B9
:106BD00001D8013CF7E7621CD21BBE42AA6003D277
:106BE0003946304601F04EFF2A68AB680021D15487
:106BF0002846BDE8F081000008B5006840B101F00A
:106C000027FF51EC100B01F081FE00EE100A08BDC9
:106C10009FED010AFBE700BF0000000010B504462D
:106C2000006808B1FFF742FB204610BD10B583682D
:106C3000044613B1032201469847204610BD0000C8
:106C400010B5064C002320462360FFF727FB2046A3
:106C5000034A0449BDE8104001F0BCB8D0E5032068
:106C6000B8E303201D6C0D00F8B506460D468F18DD
:106C70000024BD420CD0336815F8011B9B683046D8
:106C80009847031E01DB1C44F3E7002C08BF1C4699
:106C90002046F8BD13B50446084659B1019101F0EC
:106CA00071FF23680199DB680246204602B0BDE807
:106CB0001040184702B010BD08B5FFF7EBFF08BD44
:106CC00003689B68184738B50D210546FFF7F8FFA4
:106CD0000A2104462846FFF7F3FF204438BD38B5A3
:106CE0000546FFF7D7FF04462846FFF7ECFF204490
:106CF00038BD30B58BB000238DF82430012A98BF01
:106D00000A2209AC0D46B1FBF2F101FB125303F06C
:106D1000FF03092B94BF30333733DBB2AA4204F8A8
:106D2000013DEFD92146FFF7B5FF0BB030BD2DE98E
:106D3000F04186B000AF05460E46381D14211446BA
:106D40003B60FFF7F7FC13280ED8391D2846FFF7E4
:106D5000A1FF04461EB12846FFF7B5FF04442046B4
:106D60001837BD46BDE8F08100F1080323F00703A2
:106D7000E846ADEB030D2246411C3B686846FFF731
:106D8000D9FC69462846FFF785FF0446C546E1E77A
:106D900010B50446FFF77AFAE060236820465B6985
:106DA0009847002808DAFFF771FAE368C01AA36869
:106DB0009842F2D34FF0FF3010BD2DE9F041074665
:106DC000884616461D4673B100243846FFF7E0FF9B
:106DD000031E05DB434503D033550134A542F4D1EE
:106DE0002046BDE8F0811C46FAE7002340681A46B9
:106DF0001946FFF72FBC0000014B024A1A6070478A
:106E0000D4E5032018B00D00FAEE087AB4EEE70AD4
:106E1000F1EE10FA08B511D4F2EE0C7AB4EEE70AEE
:106E2000F1EE10FA0ADCDFED067A60EE277A17EE53
:106E3000900A01F0BBFD034BC3E9000108BD00BF90
:106E400000006145E0E50320024B1A68024B1A601E
:106E5000704700BFDCE10320D8E503200021FFF7E5
:106E6000BDBB10B50446FFF7E1FE204610BD000093
:106E70000348044A04490023836000F0ABBF00BF0D
:106E8000E8E50320B8E30320636E0D00014B1860B2
:106E9000704700BFE0E1032008B50B4B43B100F0A1
:106EA00071F903681B699847002801DDAFF3008082
:106EB000064B43B100F052FA03681B69984700285B
:106EC00001DDAFF3008008BD0000000000000000FD
:106ED00008B5FFF7E1FFFFF7D9F9014B186008BDCE
:106EE000D8E703200248034A0349121A01F0CABD39
:106EF00000F4032004F4032060B50D0007B500235F
:106F000000931A466FF07701FFF77AFB03B05DF844
:106F100004FB000007B543880A2B08D0502B0BD187
:106F2000094B1B684BB103B05DF804EB1847FFF742
:106F3000E5FF03B05DF804FB002300931A466FF0F1
:106F40007701FFF75DFBF4E7FCE5032038B5124C51
:106F50001248134D0021FFF70DFC2368AB42114B83
:106F60000CBF012200221A7002D0FFF7BBFF256080
:106F7000FFF774F9044601F09BFD0B4B13B120465B
:106F8000AFF3008000210848FFF7B4FBBDE83840AC
:106F900006480021FFF72ABB00F403208D6E0D0088
:106FA0001E1C279AF8E5032000000000156F0D0055
:106FB000704710B51821044600F011FF204610BD9F
:106FC000F0B5037D062B8DB00E4600F104074FF09F
:106FD000000412D000F1080515F8011D0A22304600
:106FE000FFF787FEAF42044419D0002CF4D02E21C5
:106FF0003046FFF765FE0444EEE72F236A46394624
:107000000A208DF80040FFF759F9684601F0BAFDF3
:1070100033680246DB686946304698470446204696
:107020000DB0F0BD10B5054B0446112240F8043BED
:10703000002101F035FD204610BD00BF40B00D001D
:107040000346074A10B543F8042B01F1100251F82A
:10705000044B43F8044B9142F9D10A781A7010BDE1
:1070600040B00D00037D042B04D14068003818BFE8
:1070700001207047062B07D143683BB983682BB9C1
:10708000C3681BB90069F1E7002070470120704711
:1070900010B59DF8084044EA032343EA024242EA5D
:1070A000016104234160037510BD000013B5054B59
:1070B0000360CB7800938B784A780978FFF7E8FF74
:1070C00002B010BD40B00D0041747047704708B564
:1070D0000021007CFFF752FA40EAE07008BD08B5D5
:1070E0000121007CFFF74AFA40EAE07008BD08B5CC
:1070F000007CFFF73BFA20EAE07008BD08B5007C91
:10710000FFF72CFA20EAE07008BD13B50446007CB6
:107110000191FFF72BFA0028019901DC607C20B176
:10712000207CFFF733FA20EAE07002B010BD007C4B
:10713000FFF734BA10B51421044600F050FE204683
:1071400010BD000010B54FF47A73044608460021C4
:10715000C4E90113044B23600123207463741146B6
:10716000FFF7ECF9204610BD54B00D00007C002262
:10717000FFF7ECB910B514220446002101F090FC91
:10718000204610BD10B5104C88B003A8FFF7F2FFE1
:107190002178BFF35B8F11F0010111D120460191DD
:1071A000FCF78AFF019958B103AA0848FFF7CAFF04
:1071B0002046FCF786FF064A0649044800F00AFE0E
:1071C000024808B010BD00BF00E6032004E603201B
:1071D000B8E30320CD700D00826810B50AB900F045
:1071E00002FEBDE81040C368184738B5002383602D
:1071F0008B6804460D462BB102229847EB68E3608A
:10720000AB68A360204638BDF8B50C4D55F820405A
:1072100006460F4634B12046FFF708FD10212046F0
:1072200000F0DDFD1020FCF736FF044610B13946B2
:10723000FFF7DBFF45F826402046F8BD18E603209F
:10724000F0B587B00546039117461E46FEF7F6FFD8
:1072500003992846FFF7D8FF0446E8B100218E4283
:107260004FF00403ADF815108DF817108DF8143099
:10727000A2BF05A99DF830308DF816300091024666
:107280000749A8BF8DF815603B462846FEF7CEFF9C
:1072900010B1002007B0F0BD201E18BF0120F9E793
:1072A000D9710D0070474174704708B5007CFFF735
:1072B00055F820EAE07008BD08B5007CFFF726F815
:1072C00020EAE07008BD08B5007CFFF72FF840EA1F
:1072D000E07008BD08B5007CFFF720F840EAE070D8
:1072E00008BD007CFFF72AB837B5457C04462DB1B0
:1072F000207C03B0BDE83040FFF700B8007C01916E
:10730000FFF72CF800280199F2DC284603B030BDC5
:1073100010B51421044600F062FD204610BD0000A7
:1073200010B54FF0000C0446084611464FF47A722F
:10733000C4E901C2044A22600122207462741A4620
:10734000FEF7D4FF204610BD84B00D00007C002362
:10735000FFF70CB80022FFF7F9BF000013B50E4C81
:107360002178BFF35B8F11F0010112D1204601910A
:10737000FCF7A2FE019960B1084A094B0948FFF7E2
:10738000CFFF2046FCF79DFE074A0849054800F05C
:1073900021FD044802B010BDA8E60320ACE603209E
:1073A00030E70320B4E70320B8E30320A5720D0003
:1073B0007047F8B5064615460C468F18BC4206D0F5
:1073C000336814F8011B9B6830469847F6E7284657
:1073D000F8BD007C0022FEF7E9BF007C0021FEF72B
:1073E000EDBF007C0021FEF7F1BF007C0021FEF71D
:1073F000F5BF007C0021FEF7F9BF10B5142104464B
:1074000000F0EDFC204610BD10B54FF47A73044631
:1074100008460021C4E90113034B23602074114680
:10742000FEF7F4FF204610BDB4B00D000023007C31
:107430001A461946FEF7A2BF7FB500221423CDE9F4
:107440000122ADF804300B788DF808304B680393B7
:10745000CB680493007C0B7A059301A9FEF7DEFF4D
:1074600007B05DF804FB1FB5003B8DF800104FF02E
:107470006401039118BF0123694601928DF8083019
:10748000FFF7DAFF05B05DF804FB0123FFF7EBBF60
:10749000007C0022FEF77ABFC9B2FFF7F9BF007C7B
:1074A0000022FEF77BBF0121FFF7F9BF10B50446AC
:1074B00028B101F021FB90FBF4F303FB14042046F8
:1074C00010BD13B503688DF80710DC6B01224FF077
:1074D000FF330DF10701A04702B010BD10B40368DF
:1074E000DC6B4FF0FF33A4465DF8044B604713B5E7
:1074F000134602688DF80710D46B0DF107010122C5
:10750000A04702B010BD704738B543691A68002A19
:10751000054610DAB3F88620B3F884309A420AD1CF
:1075200003681B699847044628B92B682846DB6A1C
:107530009847204638BD0120FCE743691868C043DE
:10754000C00F704770470000064B994210B500F11C
:107550000C0405D0084600F049FC002808BF0024B0
:10756000204610BD10B00D0010B5AC21044600F04F
:1075700036FC204610BDFCF792BD2DE9F0414FF0DE
:10758000000886B01D46C0F8048004460E46174623
:107590004146102202A801F083FA6B1C09D04FF477
:1075A0007A70B5FBF0F3CDE9023800FB1353584372
:1075B0000490606910230093006802AB41F2050259
:1075C00040F6FF71FEF732FF002807DAFFF7CAF82E
:1075D00003686360002006B0BDE8F08160690023A5
:1075E00000683A463146FEF741FF031EEEDB1846BF
:1075F000F1E7000070B54D69054B04468C3544F841
:10760000043B06460FCD0FC42B682370304670BD77
:1076100040B00D0010B54369B3F88620B3F884304C
:107620009A42044605D06369B3F88420134418795C
:1076300010BD03681B6998470028F4D14FF0FF3054
:10764000F6E710B54369B3F88620B3F884309A4260
:10765000044608D06369B3F88420511CA3F8841051
:107660001344187910BD03681B6998470028F1D1AD
:107670004FF0FF30F6E7F8B543691746B3F88620B8
:10768000B3F884309A4205460E4616D06969B1F8BF
:107690008430B1F88640E41ABC4228BF3C4604332B
:1076A00022461944304601F0EDF96A69B2F8843097
:1076B0002344A2F884302046F8BD03681B6998472C
:1076C0000028E3D14FF0FF34F5E742690023A2F828
:1076D00084304269A2F8863070472DE9F0411F4698
:1076E00003680C46DB6A8AB0054616469847237D38
:1076F000D5F81480042B0CBF02200A200622012199
:10770000FEF7BCFEC8F800006B691B68002B08DAA6
:107710002B682846DB6A0024984720460AB0BDE85B
:10772000F0812846FFF7D1FFB7B1002303A9F8B2D3
:107730000393ADF81030FEF789FD0028E8D16869A1
:1077400006230093006803AB41F20B0240F6FF7181
:10775000FEF76CFE0028DBD11C22002103A801F0FB
:107760009FF9237D042B1DD14FF407733046ADF8EC
:107770000C30FEF7B3FDADF80E006068FEF7A6FD15
:1077800004906B691C22186803A9FEF75FFE0028AD
:10779000BED104340FCC6D698C350FC523682B70B6
:1077A0000124BAE740F61C233046ADF80C30FEF752
:1077B00095FD05AEADF80E00231D04F11407186801
:1077C0005968324603C20833BB421646F7D1D8E7A0
:1077D00030B54269B2F886308BB004462BB1B2F8AE
:1077E00084209A4201D1FFF770FF61690868002880
:1077F00018DBB1F886507F2D14D804310823C5F169
:1078000080022944FEF72AFE002813DD6369B3F8DD
:1078100086200AB9A3F884206369B3F8862010444F
:10782000A3F886006369B3F88600B3F88430C01A01
:107830000BB030BDFEF796FF03680B2BF2D0FEF7BE
:1078400091FF03680B2BEDD020230025CDE90235F5
:10785000FEF788FF03680193084B0949009302AAC9
:107860002B463220FEF7AAFE63691868FEF7E6FD94
:1078700063694FF0FF321A60D4E700BFDBB00D0040
:10788000D4B00D0010B5436904461868002801DB28
:10789000FEF7D4FD63694FF0FF321A606069112270
:1078A00000218C3001F0FCF82046BDE81040FFF7C5
:1078B0000CBF10B5002304460160C0F88430883046
:1078C000FFF7B0FB204610BD73B500234FF47A726A
:1078D000C0E901320E4A0361026043610446AC20F4
:1078E0000191FCF7D8FB051E05F10C0608D0012319
:1078F000C5E90133074B01992B603046FFF7D9FFEB
:107900002046C4E90565FFF7E0FE02B070BD00BF88
:1079100010B10D00F4B00D0010B54FF0FF3104466A
:10792000FFF7D2FF204610BD10B5044600680028BE
:1079300001DBFEF783FD204610BD0C30FFF7F4BFDE
:107940002DE9F0439846036893B00D460024DB6AA6
:1079500006461746984728466B462246214600941D
:10796000FEF734FC0546002863D1009B002B4BD06A
:107970005B69002B48D006A8FFF754FB009B5C69AD
:107980006378022B04D1211D06A8FFF783F826E0B7
:107990000A2B24D11122294601A801F081F8A368FD
:1079A000002B38D004F108030DF1040C18341868CA
:1079B0005968624603C20833A3429446F7D10623AE
:1079C00001A90CA88DF81430FFF73AFB0DF1340C27
:1079D000BCE80F0007AC0FC4DCF80030237006A829
:1079E000FFF740FB80B1336807ADD3F82090124B0E
:1079F0000C930FCD0DAC0FC42B6823703A46434651
:107A00000CA93046C84705460098FEF7D7FB284624
:107A100013B0BDE8F083E368002BC3D14FF6FF70CD
:107A2000D4F81090FEF752FC8145BBD104F114014B
:107A3000AAE72546E8E700BF40B00D0000224068F5
:107A40001146FEF7FFBD002240681146FEF71ABE40
:107A5000002240681146FEF725BE40680022FEF76E
:107A600019BE4068002281F00101FEF703BE002329
:107A700040681A461946FEF7F5BD002240681146D7
:107A8000FEF7D0BD406800220221FEF7D3BD0023DF
:107A900040681A46FEF7BEBD024B04225A60024AF5
:107AA0001A607047C8E703205CB10D0000234068EE
:107AB0001A46FEF7AFBD406800220221FEF7BABDAC
:107AC000002240681146FEF7ADBD00224068114615
:107AD000FEF7B8BD002340681A461946FEF7BABD46
:107AE000002340681A461946FEF7BCBD40680021D5
:107AF000FEF7E0BD40680021FEF7E4BD40680022CB
:107B000081F00101FEF7B6BD40680022FEF7C2BD5C
:107B1000002240681146FEF7C5BD002240681146AC
:107B2000FEF7B0BD2DE9F043002495B016460D4692
:107B30000746FFF777FA214618220EA8009400F0B6
:107B4000AFFF4023CDE90C3421466B460CAA3046EA
:107B5000FEF73CFB044600284CD102460121686830
:107B6000FEF770FD0221804622466868FEF76AFD36
:107B7000009E81462146002E3CD000293AD17368F0
:107B8000022B03D00A2B11D0F669F4E7B8F1000FED
:107B90000AD0716906A8043107ADFFF787FA0FCD47
:107BA0003C1D0FC42B6823704146EDE7B9F1000F6F
:107BB00001D14946E8E77469102201A800F070FF7E
:107BC00006238DF8143001AD04F108031834186849
:107BD00059682A4603C20833A3421546F7D101A9C2
:107BE00006A807ADFFF72CFA0FCD3C1D0FC42B687C
:107BF0002370DEE70098FEF7E1FA384615B0BDE8DD
:107C0000F0830000024B034A1A6000225A6070475A
:107C1000D0E7032098B10D00232813B502D9002026
:107C200002B010BDA0F10B03022B1AD8174C21781B
:107C3000BFF35B8F11F001010BD120460191FCF7DE
:107C40003BFA019928B11248FEF7E0FD2046FCF707
:107C500038FA0F4B1878FEF749FC0028DFD10120D5
:107C6000DEE7012809D800F08DF80021007CFEF73E
:107C7000C5FB80F00100C0B2D2E709380128EED878
:107C8000FFF76CFB007CFEF761FBF2E7A8E5032041
:107C9000ACE50320232838B504460D460AD8FF2951
:107CA00008D0FFF7B9FF28B129462046BDE8384083
:107CB000FEF79CBA38BD38B504460D46FEF79EFA6D
:107CC000FF2810D0062804D84D2323FA00F0C3075C
:107CD00009D42046FFF7A0FF28B129462046BDE879
:107CE0003840FEF793BA38BD10B50446FEF786FA61
:107CF000031FDBB2012B08D92046FFF78DFF20B10F
:107D00002046BDE81040FEF789BA002010BD2DE9DD
:107D1000F04190461F46002406460D46B8F1000F7C
:107D200013D147FA04F101F001013046FFF7C3FF18
:107D300001212846FFF7BFFF013400212846FFF745
:107D4000BAFF082CEAD1BDE8F081C4F1070147FA77
:107D500001F1E8E738B500232025438014230446C9
:107D60000380856005610649284600F03AF8044919
:107D70006060284600F035F8E060204638BD00BF5E
:107D8000CCB10D0030B50F4D2978BFF35B8F11F0EA
:107D9000010487B013D12846FCF78EF978B101A809
:107DA000FFF7D8FF01AA21460748FFF72DFB284619
:107DB000FCF787F9054A0649034800F00BF802482A
:107DC00007B030BDDCE70320E0E70320B8E3032081
:107DD000B1730D000B460146184600F03DBEFCF79E
:107DE0005EB9FCF75AB908B5FEF7ACFC014900F0E2
:107DF000F9B800BFE8B10D007FB500241023CDE92C
:107E00000234036800949E698DF8044015466B4661
:107E10001268B0479DF8043003F00603062B03BF39
:107E2000009B2B600120204604B070BD009890425A
:107E300014BF01200620704710B5034B03600446B1
:107E400000F0CDF8204610BD28B20D0010B5044654
:107E5000FFF7F2FF20460821FFF7C1FF204610BDC3
:107E60002DE9F0411F46DDE90834DDF8188098451A
:107E70000646154607D1079900F0B4F818B16571A8
:107E80000020BDE8F0813946304600F0ABF800280C
:107E9000F6D00123C4F800802571A371F0E738B54E
:107EA00015461C4600F09EF820B10823E360062327
:107EB0002560237138BD73B505460C4601921E46F8
:107EC00000F090F850B9032E08D82368019A5B6936
:107ED0002946204602B0BDE87040184702B070BD88
:107EE00010B5034B03600446FFF7A6FF204610BD04
:107EF00088B20D0010B50446FFF7F2FF20460C21B2
:107F0000FFF76DFF204610BDF7B5089F9742054665
:107F10000E4614460AD0A86802680897156A3146CA
:107F20002246AC4603B0BDE8F040604719460193D5
:107F300000F058F8019B0028EDD0062003B0F0BDFA
:107F40002DE9F14F0D461946DDE90A4BDDE90CA696
:107F500081461746984600F045F890B1002D3460F0
:107F6000377109DB61198A450CBF06210121B17106
:107F7000002001B0BDE8F08F0235F9D10123B371C3
:107F8000F6E7544506D15946484600F02BF808B1AB
:107F90007771EDE7D9F808000368CDE90CA6CDE9C3
:107FA0000A4BDC693A4643462946A44601B0BDE87F
:107FB000F04F60472DE9F04107460C4615461E4636
:107FC000FFF76DFF48B9B86803689F692A463346D2
:107FD0002146BC46BDE8F0416047BDE8F0817047EE
:107FE00000207047814208B50ED0406803782A2BE4
:107FF0000CD049680B782A2B08BF013100F0B0FD86
:10800000B0FA80F0400908BD0120FCE70020FAE743
:108010009FED010B704700BF000000000000F87FDB
:1080200081F0004102E000BF83F0004330B54FEA29
:1080300041044FEA430594EA050F08BF90EA020F96
:108040001FBF54EA000C55EA020C7FEA645C7FEA29
:10805000655C00F0E2804FEA5454D4EB5555B8BF4C
:108060006D420CDD2C4480EA020281EA030382EABD
:10807000000083EA010180EA020281EA0303362D4F
:1080800088BF30BD11F0004F4FEA01314FF4801C22
:108090004CEA113102D0404261EB410113F0004F34
:1080A0004FEA03334CEA133302D0524263EB4303EB
:1080B00094EA050F00F0A780A4F10104D5F1200E89
:1080C0000DDB02FA0EFC22FA05F2801841F10001E4
:1080D00003FA0EF2801843FA05F359410EE0A5F1B8
:1080E00020050EF1200E012A03FA0EFC28BF4CF0E9
:1080F000020C43FA05F3C01851EBE37101F000459F
:1081000007D54FF0000EDCF1000C7EEB00006EEBAB
:108110000101B1F5801F1BD3B1F5001F0CD3490835
:108120005FEA30004FEA3C0C04F101044FEA44528C
:1081300012F5800F80F09A80BCF1004F08BF5FEA13
:10814000500C50F1000041EB045141EA050130BDF3
:108150005FEA4C0C404141EB0101013C28BFB1F505
:10816000801FE9D291F0000F04BF01460020B1FA50
:1081700081F308BF2033A3F10B03B3F120020CDA23
:108180000C3208DD02F1140CC2F10C0201FA0CF001
:1081900021FA02F10CE002F11402D8BFC2F1200C66
:1081A00001FA02F120FA0CFCDCBF41EA0C0190401C
:1081B000E41AA2BF01EB0451294330BD6FEA040465
:1081C0001F3C1CDA0C340EDC04F11404C4F1200250
:1081D00020FA04F001FA02F340EA030021FA04F362
:1081E00045EA030130BDC4F10C04C4F1200220FAB9
:1081F00002F001FA04F340EA0300294630BD21FAF7
:1082000004F0294630BD94F0000F83F4801306BFBC
:1082100081F480110134013D4EE77FEA645C18BFB0
:108220007FEA655C29D094EA050F08BF90EA020F47
:1082300005D054EA000C04BF1946104630BD91EA3F
:10824000030F1EBF0021002030BD5FEA545C05D142
:108250004000494128BF41F0004130BD14F5800481
:108260003CBF01F5801130BD01F0004545F0FE41F5
:1082700041F470014FF0000030BD7FEA645C1ABF2A
:10828000194610467FEA655C1CBF0B46024650EA61
:10829000013406BF52EA033591EA030F41F400218D
:1082A00030BD00BF90F0000F04BF0021704730B513
:1082B0004FF4806404F132044FF000054FF00001E8
:1082C00050E700BF90F0000F04BF0021704730B5A9
:1082D0004FF4806404F1320410F0004548BF40427E
:1082E0004FF000013EE700BF42004FEAE2014FEAD3
:1082F00031014FEA02701FBF12F07F4393F07F4FAE
:1083000081F06051704732F07F4208BF704793F0B0
:108310007F4F04BF41F40021704730B54FF46074C3
:1083200001F0004521F000411CE700BF50EA0102C6
:1083300008BF704730B54FF000050AE050EA01026F
:1083400008BF704730B511F0004502D5404261EBDF
:1083500041014FF4806404F132045FEA915C3FF420
:10836000D8AE4FF003025FEADC0C18BF03325FEABD
:10837000DC0C18BF033202EBDC02C2F1200300FA6E
:1083800003FC20FA02F001FA03FE40EA0E0021FA93
:1083900002F11444BDE600BF70B54FF0FF0C4CF481
:1083A000E06C1CEA11541DBF1CEA135594EA0C0F33
:1083B00095EA0C0F00F0DEF82C4481EA030621EA6E
:1083C0004C5123EA4C5350EA013518BF52EA0335A9
:1083D00041F4801143F4801338D0A0FB02CE4FF05B
:1083E0000005E1FB02E506F00042E0FB03E54FF08B
:1083F0000006E1FB03569CF0000F18BF4EF0010E83
:10840000A4F1FF04B6F5007F64F5407404D25FEA7E
:108410004E0E6D4146EB060642EAC62141EA555131
:108420004FEAC52040EA5E504FEACE2EB4F1FD0C73
:1084300088BFBCF5E06F1ED8BEF1004F08BF5FEAF1
:10844000500E50F1000041EB045170BD06F00046A3
:1084500046EA010140EA020081EA0301B4EB5C0450
:10846000C2BFD4EB0C0541EA045170BD41F4801148
:108470004FF0000E013C00F3AB8014F1360FDEBF6D
:10848000002001F0004170BDC4F10004203C35DA49
:108490000C341BDC04F11404C4F1200500FA05F3CC
:1084A00020FA04F001FA05F240EA020001F000426D
:1084B00021F0004110EBD37021FA04F642EB0601E3
:1084C0005EEA430E08BF20EAD37070BDC4F10C040D
:1084D000C4F1200500FA04F320FA05F001FA04F2D1
:1084E00040EA020001F0004110EBD37041F10001BD
:1084F0005EEA430E08BF20EAD37070BDC4F12005C8
:1085000000FA05F24EEA020E20FA04F301FA05F22F
:1085100043EA020321FA04F001F0004121FA04F2D7
:1085200020EA020000EBD3705EEA430E08BF20EAA7
:10853000D37070BD94F0000F0FD101F000464000E1
:1085400041EB010111F4801F08BF013CF7D041EA63
:10855000060195F0000F18BF704703F00046520067
:1085600043EB030313F4801F08BF013DF7D043EA38
:108570000603704794EA0C0F0CEA135518BF95EAEE
:108580000C0F0CD050EA410618BF52EA4306D1D175
:1085900081EA030101F000414FF0000070BD50EA94
:1085A000410606BF1046194652EA430619D094EA1E
:1085B0000C0F02D150EA013613D195EA0C0F05D108
:1085C00052EA03361CBF104619460AD181EA03015C
:1085D00001F0004141F0FE4141F470014FF0000014
:1085E00070BD41F0FE4141F4780170BD70B54FF0AF
:1085F000FF0C4CF4E06C1CEA11541DBF1CEA13552F
:1086000094EA0C0F95EA0C0F00F0A7F8A4EB050410
:1086100081EA030E52EA03354FEA013100F0888007
:108620004FEA03334FF0805545EA131343EA1263D0
:108630004FEA022245EA111545EA10654FEA002685
:108640000EF000419D4208BF964244F1FD0404F53E
:10865000407402D25B084FEA3202B61A65EB03059A
:108660005B084FEA32024FF480104FF4002CB6EB57
:10867000020E75EB030E22BFB61A754640EA0C00D7
:108680005B084FEA3202B6EB020E75EB030E22BF17
:10869000B61A754640EA5C005B084FEA3202B6EB58
:1086A000020E75EB030E22BFB61A754640EA9C0017
:1086B0005B084FEA3202B6EB020E75EB030E22BFE7
:1086C000B61A754640EADC0055EA060E18D04FEAA5
:1086D000051545EA16754FEA06164FEAC30343EA45
:1086E00052734FEAC2025FEA1C1CC0D111F4801F12
:1086F0000BD141EA00014FF000004FF0004CB6E70B
:1087000011F4801F04BF01430020B4F1FD0C88BFA9
:10871000BCF5E06F3FF6AFAEB5EB030C04BFB6EBB4
:10872000020C5FEA500C50F1000041EB045170BDA7
:108730000EF0004E4EEA113114EB5C04C2BFD4EBD4
:108740000C0541EA045170BD41F480114FF0000E58
:10875000013C90E645EA060E8DE60CEA135594EAD4
:108760000C0F08BF95EA0C0F3FF43BAF94EA0C0FD7
:108770000AD150EA01347FF434AF95EA0C0F7FF44C
:1087800025AF104619462CE795EA0C0F06D152EAA0
:1087900003353FF4FDAE1046194622E750EA410684
:1087A00018BF52EA43067FF4C5AE50EA41047FF495
:1087B0000DAF52EA43057FF4EBAE12E74FF0FF3CFA
:1087C00006E000BF4FF0010C02E000BF4FF0010CCB
:1087D0004DF804CD4FEA410C7FEA6C5C4FEA430C44
:1087E00018BF7FEA6C5C1BD001B050EA410C0CBF93
:1087F00052EA430C91EA030F02BF90EA020F0020F5
:10880000704710F1000F91EA030F58BF994208BF5B
:1088100090422CBFD8176FEAE37040F00100704718
:108820004FEA410C7FEA6C5C02D150EA013C07D16F
:108830004FEA430C7FEA6C5CD6D152EA033CD3D0BA
:108840005DF8040B704700BF8446104662468C46B4
:108850001946634600E000BF01B5FFF7B7FF0028E7
:1088600048BF10F1000F01BD4DF808EDFFF7F4FF10
:108870000CBF012000205DF808FB00BF4DF808ED9B
:10888000FFF7EAFF34BF012000205DF808FB00BFBE
:108890004DF808EDFFF7E0FF94BF012000205DF8E0
:1088A00008FB00BF4DF808EDFFF7CEFF94BF012095
:1088B00000205DF808FB00BF4DF808EDFFF7C4FF8E
:1088C00034BF012000205DF808FB00BF4A0011D230
:1088D00012F5001211D20DD56FF47873B3EB62521A
:1088E0000ED44FEAC12343F0004343EA505323FA26
:1088F00002F070474FF00000704750EA013002D19B
:108900004FF0FF3070474FF0000070474FEA4102D0
:10891000B2F1E04324BFB3F5001CDCF1FE5C0DD9DD
:1089200001F0004C4FEAC0024CEA5070B2F1004F27
:1089300040EB830008BF20F00100704711F0804F2A
:1089400021D113F13872BCBF01F00040704741F4EF
:1089500080114FEA5252C2F11802C2F1200C10FAF3
:108960000CF320FA02F018BF40F001004FEAC123D7
:108970004FEAD32303FA0CFC40EA0C0023FA02F37B
:108980004FEA4303CCE77FEA625307D150EA013351
:108990001EBF4FF0FE4040F44000704701F0004021
:1089A00040F0FE4040F40000704700BF07EE900A20
:1089B000F5EEC07AF1EE10FA01D400F00BB8F1EE4A
:1089C000677A08B517EE900A00F004F8404261EBB0
:1089D000410108BDD0B5FFF787FC0C4B00220646CD
:1089E0000F46FFF7D9FCFFF771FF0446FFF75AFC6B
:1089F000074B0022FFF7D0FC02460B4630463946B3
:108A0000FFF712FBFFF762FF2146D0BD0000F03DEB
:108A10000000F041D0B50C4B002206460F46FFF790
:108A2000BBFCFFF753FF0446FFF73CFC074B00225B
:108A3000FFF7B2FC02460B4630463946FFF7F4FA20
:108A4000FFF744FF2146D0BD0000F03D0000F0419B
:108A5000002100F0D7BE000010B5054C13462CB124
:108A60000A4601460220AFF3008010BD2046FCE715
:108A700000000000024B1844407800F008007047E6
:108A800020B30D000A44914200F1FF3300D170473A
:108A900010B511F8014B03F8014F9142F9D110BD07
:108AA00002440346934200D1704703F8011BF9E7E3
:108AB00038B50D4B1D68AB6B04467BB91820FDF72C
:108AC00021FE0A4A0A4BA863C0E90023094B8360D0
:108AD0000B23838101220023C0E90423AB6B002216
:108AE0001C615A6138BD00BFE0E103200E33CDABFD
:108AF00034126DE6ECDE0500134B10B51C68A36B59
:108B00007BB91820FDF7FEFD104A114BA063C0E9A8
:108B10000023104B83600B23838101220023C0E9D3
:108B20000423A16B0C480A694B690C4C504304FBAD
:108B30000300A2FB04345A1C044444F10000C1E9C0
:108B4000042020F0004010BDE0E103200E33CDAB47
:108B500034126DE6ECDE05002DF451582D7F954C56
:108B600010F8012B11F8013B012A28BF9A42F7D0D7
:108B7000D01A7047034611F8012B03F8012B002A85
:108B8000F9D17047034613F8012B002AFBD1181ABC
:108B90000138704710B56AB10139841810F8013BEB
:108BA00011F8012F934203D1A04201D0002BF5D13F
:108BB000981A10BD1046FCE770B504460D4645EC0A
:108BC000104B164601F096FC51EC100B7EB1C5F32C
:108BD0000A53C3F16B03002B09DD1B0503F17F551D
:108BE000002405F5401522462B46FFF7D5FB70BD46
:108BF0002DE9F04FA3B01F4600231E93A44B1992FA
:108C00001B680793044618468846FFF7BBFF4FF0E2
:108C1000000A05464FF0000BCDF874801D9B1A78B2
:108C20002B2A4CD039D80D2A32D8082A32D8002A1B
:108C30003CD000230E931D9E3378302B40F0B4803F
:108C4000737803F0DF03582B6CD10E9B01931EAB9E
:108C5000029700938F4A1FAB1DA9204600F046FEE5
:108C600010F00707054605D0062F2AD1013600234C
:108C70001D960E93199B002B40F096850E9BDBB141
:108C800052460BF1004343EC102B23B0BDE8F08FAC
:108C9000202ACED101331D93C0E72D2AC9D101224C
:108CA0000E925A1C1D925B78002BC4D1199BCDF8F3
:108CB0007480002B40F0768552465B46E3E7002245
:108CC000EEE71E9A3AB1352120A801F012FD1E9957
:108CD000204601F047F9013F052F07D8DFE807F0EC
:108CE0000E0B181D0E034FF0000BDA462807C1D5F6
:108CF0004BF0004BBEE7DDE920ABF7E7DDE920A351
:108D00001F9A23F4801302F2334243EA025BEDE739
:108D1000DFF884B14FF0000AE8E76FF0004B4FF046
:108D2000FF3AE3E71D9B5A1C1D925B78302BF9D06C
:108D3000002B9FD001234FF0000904931D9B0A9341
:108D4000CDF824904F460A221D980678A6F13003EC
:108D5000D9B209292AD907992A46FFF71BFF98B3E8
:108D6000002033463D4607900246652B01D0452B37
:108D700018D11DB9049B034398D00025DDF87480F9
:108D800008F101031D9398F801302B2B75D02D2B82
:108D90007BD04FF0000CA3F13001092940F2828012
:108DA000CDF8748000269DE00023C4E7082FD8BFCB
:108DB000099900F10100DABF02FB0133099302FBBC
:108DC000093901371D90BFE71D9B5A191D925B5D44
:108DD000002F37D007903D46A3F13002092A12D95F
:108DE0000122C2E71D9B5A1C1D925B780130302B7B
:108DF000F8D0A3F13102082A00F2DB841D9A079013
:108E000000200A920546303B00F1010214D0079978
:108E1000114407912A4600EB050E0A21724513D131
:108E20002A18082A05F1010505441CDC09990A22C3
:108E300002FB0133099300221D9B591C1D915B7895
:108E40001046C9E73846D2E7082A04DC099E4E439B
:108E500009960132E2E702F1010CBCF1100FD8BF14
:108E600001FB09F9F5E7102DDCBF0A2202FB0939E5
:108E7000E1E70023079301227CE74FF0000C08F1A3
:108E800002031D9398F8023085E74FF0010CF6E7D6
:108E900024B40D00D0B20D000000F07F1D9B591CC2
:108EA0001D915B78302BF9D0A3F1310108293FF6F1
:108EB00079AFA3F1300E1D9B08931D9B591C1D918A
:108EC0005B78A3F13006092E37D9089E891B082943
:108ED00044F61F6602DC7645A8BF7646BCF1000F5B
:108EE00000D07642002D4FD1049901437FF4C2AEE9
:108EF000002A7FF4DBAE692B27D024DC492B24D059
:108F00004E2B7FF4D3AE9E491DA800F035FF0028FC
:108F10003FF4CCAE1D9B1B78282B2DD1994920AA5C
:108F20001DA800F03DFF052826D1219BDDF880A07B
:108F300043F0FF4B4BF4E00B9CE60A2101FB0E3E95
:108F4000AEF1300EB9E76E2BDBE78F491DA800F0BC
:108F500013FF00283FF4AAAE1D9B8C49013B1DA8BE
:108F60001D9300F009FF10B91D9B01331D93DFF81D
:108F70002CB24FF0000A7DE68548FFF749F88DEDE9
:108F8000040BDDE904AB75E6079B0998F31A002F83
:108F900008BF2F46102D0893A846A8BF4FF0100811
:108FA000FFF780F9092D82468B4613DD794B03EBE1
:108FB000C80353E91223FFF7EFF9824648468B4670
:108FC000FFF770F902460B4650465946FFF72EF858
:108FD00082468B460F2D38DC089B002B3FF44AAEAF
:108FE00024DD162B0BDC6B4D05EBC305D5E9000129
:108FF00052465B46FFF7D0F982468B463AE6089A1E
:10900000C5F12503934220DB624CC5F10F0504EB4B
:10901000C50152465B46D1E90001FFF7BDF9089B47
:109020005D1B04EBC504D4E90023E3E7089B16337A
:109030000BDB079B574A9E1B02EBC606D6E90023B3
:1090400050465946FFF7D2FAD6E7089BA5EB080829
:109050009844B8F1000F71DD18F00F030AD04D49A4
:1090600001EBC30152465B46D1E90001FFF794F9D9
:1090700082468B4638F00F084DD0B8F59A7F22DD36
:1090800000252E46099507952223DFF810B12360AD
:109090004FF0000A099B002B3FF4ECAD1E992046CF
:1090A00000F060FF0799204600F05CFF3146204643
:1090B00000F058FF0999204600F054FF2946204649
:1090C00000F050FFD6E500234FEA281850465946D5
:1090D0009946B8F1010F21DC0BB182468B462E4B2D
:1090E000ABF1547B03EBC90952465B46D9E9000159
:1090F000FFF752F9294B0A460B4029498B42824619
:10910000BED8A1F580118B4286BFDFF898B04FF032
:10911000FF3A02F1547B0023049381E018F0010F21
:1091200007D01D4B03EBC903D3E90023FFF734F944
:10913000012309F101094FEA6808CAE7EBD0C8F139
:10914000000818F00F020AD0124B03EBC20350467E
:109150005946D3E90023FFF749FA82468B465FEA76
:109160002818D8D0B8F11F0F1EDD00252E4609950E
:10917000079522234FF0000A4FF0000B236089E788
:10918000CAB20D00E4B20D00C1B20D00C4B20D00B0
:109190004EA80D0060B40D0038B40D000000F07F43
:1091A0000000A07CFFFFEF7F18F0100318BF6A23B8
:1091B000DFF8B493049350465946002318F0010F8A
:1091C00004D0D9E90023FFF7E7F801235FEA680834
:1091D00009F10809F2D10BB182468B46049BBBB161
:1091E000CBF30A53C3F16B03002B594610DD1F2B41
:1091F00040F32881342BDEBF203B4FF0FF3202FAD0
:1092000003F34FF0000ACCBF4FF05C7B03EA010B85
:109210000022002350465946FFF726FB0028A4D120
:10922000099B00930A992B463A46204600F0EFFE30
:10923000099000283FF424AF079B9E1B089B002B3E
:10924000B4BF334600231093089B002523EAE37341
:1092500018932E46099B2046596800F04FFE079050
:1092600000283FF411AF099B1A69023203F10C0187
:1092700092000C30FFF706FC4BEC10AB20AA1FA9A4
:109280002046CDE90AAB01F0B1F91E9000283FF469
:10929000FBAE0121204600F048FF064600283FF4BF
:1092A000F3AE1F9B0499002BABBF109A189A189F1E
:1092B000DDF84090ACBF03EB0209D71A209AA3EB6C
:1092C00001089044A34B08F1FF389845C2F13602DB
:1092D00080F2CC80A3EB08031F2BA2EB03024FF01C
:1092E000010100F3B68001FA03F3119300230C93FC
:1092F00009EB0208049BC14517441F444B46A8BF15
:109300004346BB42A8BF3B46002BC2BFA8EB0308A5
:10931000FF1AA9EB0309109B002B17DD31461A46F3
:10932000204600F0A7FF064600283FF4ADAE0146F8
:109330001E9A204600F002FF0F9000283FF4A4AED2
:109340001E99204600F00EFE0F9B1E93B8F1000FF1
:1093500000F39180089B002B08DD189A079920469E
:1093600000F088FF079000283FF48EAE002F08DD44
:1093700007993A46204600F0CBFF079000283FF4BB
:1093800083AEB9F1000F08DD31464A46204600F0B1
:10939000BFFF064600283FF477AE079A1E99204685
:1093A00001F031F8054600283FF46EAEC3680F9314
:1093B0000023C360314601F00AF8002865DA0F9BEC
:1093C00053EA0A0340F08780CBF31303002B40F0ED
:1093D00082802BF000431B0D1B05B3F1D66F7AD9A9
:1093E0006B6913B92B69012B75DD294601222046D3
:1093F00000F08EFF3146054600F0E9FF00286ADDE7
:109400000499554A5B46002900F0858002EA0B0169
:10941000B1F1D66F7FDCB1F15C7F7FF7AAAE4F4A26
:109420000023CDE916325046DDE916235946FEF7F2
:10943000B3FF0B46034308BF222382468B4608BF77
:1094400023602BE64FF0FF3202FA03F303EA0A0A25
:10945000DEE6C8F17F4808F57F0808F57B4808F18B
:10946000E20801FA08F30C93119141E700230C93F1
:10947000012311933CE71E994246204600F048FF25
:109480001E9000287FF466AFFEE55F466ED10F9A0E
:10949000CBF3130342B3324A934228D1049B504684
:1094A000EBB12D4A3A40B2F1D46F4FF0FF3119D8E9
:1094B000120DC2F16B0301FA03F3984217D1294B45
:1094C0009F4202D101303FF4DFAD234B3B4003F517
:1094D000801B4FF0000A049B002BA0D1DEE54FF06B
:1094E000FF33EAE70B46E8E753EA0A0388D00C9B10
:1094F000DBB13B42EFD00F9B049A50465946C3B1B3
:10950000FFF75AFB02460B46DDE90A01FEF78EFD26
:1095100082468B46DFE71340A3F580136FEA135BA7
:109520006FEA0B5B4FF0FF3AD5E7119B13EA0A0F86
:10953000E0E7FFF741FB02460B46DDE90A01FEF7D3
:1095400073FD0022002382468B46FFF78DF9002829
:10955000C1D00EE602FCFFFF0000F07F0000503992
:10956000FFFF0F00FFFFEF7FF8B20D0031462846E6
:1095700001F08CF859EC108B10EE100A00224FF01D
:1095800080434946FFF784F900287CD00F9B002BCD
:109590004CD0954B0022CDE90C23DFF84C924FF0D4
:1095A0000008924B3B401193119A914B9A4240F024
:1095B000B280DDE90A23DDE90C01A7F1547B4BEC15
:1095C00010ABCDE91623CDE90C0100F093FFDDE9E6
:1095D0000C0153EC102BFEF7DFFE52465B46FEF704
:1095E00025FD0B468149834A1940914282465ED946
:1095F0000B9B02F15472934203D10A9B01333FF457
:1096000043ADDFF8FCB14FF0FF3A1E99204600F061
:10961000A9FC0799204600F0A5FC3146204600F041
:10962000A1FC2946204600F09DFC13E6BAF1000F8C
:109630001BD1CBF31303F3B96B4B002240464946D1
:10964000FFF71CF9D0B9404649466B4B0022FEF7A4
:10965000A3FE8046894609F10043CDF868801B933C
:10966000DDE91A23CDE90C239BE7BAF1010F02D102
:10967000002F3FF47EAD614B00228CE7DFF878913C
:109680004FF00008E7E75C4B404649460022FEF7F2
:1096900083FE0F9B8046894633B901F10043129047
:1096A0001393DDE91223DDE7CDE91289F9E703F130
:1096B000547B049B002BA8D12BF00043119A1B0D67
:1096C0001B059A42A1D14046494601F073F8FEF7C6
:1096D00035FE02460B4640464946FEF7A5FC0F9A6A
:1096E000CBF3130343EA0A0313438046894653D05E
:1096F00035A3D3E90023FFF7C1F800287FF4CEACEF
:1097000033A3D3E9002340464946FFF7D5F80028A4
:109710003FF47BAFC2E4049B33B3119BB3F1D46F2E
:1097200022D82DA3D3E9002340464946FFF7B0F8DD
:10973000A0B149464046FFF7C9F8012838BF0120CB
:10974000FEF7B0FD0F9B8046894613BB01F1004335
:1097500014901593DDE91423CDE90C230D9B119A88
:1097600003F1D6639B1A0D93DDE90C019DED0A0B05
:10977000CDE90C0100F0BEFEDDE90C0153EC102B2D
:10978000FEF70AFEDDE90A23FEF750FC82468B460F
:109790008FE7CDE91489DDE711A3D3E90023FFF7B3
:1097A0006DF8B4E700230E93199A1D9B1360FFF721
:1097B00065BA652B3FF45DAB452B3FF45AAB0122F4
:1097C000FFF792BBAFF300809535A094FFFFDF3F1A
:1097D00035E5AF350000E03F0000C0FFFFFFDF418F
:1097E0009535A094FFFFCF3F0000F03F0000F07FD1
:1097F0000000E07FFFFF9F7C0000E03F0000F0BF23
:10980000FFFFEF7F0A4601460248034B0068FFF75F
:10981000EFB900BFE0E1032048E203200369B3EBA6
:10982000611F2DE9F0434FEA611200F1140445DD98
:1098300011F01F0104EB830604EB82050CD100F14B
:1098400010072946B14234D39B1A9B00EA1E964268
:1098500038BF0023234415E054F82270C1F12008DA
:10986000CF4005F1040EA1467645F44615D89B1A63
:109870009A00043A0135AE4238BF0022A318A7501F
:1098800007B104331A1BA3424FEAA20208BF002308
:10989000026108BF4361BDE8F083DCF800C00CFA48
:1098A00008FC4CEA070749F8047B5EF8047BCF40CC
:1098B000DAE751F804CB47F804CFC3E72346E1E7E2
:1098C000A0F13003092B02D82038C0B27047A0F1B4
:1098D0006103052B01D84738F7E7A0F14103052BB9
:1098E00001D82738F1E70020704700002DE9F04F3C
:1098F0002DED028B89B008EE100A0493BC4B1B6857
:10990000019318468B469046FFF73CF9019BDBF824
:1099100000200344824613F8013C0593931CC2F1D6
:10992000FF2202F57F02FE32D1181F4613F8010B09
:1099300000913028F8D0FFF7C3FF044600283AD141
:10994000019952463846FFF725F90546002868D1A7
:1099500017F80A0007EB0A06FFF7B2FF002862D0EB
:109960003346187830281F4603F10103F9D0FFF77A
:10997000A7FF0123B0FA80F46409354600933A4604
:10998000164601323078FFF79BFF0028F8D1019985
:1099900052463046FFF7FEF880B94DB906EB0A058E
:1099A0002A46164601323078FFF78AFF0028F8D1A0
:1099B000AD1BAD0004E000242546E0E7002DF7D103
:1099C000337803F0DF03502B3BD173782B2B2CD053
:1099D0002D2B2ED0711C4FF000090878FFF770FF77
:1099E000431EDBB2182B2CD8A0F1100211F8010F86
:1099F000FFF766FF431EDBB2182B1DD9B9F1000F2C
:109A000000D052421544CBF80010E4B1009B002B6B
:109A100014BF00270627384609B0BDEC028BBDE80D
:109A2000F08F3E4625460124CAE74FF00009B11CDD
:109A3000D3E74FF00109FAE70A2303FB0202103AC9
:109A4000D4E73146DFE7F31B013B2146072B52DC0D
:109A500018EE100A00F052FA4FF0000B00F1140952
:109A6000CAF101030446CDF80890CDF800B0069382
:109A7000B74243D30298009B40F8043BA0EB090097
:109A8000801046012061184600F0FFFA301AD8F81D
:109A90000060B04266DD871B3946204600F04CFE70
:109AA0008246A8B17B1E591103F01F0259F82110FC
:109AB0004FF0010A0AFA02F20A4209D0534505DDC5
:109AC000B91E204600F038FE002848D14FF0020AA7
:109AD00039462046FFF7A2FE3D44D8F80830AB4295
